:020000040800F2
:10000000C0A5002009030008812600089D200008E3
:100010007D25000869060008413200080000000044
:10002000000000000000000000000000490200087D
:10003000E107000800000000A5020008CD2B000821
:1000400023030008230300082303000823030008F8
:1000500023030008230300082303000823030008E8
:1000600023030008230300082303000801070008F6
:10007000230300080D0700081907000823030008E0
:1000800025070008230300082303000823030008B2
:1000900023030008230300082303000823030008A8
:1000A0002303000823030008230300082303000898
:1000B0002303000823030008230300082303000888
:1000C0002303000823030008230300082303000878
:1000D00023030008E931000819320008253200081E
:1000E0002303000823030008230300082303000858
:1000F000B52C0008A92C00082303000823030008DE
:100100002303000823030008230300082303000837
:10011000892D0008952D00089D2C00082303000858
:100120002303000823030008310700082303000805
:100130002303000823030008230300082303000807
:1001400023030008230300082303000823030008F7
:1001500023030008230300082303000823030008E7
:1001600023030008230300082303000823030008D7
:1001700023030008230300082303000800000000F5
:10018000230300082303000800F002F800F04CF8F5
:100190000AA090E8000C82448344AAF10107DA45E2
:1001A00001D100F041F8AFF2090EBAE80F0013F0E8
:1001B000010F18BFFB1A43F001031847A8440000C1
:1001C000C84400000A4410F8014B14F00F0508BFA2
:1001D00010F8015B240908BF10F8014B6D1E05D013
:1001E00010F8013B6D1E01F8013BF9D1641E03D0EC
:1001F000641E01F8015BFBD19142E4D3704700001B
:100200000023002400250026103A28BF78C1FBD81F
:10021000520728BF30C148BF0B6070471FB504F0BC
:10022000B5F81FBD10B510BD00F0C8F91146FFF7B5
:10023000F5FF03F039F800F0E6F903B4FFF7F2FF39
:1002400003BC00F0EDF900002C4B19680868B0E819
:10025000F04F80F30988BFF36F8F4FF0000080F3F9
:10026000118870470000000008480068006880F3AB
:1002700008884FF0000080F3148862B661B6BFF3BF
:100280004F8FBFF36F8F00DF00BF00BF08ED00E0AE
:10029000DFF80C00016841F470010160704700BF95
:1002A00088ED00E0EFF30980BFF36F8F134B1A68FE
:1002B0001EF0100F08BF20ED108A20E9F04F1060EB
:1002C00009B44FF0500080F31188BFF34F8FBFF394
:1002D0006F8F03F07DFC4FF0000080F3118809BCA4
:1002E00019680868B0E8F04F1EF0100F08BFB0ECB6
:1002F000108A80F30988BFF36F8F704734000020A5
:10030000EFF305807047000009488047094800471F
:10031000FEE7FEE7FEE7FEE7FEE7FEE7FEE7FEE7B5
:10032000FEE7FEE704480549054A064B7047000012
:100330008D2C000889010008C0450020C0A50020C0
:10034000C0650020C065002053EA020C00F06980FF
:100350002DE9F04B4FF00006002B1FBFB3FA83F5D9
:1003600003FA05F424FA05F65E4012BF1643B2FA0A
:1003700082F502FA05F4C5F120051EBF22FA05FC3C
:1003800044EA0C04203556EA044C4FEA144418BFE2
:10039000641C4FF000084FF00009904271EB030C11
:1003A00039D3002919BFB1FA81F701FA07F6B0FA7B
:1003B00080F700FA07F6C7F120071EBF20FA07FCF6
:1003C00046EA0C062037B6FBF4FCA7EB0507103F06
:1003D00007F01F0BCBF120060CFA0BFB2CFA06F6EC
:1003E00044BFB3460026202FA4BF5E464FF0000B4B
:1003F0005BEA060C08BF4FF0010B19EB0B09ABFBD6
:10040000027C48EB0608C01B06FB02CC0BFB03CCAE
:1004100071EB0C01C1E70B46024641464846BDE878
:10042000F08B13B54FF000004FF00001AFF30080E8
:10043000BDE81C407047032A40F2308010F0030CE6
:1004400000F0158011F8013BBCF1020F624498BF27
:1004500011F801CB00F8013B38BF11F8013BA2F1C4
:10046000040298BF00F801CB38BF00F8013B11F03F
:10047000030300F02580083AC0F0088051F8043BDF
:10048000083A51F804CBA0E80810F5E7121D5CBF4C
:1004900051F8043B40F8043BAFF30080D20724BF7F
:1004A00011F8013B11F801CB48BF11F8012B24BF13
:1004B00000F8013B00F801CB48BF00F8012B704762
:1004C00010B5203AC0F00B80B1E81850203AA0E8EF
:1004D0001850B1E81850A0E81850BFF4F5AF5FEA23
:1004E000027C24BFB1E81850A0E8185044BF18C9D6
:1004F00018C0BDE810405FEA827C24BF51F8043B7D
:1005000040F8043B08BF7047D20728BF31F8023BD0
:1005100048BF11F8012B28BF20F8023B48BF00F864
:10052000012B70474FF000020429C0F0128010F038
:10053000030C00F01B80CCF1040CBCF1020F18BFBF
:1005400000F8012BA8BF20F8022BA1EB0C0100F052
:100550000DB85FEAC17C24BF00F8012B00F8012B25
:1005600048BF00F8012B70474FF0000200B513465A
:1005700094469646203922BFA0E80C50A0E80C50C3
:10058000B1F12001BFF4F7AF090728BFA0E80C5074
:1005900048BF0CC05DF804EB890028BF40F8042B6D
:1005A00008BF704748BF20F8022B11F0804F18BFDA
:1005B00000F8012B7047704770477047754600F090
:1005C0002BF8AE4605006946534620F007008546E5
:1005D00018B020B5FFF7A6FEBDE820404FF000069A
:1005E0004FF000074FF000084FF0000B21F007011B
:1005F000AC46ACE8C009ACE8C009ACE8C009ACE85E
:10060000C0098D46704710B50446AFF30080204600
:10061000BDE81040FFF711BE00487047604500205C
:1006200001491820ABBEFEE726000200704700001B
:1006300010EE100A09499FED0A1AF0EE400A8842AE
:1006400001DD70EE410A10EE100A0649884201D918
:1006500070EE010AB0EE600A7047000000003443FB
:100660000000B443000034C3FEE7000001785529C0
:1006700016D142782149503A0A2A11D2DFE802F015
:10068000050A11161B20252B313750F8022F41F88F
:10069000022F03E050F8022F41F80A2F406848600B
:1006A000704750F8022F41F8122FF7E750F8022F49
:1006B00041F81A2FF2E750F8022F41F8222FEDE708
:1006C00050F8022F41F82A2FE8E750F8022F4A632A
:1006D00040688863704750F8022FCA634068086416
:1006E000704750F8022F4A6440688864704750F899
:1006F000022FCA644068086570470000A00000200F
:10070000014800F021B90000D4050020014800F0A4
:100710001BB9000074050020014800F015B9000065
:10072000F4060020014800F00FB9000094060020F4
:10073000014800F009B900003406002001681823C0
:10074000CAB2103AB2FBF3F2054B6FF30901032A68
:100750009B5CC36500D9091D816508467047000090
:100760002444000810B5014600208B698A6A4FF0C6
:10077000C07453B1B3F5005F15D072B1012A0CD02B
:10078000022A0AD0032A09D104E01AB1012A06D0AC
:10079000022A03D1C96AC90100D5012010BDC96A66
:1007A000A142FAD010BD002AF7D0012AF2D0022AC5
:1007B000F3D0032AF3D010BD30B50468256825F4C2
:1007C00080252560046863608368402B036803D03C
:1007D00099600068C26030BD9A600068C16030BD39
:1007E000704700002DE9F0414FF40051254D4F00B6
:1007F000254C002628B3012020700246284600F030
:100800002CFB00223946284600F027FB012002F08D
:10081000DBF80A2002F07CFD022002F0D5F80A2065
:1008200002F076FD032002F0C3F80A2002F070FD0A
:10083000042002F0BDF80A2002F06AFD6660BDE8FF
:10084000F08126700022284600F007FB012239467D
:10085000284600F002FB012002F0AAF80A2002F06C
:1008600057FD022002F0A4F80A2002F051FD0320F7
:1008700002F0AAF80A2002F04BFD042002F0A4F8CE
:10088000D9E7000000100240FC00002072B6FEE72D
:100890002DE9F0410446876D00F0E4FA064694F82D
:1008A00035000025022806D08020606584F8345089
:1008B0000120BDE8F0812068016821F01601016087
:1008C0002068416921F080014161206C08B9A06C69
:1008D00020B12068016821F00801016020680168EA
:1008E00021F0010101600CE000F0BCFA801B05283A
:1008F00007D920206065032084F8350084F834503F
:10090000D7E720680068C007EED194F85C103F205C
:100910008840B860012084F8350084F83450002005
:10092000C7E790F83510022903D0802141650120E6
:100930007047052180F835100068016821F0010139
:1009400001600020704700002DE9F84304464FF095
:100950000009CDF8009063484FF41651A56D00686A
:10096000B0FBF1F72E6894F85C10082000FA01F152
:1009700031420FD021680A6852070BD50A6822F06D
:1009800004020A6094F85C108840A860606D40F032
:100990000100606594F85C104FF0010808FA01F05E
:1009A000304208D021684969090604D5A860606D05
:1009B00040F00200606594F85C10042088403042EA
:1009C00008D021680968890704D5A860606D40F0E7
:1009D0000400606594F85C1010208840304218D004
:1009E00021680968090714D5A860206801684903CF
:1009F00004D50068000308D5A16C07E00168C905AB
:100A000003D4016821F008010160216C09B120467E
:100A1000884794F85C1020208840304231D021680B
:100A20000968C9062DD5A86094F835000528206806
:100A3000016806D0490347D5006800031DD4616CE6
:100A40001CE021F0160101602068416921F080015D
:100A50004161206C08B9A06C20B12068016821F0C8
:100A60000801016094F85C103F208840A86084F879
:100A7000358084F83490216D1FE0E16B09B1204688
:100A80008847606D00282BD0606DC00714D005200A
:100A900084F835002068016821F0010101600098A8
:100AA000401C0090B84203D820680068C007F6D107
:100AB00084F8358084F83490E16C002910D001B0BE
:100AC0002046BDE8F04308470168C905D5D4016850
:100AD00021F01001016084F8358084F83490CCE76F
:100AE000BDE8F883300000202DE9F041044600F015
:100AF000B9F906465CB1022084F83500002584F877
:100B000034502068016821F0010101600DE00120EE
:100B1000BDE8F08100F0A6F9801B052805D920204A
:100B20006065032084F83500F2E720680068C0079C
:100B3000F0D12268116820480140D4E9010318432C
:100B4000D4E903363343184363691843A369184350
:100B5000E3691843236A18430843616A042903D1EF
:100B6000D4E90B1319430843106020684069666A92
:100B700020F0070130460E43012704280CD1A06A5B
:100B80000643E06A40B12046FFF7ECFD20B140206B
:100B9000606584F83570BAE7206846612046FFF743
:100BA000CDFD94F85C203F2191408160656584F81B
:100BB00035700020ACE700003F8010F02DE9F041D7
:100BC0000446866D90F83400002501280DD00120E0
:100BD00084F8340094F835700020012F07D084F891
:100BE000340002252846BDE8F0810220FBE70227F9
:100BF00084F8357060652046FFF7DEFD94F85C10E0
:100C00003F208840B0602068016841F01601016013
:100C1000206C20B12068016841F008010160206863
:100C2000016841F001010160DCE7000070B5044695
:100C300000F018F90546601C02D00448007804440E
:100C400000F010F9401BA042FAD370BD2400002030
:100C50002DE9F84FDFF8BCA10022012503264FF053
:100C60000F090AF1040BAAF1040E00BF0B6805FA84
:100C700002F42340A34270D10F7907F00307012F3C
:100C800001D0022F16D187684FEA420806FA08FC05
:100C900027EA0C07D1F80CC00CFA08FC4CEA070C48
:100CA000C0F808C04768A7430C79C4F30014944007
:100CB0003C4344600C79E443A4070AD0C4684FEA7B
:100CC000420C06FA0CF7BC438F6807FA0CF727436F
:100CD000C7600C7904F00304022C12D1D40800EB95
:100CE000840CDCF820405707FF0E09FA07F824EAC5
:100CF0000804D1F8108008FA07F848EA0408CCF88C
:100D0000208004684FEA420C06FA0CF7BC430F79C6
:100D100007F0030707FA0CF7274307604C6814F441
:100D2000403F70D03C4C276847F4804727602468D8
:100D300022F0030704F480440094384C07EB040CC1
:100D4000DCF8084897074FEA177809FA08F7BC4318
:100D5000334FB84202D1002724E054E0314FB8426B
:100D600001D101271EE0304FB84201D1022719E01E
:100D70002E4FB84201D1032714E02D4FB84201D1C4
:100D800004270FE02B4FB84201D105270AE02A4F74
:100D9000B84201D1062705E0284FB84201D1072704
:100DA00000E0082707FA08F72743CCF80878DAF8B4
:100DB00000405746D1F804C09C435FEACC2C00D5D4
:100DC0001C433C60DBF800405F46D1F804C09C4304
:100DD0005FEA8C2C00D51C433C60DEF8004077466F
:100DE000D1F804C09C435FEA8C3C00D51C433C60B6
:100DF000084F083F3C68D1F804C09C435FEACC3CF4
:100E000000D51C433C60521C102AFFF42FAFBDE8F4
:100E1000F88F0000083C0140443802400030014097
:100E2000000002400004024000080240000C0240A2
:100E3000001002400014024000180240001C024052
:100E40000069084000D001207047426921EA02038E
:100E50000A4043EA0241816170470AB181617047EB
:100E60000904FBE701488068704700002400002067
:100E70000248816802781144816070472400002094
:100E80000B4810B5016841F400710160016841F43C
:100E900080610160016841F480710160032000F00D
:100EA0009FF80F2000F006F800F050F8002010BD69
:100EB000003C024030B505461F4887B00024016859
:100EC00041F010010160006806A900F010000090D8
:100ED00001A800F031F90498A8B100F04DF94000E4
:100EE0001649174AB0FBF1F11648491E026040F25C
:100EF000E732C0E90324C0E90114846100F044FB37
:100F0000040003D015E000F037F9E9E70D4800F0E0
:100F10009BFB04000DD1362000F034F8102D07D2D1
:100F200000222946362000F03BF80748056000E023
:100F3000012407B0204630BD4038024040420F0037
:100F40000010004054070020280000200C4882B008
:100F5000016841F480410160006800F48040009025
:100F60000748001F016841F08051016000680022BD
:100F700000F0805000900F21901E02B000F010B8D9
:100F800044380240002809DB00F01F020121914093
:100F90004009800000F1E020C0F800117047000017
:100FA000F0B40E4B1B680C46C3F30223C3F10705D4
:100FB000042D00D90425191D072901D2002300E0C2
:100FC000DB1E012606FA05F1491E214099409E408C
:100FD000761E16403143F0BC02F033B90CED00E050
:100FE000064900F0070208684FF6FF03184040EA80
:100FF0000220034A10430860704700000CED00E037
:101000000000FA052DE9F0470E46050065D0DFF82F
:101010001481D8F80000F7B200F00700B04207D200
:1010200088F80070D8F8000000F00700B04254D1F2
:1010300028683D4C810712D5400703D5206840F44D
:10104000E05020602878000703D5206840F4604015
:1010500020602068A96820F0F0000843206028780C
:10106000C0072DD0304968680839012812D00228FD
:1010700013D0032811D00968890700292DDA2168C7
:1010800021F0030101432160FFF7ECFE814641F2AC
:10109000883A0EE009688903EFE709688901ECE7FF
:1010A000FFF7E0FEA0EB0901514502D90320BDE89E
:1010B000F0872068696800F00C00B0EB810FEFD179
:1010C000D8F80010404601F00701B14207D9077077
:1010D000006800F00700B04201D00120E7E728785F
:1010E000400705D52068E96820F4E05008432060F7
:1010F0002878000706D52068296920F4604040EA76
:10110000C100206000F058F82168084AC1F30311BB
:10111000515CC8400649086006480068FFF7CAFEEF
:101120000020C4E7003C0240083802402C4400087C
:1011300030000020280000200F2202600C4A1368B3
:1011400003F003034360136803F0F0038360136844
:1011500003F4E053C36012684FF4E05303EAD20291
:1011600002610448006800F0070008607047000052
:1011700008380240003C02400448054900680968FC
:10118000044AC1F38221515CC840704730000020FE
:10119000083802403C4400080448054900680968D2
:1011A000044AC1F34231515CC8407047300000200E
:1011B000083802403C440008154810B5006810F09B
:1011C0000C02144813D04110042A0FD0082A0ED163
:1011D0000F4C241F2268236802F03F025B0207D5F0
:1011E0002068C0F38810A0FB010106E0084610BD8E
:1011F0002168C1F38811A1FB00010023FFF7A4F8C7
:101200002168C1F30141491C4900B0FBF1F010BD58
:10121000083802400024F4002DE9F84F04006ED095
:101220002078DFF84C93C007A9F104054AD009F1F2
:1012300004000168C1F38101012908D00068C0F3EE
:10124000810002280AD1D9F80000400206D528689A
:10125000800337D560680028E1D033E06068B0F5DE
:10126000803F10D0B0F5A02F286810D020F4803037
:101270002860286820F4802028606068A8B1FFF703
:10128000F1FD06460DE0286840F48030F4E740F4B4
:1012900080202860F7E700BFFFF7E4FD801B64288B
:1012A00073D828688003F7D50CE0FFF7DBFD06460E
:1012B00005E000BFFFF7D6FD801B6428F0D8286842
:1012C0008003F7D42078DFF8AC8280074FF0000A63
:1012D0003ED5A748001D016811F00C0F08D000682A
:1012E000C0F3810002280BD1D9F80000400207D4D6
:1012F0002868800716D5E068012800D112E033E1A4
:10130000E068B8B10120C8F80000FFF7ABFD064661
:1013100005E000BFFFF7A6FD801B0228C0D82868A3
:101320008007F7D52868216920F0F80040EAC1005D
:1013300028600DE0C8F800A0FFF794FD064604E021
:10134000FFF790FD801B02281FD828688007F7D47C
:101350002078000722D5864F87486169703771B1C0
:1013600001210160FFF77EFD064604E0FFF77AFDEC
:10137000801B022809D838688007F7D50EE0C0F82E
:1013800000A0FFF76FFD064605E082E0FFF76AFD6B
:10139000801B02287DD838688007F7D42078400762
:1013A00068D5DFF8CCB100270BF13C0BDBF800006F
:1013B000C0000BD4DBF8001041F08051CBF80010D6
:1013C000DBF80000012700F0805000906B4E306881
:1013D000C00510D4306840F480703060FFF742FDE3
:1013E000009005E0FFF73EFD0099401A022850D812
:1013F0003068C005F6D55E4EA0686C3601280FD067
:101400000528306810D020F001003060306820F0EE
:1014100004003060A068B8B1FFF724FD00900FE031
:10142000306840F00100F4E740F004003060F7E776
:10143000FFF718FD0099411A41F28830814266D8C1
:1014400030688007F4D50EE0FFF70CFD009007E050
:10145000FFF708FD0099411A41F28830814256D8C1
:1014600030688007F4D42FB1DBF8001021F08051F0
:10147000CBF80010A069C8B33D49091D0968C1F344
:10148000810102294AD00228504607D0C8F86000DE
:1014900000E03CE0FFF7E6FC04463BE04746C8F8C6
:1014A0006000FFF7DFFC064605E000BFFFF7DAFC4F
:1014B000801B02282BD828688001F7D4D4E90701C3
:1014C0000843A16A2E4A490802EB0141626A41EAD7
:1014D0008211084394F82C1040EA0161C9F8001009
:1014E00001203866FFF7BEFC044606E03EE000BF80
:1014F000FFF7B8FC001B022809D828688001F7D53F
:1015000034E000BFFFF7AEFC001B022802D9032025
:10151000BDE8F88F28688001F4D427E00128F7D0CF
:10152000D9F80000E26900F4800191421CD1226ADE
:1015300000F03F01914217D147F6C071626A014045
:10154000B1EB821F10D1A26A4FF0FF3300F440319B
:1015500003EB5202B1EB024F06D194F82C1000F0CD
:101560007060B0EB016F01D00120D1E70020CFE720
:101570000438024000004742800E4742007000409D
:101580000000FFFF7047704710B5040003D094F8C7
:101590003D0010B107E0012010BD002084F83C00A0
:1015A000204600F01FF8022084F83D00211D20682D
:1015B00001F086FB012084F8460084F83E0084F8A0
:1015C0003F0084F8400084F8410084F8420084F829
:1015D000430084F8440084F8450084F83D0000206E
:1015E00010BD000008B5154A0168154891420ED19A
:1015F000016841F0800101600068002200F0800075
:10160000009005212C20FFF7CBFC2C2010E00D4A88
:10161000914211D1016841F480710160006800229B
:1016200000F48070009005212D20FFF7B9FC2D20DB
:10163000BDE80840FFF7A6BC08BD0000001C004044
:10164000403802400020004090F83D10012901D0B0
:1016500001207047022180F83D100168CA6842F0FD
:101660000102CA6000681149884214D0B0F1804F6D
:1016700011D00F4988420ED00E4988420BD00E4936
:10168000884208D00D49884205D00D49884202D0D1
:101690000C49884204D1816801F00701062903D072
:1016A000016841F001010160002070470000014025
:1016B0000004004000080040000C0040000401400D
:1016C0000040014000180040704770B504460068B3
:1016D00001694FF00005C943890715D4C168C943A2
:1016E000890711D4E91E01610120207720688069F3
:1016F0008007204602D0FFF7E7FF04E000F098F8EB
:10170000204600F096F8257720680169C94349070B
:1017100017D4C168C943490713D46FF004010161AC
:10172000022020772068806910F4407F204602D094
:10173000FFF7CAFF04E000F07BF8204600F079F8DC
:10174000257720680169C943090716D4C168C943D0
:10175000090712D46FF00801016104202077206886
:10176000C0698007204602D0FFF7AEFF04E000F01A
:101770005FF8204600F05DF8257720680169C943CD
:10178000C90617D4C168C943C90613D46FF0100144
:101790000161082020772068C06910F4407F20464E
:1017A00002D0FFF791FF04E000F042F8204600F07D
:1017B00040F8257720680169C943C90708D1C16885
:1017C000C943C90704D1891E0161204600F032F8DF
:1017D00020680169C943090609D4C168C9430906DB
:1017E00005D46FF0800101612046FFF7CBFE206831
:1017F0000169C943490609D4C168C943490605D4EA
:101800006FF040010161204600F058F8206801693E
:10181000C94389060BD4C168C943890607D46FF050
:10182000200101612046BDE87040FFF7ACBE70BDED
:101830007047704770B5044600681649884201D168
:10184000FFF716FB144920680125096888421BD15F
:101850004FF4FA7000F0C4FC10480188491C018064
:101860000F484168491C416032290DDD0D490D606A
:101870000D4909680A680D4909680B6800219A42F8
:1018800001D10B4A116041600A48844201D10A48E3
:10189000058070BD00100040D80300202801002002
:1018A0000000002038010020300100203401002019
:1018B0002C0100209003002026010020704738B53D
:1018C000044690F83E00202822D181B17AB194F8E4
:1018D0003C0001281CD0012084F83C0020632046F5
:1018E00001F01AFC002803D1216B012901D001204D
:1018F00038BD21680A684968009121680C3151E8B7
:10190000002F42F0100241E80023002BF5D138BD32
:10191000022038BD10B515490446006809688842A0
:1019200007D1134800F01CFC0F2211490F48FFF7A4
:10193000C6FF104920680968884207D10E4800F0A8
:101940000FFC0F220C490B48FFF7B9FF0B49206829
:101950000968884209D10A4800F002FCBDE810403D
:101960000F2207490548FFF7AABF10BDEC0400206D
:101970009744002020040020A64400206404002096
:10198000B544002070470000F8B5016804460868B7
:10199000CA684B6910F00F0F4FF0000559D003F0E3
:1019A000010602F49077374365D0C10705D0D10511
:1019B00003D5216C41F001012164410705D5D90708
:1019C00003D0216C41F002012164810705D5D907BC
:1019D00003D0216C41F004012164010707D502F016
:1019E0002001314303D0216C41F008012164216CB6
:1019F00000293AD0800604D5900602D5204601F091
:101A0000A5FA20684069216CC0F38010090700D452
:101A100060B3204601F065FA20684069400621D590
:101A20002068143050E8001F21F0400140E8001207
:101A3000002AF5D1A06BA8B16C490165A06BFEF737
:101A400070FF002811D0A06B016D01B0BDE8F0401F
:101A5000084783060FD593060DD52046BDE8F8400C
:101A600001F074BA2046FFF78DFFF8BD2046FFF75E
:101A700089FF2564F8BD266B2023012E79D1C60687
:101A800077D5D60675D5086848680090486940063D
:101A900040D5A16B086840680004000CEAD0A28D14
:101AA0008242E7D9E085C869B0F5807F2DD02068F3
:101AB0000C3050E8001F21F4807140E80012002A29
:101AC000F5D12068143050E8001F21F0010140E8F2
:101AD0000012002AF5D12068143050E8001F21F0D0
:101AE000400140E80012002AF5D184F83E30256319
:101AF00020680C3050E8001F21F0100140E800126F
:101B0000002AF5D1A06BFEF7C3FEA08DE18D401A2F
:101B100081B229E0A08DE18D401A81B2E08D0028CC
:101B2000A8D00029A6D020680C3050E8002F22F45D
:101B3000907240E80026002EF5D12068143050E85D
:101B4000002F22F0010240E80026002EF5D184F893
:101B50003E30256320680C3050E8002F22F0100240
:101B600040E80023002BF5D12046FFF7D3FEF8BD57
:101B7000FFE705062BD5150629D594F83D00212849
:101B8000F5D1A068B0F5805F01D12069B0B1206ABD
:101B9000411C2162216800784860E08C401E0004EE
:101BA000000CE084E3D12068C16821F08001C160AD
:101BB0002068C16841F04001C160D8E7206A008810
:101BC000C0F308004860206A801C2062E5E74006F8
:101BD000CDD55006CBD5CA68204622F04002CA6057
:101BE00084F83D3000F058FAC1E70000A12D00084C
:101BF00070B5040004D094F83D00002510B106E053
:101C0000012070BD84F83C50204600F023F82420C9
:101C100084F83D002068C16821F40051C16020466D
:101C200001F0F4F92068016921F490410161206814
:101C3000416921F02A0141612068C16841F40051E5
:101C4000C1602564202084F83D0084F83E00002017
:101C500070BD00002DE9F04F87B00546142168469D
:101C6000FEF782FCB248DFF8C4820221D5F800C03A
:101C70000024AF4A103803260823DFF8B8E28F06A5
:101C80004FF4406B4FF480694FF4803AC44537D12C
:101C9000D2F800C04CF4002CC2F800C0126802F464
:101CA00000220592026842F00402026000680DF111
:101CB0000408CDF800B088E8520000F00400CDE937
:101CC000043069467046FEF7C3FF9C4E9A48306068
:101CD000C6E90174C6E903497461B461C6E9074AFB
:101CE00030467462FEF700FF08B1FEF7CFFDAE6329
:101CF000002205213420B563FFF752F9342052E069
:101D0000DFF83C82C44553D1D2F800C04CF4801CAB
:101D1000C2F800C0126802F480120592026842F014
:101D200004020260026802F004020592026842F0B6
:101D30000802026000688B4600F0080005904FF42E
:101D40008050CDE9000B0DF1080C98468CE850014D
:101D500069467046FEF77CFF0420CDE9000B0DF1CB
:101D6000080B69468BE850017648FEF771FF734E09
:101D70007148603630383060C6E90174C6E90349FD
:101D80007461B461C6E9074A30467462FEF7ACFE7E
:101D900008B1FEF77BFDAE63002205213520B56357
:101DA000FFF7FEF83520FFF7EDF807B0BDE8F08F3C
:101DB000DFF894810723DFF894E1C44539D15C4A08
:101DC000121DD2F800C04CF0100CC2F800C012680E
:101DD00002F010020592026842F0010202600068FF
:101DE000049300F0010005904FF4C0608DE85300AB
:101DF00069467046FEF72CFF504E5548C03630609D
:101E0000C6E90174C6E9034980157461C6E9064054
:101E1000C6E908A43046FEF767FE08B1FEF736FDB6
:101E2000AE63002205212520B563FFF7B9F8252010
:101E3000B9E7DFF82081C44537D1D2F800C04CF4AF
:101E4000003CC2F800C0126802F400320592026839
:101E500042F0010202600068049300F00100059066
:101E60000C208DE8530069467046FEF7F1FE3248BB
:101E7000394E48303060C6E90174C6E903497461DF
:101E80004FF40030B461C6E9074030467462FEF793
:101E90002BFE08B1FEF7FAFCAE63002205212620D6
:101EA000B563FFF77DF826207DE7DFF8B080C445F5
:101EB0007FF47BAFD2F800C04CF4802CC2F800C095
:101EC000126802F480220592026842F00202026067
:101ED00000680DF10408CDF800B088E8520000F069
:101EE0000200CDE9043069461D48FEF7B1FE1A4EE6
:101EF000114860361830E6E802074020A6E81102D3
:101F0000154846F814496030B461C6E9074A74625E
:101F1000FEF7EAFD08B1FEF7B9FC6E630022052169
:101F20002720B563FFF73CF827203CE7004C004032
:101F30004038024000080240406002407405002022
:101F400000500040000C0240001001400000024020
:101F500040640240004400409406002000480040D5
:101F60000004024090F83E30202B0ED159B152B1FE
:101F700090F83C30012B08D0012380F83C3000233E
:101F8000036301F0C9B8012070470220704790F840
:101F90003E30202B0ED159B152B190F83C30012B7C
:101FA00008D0012380F83C300023036301F0FEB821
:101FB00001207047022070470E4910B5884217D1A2
:101FC0000D48017840290CD20C4A0D4B12785A5416
:101FD000491C01700B490020096848620948FFF755
:101FE00033FBBDE81040012204490248FFF7CFBF90
:101FF00010BD00003005002024010020000000205A
:102000000C450020900300207047000070B5044686
:1020100090F83D00202836D191B38AB394F83C0063
:10202000012830D0012084F83C002162A284E2849F
:1020300000252564212084F83D00636B1348D86394
:10204000636B13481864636B1248D864606B134663
:1020500005652668606B321DFEF7B0FD21686FF0E4
:102060004000086084F83C502068143050E8001F9D
:1020700041F0800140E80012002AF5D1002070BD37
:10208000FFE70120FBE70220F9E70000972E000898
:10209000D92E0008B12D000870477047FEE70000F8
:1020A0002DED028B00F02EF84FF47A7001F030F92C
:1020B000104C9FED118ADFED118AB4F90400104D28
:1020C00000EE100AB8EEC00A20EE080A20EE280A38
:1020D00085ED010AB4F9040000EE100A0220B8EE02
:1020E000C00A20EE080A20EE280A85ED000A01F059
:1020F0000FF9EFE7BA000020000000380000344379
:102100001801002005480068C16841F01001C16055
:102110000B2203490148FFF725BF0000A804002057
:102120008C44002070B538B90A4C4FF4004529465C
:102130002046FEF785FE08B1002070BD0A20FEF79C
:1021400075FD29462046FEF77BFE0028F9D00120C8
:1021500070BD000000000240012001F0D9F8FBE74B
:102160000178042903D0052901D0062909D1094A9B
:10217000042907D0052909D0062902D1808840BA50
:1021800090807047808840BA10807047808840BA3D
:1021900050807047F60000204FF4FA7001F0B8F854
:1021A0000F2209490948FFF78AFB0F22084909480D
:1021B000FFF785FB0F2208490848FFF780FB012045
:1021C00001F0A6F8FBE7000097440020EC04002093
:1021D000A644002020040020B54400206404002010
:1021E00006490A68521C0A60824206DB0020086029
:1021F0004FF400510248FEF728BE70479C000020B3
:10220000000802401D4808B5016841F480010160E2
:10221000016801F480010091016841F4001101603E
:102220000068002200F40010009005210B20FEF74A
:10223000B7FE0B20FEF7A6FE002205210D20FEF7BB
:10224000AFFE0D20FEF79EFE002205210E20FEF7B8
:10225000A7FE0E20FEF796FE002205211020FEF7B5
:102260009FFE1020FEF78EFE002205213A20FEF789
:1022700097FEBDE808403A20FEF784BE30380240A1
:1022800030B5A7B000252395012123A8249501F09E
:102290004BF8204C01216061259525A8269501F079
:1022A00043F8A0611C221C496846FEF709F9002189
:1022B000684601F058F8184960601C221C3107A8D4
:1022C000FEF7FEF8002107A801F04DF81249A060C2
:1022D0001C2238310EA8FEF7F3F800210EA801F0F9
:1022E00042F80D49E0601C22543115A8FEF7E8F8C9
:1022F000002115A801F037F8074920611C22703130
:102300001CA8FEF7DDF800211CA801F02CF82060C5
:1023100027B030BD08000020984300082DE9F041A7
:1023200086B014216846FEF71FF92F480025016882
:1023300041F004010160016801F0040105910168A8
:1023400041F080010160016801F0800105910168A0
:1023500041F001010160016801F00101059101688E
:1023600041F010010160016801F010010591016860
:1023700041F002010160016801F00201059101686C
:1023800041F0080101600068184F00F008004FF4A8
:1023900000540590002221463846FEF75EFDDFF826
:1023A00050804FF4C046002231464046FEF755FDAE
:1023B00000940124694638460194CDE90245FEF7B0
:1023C00047FCCDE9006469464046CDE90245FEF789
:1023D0003FFCE003CDE90005694602940548FEF79D
:1023E00037FC06B0BDE8F0813038024000080240FA
:1023F00000100240000002400B4810B5094901607E
:1024000053214160002140F2E732C0E9021201612C
:102410008161FFF7B9F8002803D0BDE81040FEF74E
:1024200035BA10BD001C0040900300200C4810B5C8
:102430000A49016053214160002140F2E732C0E9BE
:102440000212016180218161FFF79EF8002803D00C
:10245000BDE81040FEF71ABA10BD00000020004091
:10246000D80300200C4810B50A4901604FF41651FA
:102470004160002181600C22C160C0E904128161C9
:10248000C161FFF7B5FB002803D0BDE81040FEF79F
:10249000FDB910BD004C0040200400200C4810B5D0
:1024A0000A4901604FF416514160002181600C22FD
:1024B000C160C0E904128161C161FFF799FB002886
:1024C00003D0BDE81040FEF7E1B910BD0050004058
:1024D000640400200C4810B50A4901604FF4E13152
:1024E0004160002181600C22C160C0E90412816159
:1024F000C161FFF77DFB002803D0BDE81040FEF767
:10250000C5B910BD00100140A80400200C4810B54A
:102510000A4901604FF416514160002181600C228C
:10252000C160C0E904128161C161FFF761FB00284D
:1025300003D0BDE81040FEF7A9B910BD004400402B
:10254000EC0400200C4810B50A4901604FF4E13159
:102550004160002181600C22C160C0E904128161E8
:10256000C161FFF745FB002803D0BDE81040FEF72E
:102570008DB910BD0048004030050020FEE7000086
:102580001CB54FF47A7000F0C3FE324C01225103A7
:102590002046FEF762FC012291032046FEF75DFC17
:1025A000322000F0B5FEDFED2C0A9FED2C0A2C4AFC
:1025B00001212C4800F0A2FA0120FEF713F94FF098
:1025C00000092948CDF80090CDF80490C0F800D05B
:1025D000264801A90160012000F0F6F9642000F00E
:1025E00097FE022000F0F0F9642000F091FE1C4CF0
:1025F0001F4E204F204D4FF07E58103C4FF4967ADE
:1026000096ED000AD7ED000A30EE200AFEF710F82A
:1026100084ED030AD5ED000A30EE600A10EE100AD0
:10262000404502DD4FF4C87005E010EE100A10F1CD
:10263000814F02D91148A06001E0C4F80890D4E9A4
:1026400001028118801A00F0A3FA504600F060FEE3
:10265000D6E7000000100240000048430000FA44A2
:102660000C010020C444002030010020340100206F
:10267000200100201C0100201801002070FEFFFF37
:10268000FEE700002DE9F04FDFF81083074685B024
:10269000D8F804000E4618B1052005B0BDE8F08F4B
:1026A000BF4D07F0FF09102085F8009068700024E6
:1026B000AC705220E8702C71012068710220A87162
:1026C000EC71002E02DD0120287201E02C724E42D6
:1026D0000921B34801F014F96872000AA8720B21AD
:1026E000AF4800F0A5FD012000F012FEA8F8004060
:1026F0006B780193EB7804936A79DFF8A8B2DFF87E
:10270000A8A2039246E0A9480088012842D19BF87C
:1027100000105846B94235D1417880291DD99BF81F
:10272000020007280BD2DFE800F00A0406080A0CB2
:102730000E00012508E0022506E0032504E004253B
:1027400002E0052500E0062540219648FDF7EAFE57
:102750008AF80040A8F800407FE0019A914211D128
:10276000C27804998A420DD19BF8051003988142E2
:1027700008D140218B48FDF7D5FE8AF80040A8F823
:1027800000400CE040218748FDF7CCFE87488AF8DE
:1027900000400480B8F80000B0F5FA6FB3D3B8F881
:1027A0000000B0F5FA6F02D3A8F80040F0E085F819
:1027B000009010206870AC705520E8702C710220D9
:1027C00068710420A871300EE871300C2872300A4C
:1027D0006872AE720B21724801F092F8E872000A3A
:1027E00028730D216E4800F023FD012000F090FDBC
:1027F0004646A8F8004068780190E8780490687927
:10280000D0464FF4FA6A039045E0684800880128F2
:1028100041D19BF800105846B94234D14178802903
:102820001DD99BF8020007280BD2DFE800F00A044C
:1028300006080A0C0E00012508E0022506E0032523
:1028400004E0042502E0052500E006254021554866
:10285000FDF768FE88F80040348028461DE7019A9D
:10286000914210D1C27804998A420CD19BF805108C
:102870000398814207D140214A48FDF753FE88F86A
:10288000004034800AE040214648FDF74BFE4748AF
:1028900088F80040048030885045B6D330885045D1
:1028A00075D285F8009010206870AC705120E870E7
:1028B0002C71012068710220A871EC710F20287220
:1028C0000921374801F01CF86872000AA8720B2130
:1028D000334800F0ADFC012000F01AFD3480687828
:1028E0000190E878039068794546DFF8C090D046BB
:1028F000029042E0B9F8000001283ED19BF8001098
:102900005846B94232D1417880291CD99BF802003F
:1029100007280BD2DFE800F00A0406080A0C0E00B4
:10292000012708E0022706E0032704E0042702E06D
:10293000052700E0062740211A48FDF7F3FD2C701B
:1029400034803846A9E6019A91420FD1C2780399A2
:102950008A420BD19BF805100298814206D1402192
:102960001048FDF7DFFD2C70348009E040210D4850
:10297000FDF7D8FD2C70A9F8004030884045B9D348
:1029800040210848FDF7CEFD3088404502D3348011
:10299000072082E6348000207FE600002801002026
:1029A0004C4500200C450020240100202601002079
:1029B0000449496809B105207047062302225121C4
:1029C00000F00EB8280100200449496809B105202B
:1029D000704707230222512100F002B8280100208D
:1029E0002DE9FF4F404D81B0814628700620687068
:1029F0000024AC700298E870180A28716B710621E7
:102A0000284600F07DFFA871000AE871012000F05F
:102A10007FFC0821284600F00BFC012000F078FC28
:102A2000324E3480334895F801B06979DFF8C0A0A0
:102A3000314F4FF4FA680546009146E02888012896
:102A400043D19AF8002050464A4538D14178802930
:102A500023D99AF802000D280ED2DFE800F00D0706
:102A6000090B0D0F110D0D0D0D0D130001250AE0C1
:102A7000022508E0032506E0042504E0052502E020
:102A8000062500E0082540211948FDF74BFD3C7064
:102A90003480284605B0BDE8F08F59450FD1C27883
:102AA00002998A420BD19AF805100098814206D10A
:102AB00040210F48FDF736FD3C70348008E040218E
:102AC0000B48FDF72FFD3C702C8030884045B5D376
:102AD00040210748FDF726FD30883480404501D36A
:102AE0000720D7E70020D5E74C450020280100202B
:102AF0000C4500202601002024010020002828D0B9
:102B0000002A26D0017092ED001A80ED011A92ED94
:102B1000011A80ED021A92ED021A80ED031A80ED7F
:102B2000040A9FED0C0AC0ED050A80ED0E0A80ED47
:102B30000D0A80ED0C0A80ED080A80ED0B0A80ED8D
:102B40000A0A80ED090A80ED110A80ED100A80ED75
:102B50000F0A70470000000010B50120FFF728FFA2
:102B6000142000F0D5FB0220FFF722FF142000F014
:102B7000CFFB0320FFF71CFF142000F0C9FB04204B
:102B8000FFF716FFBDE81040142000F0C1BB0000A5
:102B900010B50C460C490A7841425AB10120FFF7A2
:102BA00071FD052000F0B4FB21460220BDE8104075
:102BB000FFF768BD0420FFF765FD052000F0A8FBC6
:102BC00021460320F2E70000FC00002010B5502051
:102BD00080F31188BFF34F8FBFF36F8F01F088FA36
:102BE00018B104494FF080500860002080F311882C
:102BF00010BD000004ED00E030B593B03021684610
:102C0000FDF7B2FC14210CA8FDF7AEFC1D48002511
:102C1000016841F080510160006800F0805011901F
:102C20001948016841F4804101600068022400F401
:102C30008040119001200090000401908001CDE9B6
:102C4000064008AA0420A82182E813000B906846D9
:102C5000FEF7E2FA08B172B6FEE70CA90F2081E890
:102C600031004FF4A0500F904FF480501090052188
:102C70000CA8FEF7C7F9002801D072B6FEE713B022
:102C800030BD00004038024000700040024801683A
:102C900041F470010160704788ED00E00148FEF7E3
:102CA00014BD0000540700200148FEF70EBD0000CF
:102CB000D80300200148FEF708BD00009003002063
:102CC000F0B50268254C264D264E274F274B4FF076
:102CD000804CA04209D0604507D0A84205D0B04240
:102CE00003D0B84201D0984204D122F0700E4A6855
:102CF00042EA0E02A0421BD0604519D0A84217D06C
:102D0000B04215D0B84213D0984211D0184DA84205
:102D10000ED0184DA8420BD0174DA84208D0174D21
:102D2000A84205D0164DA84202D0164DA84203D1A4
:102D300022F44075CA682A434D6922F080022A4372
:102D400002608A68C2620A688262A04201D0984228
:102D500001D10969016301214161F0BD0000014019
:102D60000004004000080040000C00400004014046
:102D7000004001400044014000480140001800406C
:102D8000001C0040002000400148FEF7FDBD00008F
:102D9000200400200148FEF7F7BD00006404002075
:102DA00010B5806B0021C185C184FEF7EBFD10BD1D
:102DB00070B5846B2068406994F83D10C0F3C01072
:102DC0000025212904D118B1E584204600F0B0F88F
:102DD0002068406994F83E10C0F38010222904D185
:102DE00018B1E585204600F07CF8206C40F010001A
:102DF00020642046FEF7C6FD70BD10B50146806B0D
:102E000009680968C9052FD40021C18501680C3102
:102E100051E8002F22F4807241E80023002BF5D105
:102E20000168143151E8002F22F0010241E800232B
:102E3000002BF5D10168143151E8002F22F0400237
:102E400041E80023002BF5D1202180F83E10016BD2
:102E5000012909D101680C3151E8002F22F010023C
:102E600041E80023002BF5D1016B012902D0FFF7C7
:102E7000A3F810BD818DFEF74DFD10BD10B5806B20
:102E8000016B012902D0FFF7BFF810BD818D490801
:102E9000FEF740FD10BD10B50146806B096809685A
:102EA000C90516D40021C1840168143151E8002FEE
:102EB00022F0800241E80023002BF5D101680C319B
:102EC00051E8002F42F0400241E80023002BF5D1E9
:102ED00010BDFFF7E1F810BD10B5806BFFF7DDF80E
:102EE00010BD01680C3151E8002F22F4907241E8C6
:102EF0000023002BF5D10168143151E8002F22F096
:102F0000010241E80023002BF5D1016B012909D111
:102F100001680C3151E8002F22F0100241E8002333
:102F2000002BF5D1202180F83E100021016370476D
:102F300001680C3151E8002F22F0C00241E8002363
:102F4000002BF5D1202180F83D10704708B590F88E
:102F50003E10222901D0022008BD82684FF4805320
:102F60009A4201D1016921B1816A9A421BD04AB1CA
:102F70000AE00268816A5268C2F308020A80816A24
:102F8000891C08E0026972B10268526802F07F028F
:102F90000A70816A491C8162C18D491E0904090CAD
:102FA000C18503D019E002685268F1E70168CA6878
:102FB00022F02002CA600168CA6822F48072CA60E6
:102FC00001684A6922F001024A61202180F83E101E
:102FD000016B012903D0FEF7EFFF002008BD00219F
:102FE000016301680C3151E8002F22F0100241E822
:102FF0000023002BF5D101680A68D20602D50A68C1
:1030000049680091818DFEF785FCE6E770B50446BE
:1030100000680169E26821F44051114301612169AE
:10302000A068E26908436169114308432168CA68DE
:1030300049F20C639A430243CA6020684169A2695D
:1030400021F440711143416131492068884202D026
:103050003049884202D1FEF79FF801E0FEF78CF874
:10306000E2690023192164253226B2F5004F626817
:1030700028D0A0FB0101930F9200FDF765F90146EE
:10308000B0FBF5F06FF01802504301EB800006EB47
:103090000010B0FBF5F000F0F002B1FBF5F002EB30
:1030A0000012B1FBF5F06FF01803584301EB8000FC
:1030B00006EB0010B0FBF5F000F00F0021681044A3
:1030C000886070BDA0FB010192185B41FDF73CF9DF
:1030D0000146B0FBF5F00201B1FBF5F06FF018030B
:1030E000584301EB800006EBC000B0FBF5F000F0A8
:1030F000F80002EB4002B1FBF5F0584301EB800011
:1031000006EBC000B0FBF5F000F00700D6E70000CA
:10311000001001400014014038B58162828500250D
:10312000134604460564222084F83E00A26B1C4826
:10313000D063A26B1B481064A26B1B48D064A06BC9
:103140000A4605652168A06B091DFDF737FD20685B
:1031500001684068009084F83C50206948B12068BC
:103160000C3050E8001F41F4807140E80012002A42
:10317000F5D12068143050E8001F41F0010140E80B
:103180000012002AF5D12068143050E8001F41F0E9
:10319000400140E80012002AF5D1002038BD0000AF
:1031A000FB2D00087D2E0008B12D0008816282856C
:1031B000C28500210164222280F83E2080F83C1064
:1031C000016921B10168CA6842F48072CA6001686D
:1031D0004A6942F001024A610068C16841F0200179
:1031E000C16000207047000008B50948FEF7CCFB1D
:1031F000074800680168C943C90607D401684068E8
:103200000090BDE808400348FDF730BA08BD000053
:10321000A80400208C4400200148FEF7B5BB000044
:10322000EC0400200148FEF7AFBB00003005002091
:103230000A4601460148FEF7E9BE000030050020BD
:10324000FEE70907090E002804DB00F1E02080F802
:103250000014704700F00F0000F1E02080F8141D0A
:10326000704700000020FEF75DFF0028FAD04FF401
:10327000C8770C4D00244FF4FA76C7F100083046A9
:103280002F6000F045F83046C5F8008000F040F8A7
:10329000641C052CF3DBFFF75FFC012000F038F81D
:1032A000FBE7000000010020FDF7EAFDFFF7A4FCAA
:1032B000FFF734F8FEF7A6FFFFF70CF9FFF726F942
:1032C000FFF740F9FFF7EAF8FFF7CCF8FFF794F8BB
:1032D000FFF7ACF8012207490748FEF758FE0748F8
:1032E000FEF7B2F90648FEF7AFF9FEF7C9FF00F0A6
:1032F00016F8FEE70000002030050020D80300206B
:103300009003002001460020842900D0C81C70478B
:1033100010B500B9012000F0D1FB002010BD10B5A0
:1033200000F018FC002010BD38B543684BB10129EE
:1033300009D10320002200901146012000F011FD68
:1033400038BD012901D0002038BD03220021012011
:1033500000F0E6FC040004D000231A46194600F0F1
:1033600077FD204638BD7FB50D4604464169B0F96A
:10337000080081B1A16971B1FFF7C4FFD4E905125A
:103380008DE80700D4E900102B46226900F077FE93
:10339000039004B070BDFFF7B5FF03A9CDE90001AC
:1033A000208A2B4682B2D4E9001000F03BFE0128AF
:1033B00001D00020EDE70398EBE700002DE9F04194
:1033C000184C0F460546E6682068001D00F0AEFA6E
:1033D00038B9206890F82C10012088402169814379
:1033E0002161681C07D137B12168BDE8F0410E4862
:1033F000091D00F0DFBA20683544B54245602168F8
:1034000005D2A06BBDE8F041091D00F0BBBA606BAE
:10341000091D00F0B7FAA06A854200D2A562BDE896
:10342000F081000034000020780800202DE9F041F0
:10343000054600F0CBFA2E4CA068401CA060206826
:103440002C4F10B1606940B32DE02560A0680128C1
:1034500029D1002606EB860007EB800000F084FAF5
:10346000761C072EF6D323488C3000F07DFA2148D5
:10347000A03000F079FA1F48B43000F075FA1D480A
:10348000C83000F071FA1B48DC3000F06DFA1948C2
:103490008C3060631430A06305E02068E96AC06A7C
:1034A000884200D82560606A401C6062E96A012099
:1034B000226988401043206101EB810007EB800006
:1034C000291D00F077FA00F0A1FA606900280CD0FD
:1034D0002068E96AC06A884207D207494FF08050E5
:1034E0000860BFF34F8FBFF36F8FBDE8F08100001E
:1034F000340000209C07002004ED00E02DE9F0419D
:10350000856B174604460026026C82B1C7B1E0689D
:10351000FCF791FFE168206C091AE1602268914292
:1035200002D2A168081AE060022F16D017E02068C6
:10353000A8B9A06800F042FE06460020A0600EE098
:103540006068FCF778FF216C606808446060A168DF
:10355000884204D32068606001E005B16D1E6D1CD7
:10356000A5633046BDE8F08110B5044690F85100DF
:1035700058B101280CD002280FD0502080F31188B8
:10358000BFF34F8FBFF36F8FFEE7206B00F052FA4F
:103590002046BDE8104000F04DBA10BD10484FF471
:1035A0007051420706D0C01D0D4920F00700411A96
:1035B000C1F570510B4A00230144C2E900030839E8
:1035C000183A21F0070111604B600B600B1AC0E93B
:1035D000001393604FF0004053605061704700004B
:1035E0008C08002088000020144E154CA6F1C80756
:1035F0004FF08058DFF84C9012E000BF00F0E6F981
:10360000F068C568281D00F091F9A068401EA06010
:103610006068401E606000F0F9F92846FFF7A4FFDB
:1036200060680028EAD138680128F9D9C9F8008013
:10363000BFF34F8FBFF36F8FF2E7000064080020E5
:103640003400002004ED00E00346009829B1026038
:10365000C0E90F31012100F0B7BB0060F8E72DE9A8
:10366000F0479A46DDE9098481466FF00303206B39
:1036700003EB82021044089E20F00707780707D06A
:10368000502080F31188BFF34F8FBFF36F8FFEE799
:10369000002561B1002023180A5C83F834200A5CFD
:1036A00012B1401C1028F6D384F8435001E084F88E
:1036B0003450072E00D30626E662C4E91165201DAA
:1036C00000F05DF904F1180000F059F92461C6F129
:1036D00007006462A061E56484F850505246494690
:1036E000384600F0F7F82060B8F1000F01D0C8F8B4
:1036F0000040BDE8F087000030B5114900E01146F8
:103700000A688242FBD34B685C18844203D140684C
:1037100018444860084643681C18944209D1084C74
:10372000183C2468A24209D052681A4442600A68D0
:1037300012680260814200D0086030BD0460F9E781
:10374000880000200648416B096829B1416BC968AF
:10375000C9684968816270474FF0FF31FAE700009D
:103760003400002008484068401C4FF0500080F3AF
:10377000118804D0BFF34F8FBFF36F8FFEE7BFF305
:103780004F8FBFF36F8FFEE7900000202DE9F041CF
:10379000044600F01BF994F9455004F1240609E0B1
:1037A000606A48B1304600F055FD08B100F0B4F948
:1037B0006D1E6DB2002DF3DC4FF0FF3684F84560CE
:1037C00000F024F900F002F994F9445004F11007D4
:1037D00009E0206948B1384600F03CFD08B100F02E
:1037E0009BF96D1E6DB2002DF3DC84F84460BDE8DA
:1037F000F04100F00BB900002DE9F041054600272B
:1038000000F0DEF9324E306808B9FFF7C7FE706984
:1038100005424ED1C5B3083568070ED005F0070044
:10382000C0F108000544680707D0502080F31188D4
:10383000BFF34F8FBFF36F8FFEE72DB370688542E4
:1038400037D82348183001460C6801E020460C4662
:103850006168A94202D221680029F7D131688C42FF
:1038600027D007682168016060680837411B10296C
:103870000FD96019420708D0502080F31188BFF398
:103880004F8FBFF36F8FFEE713E041606560FFF776
:1038900033FF61687068401A7060B268904200D26D
:1038A000B060706901430020C4E90001F068401C69
:1038B000F06000F009FD780707D0502080F31188F0
:1038C000BFF34F8FBFF36F8FFEE73846BDE8F0813F
:1038D0007000002010B5031F4FF080741C601B1F88
:1038E00021F001011960191F044B0B6014390A60A3
:1038F000091F6FF0020244380A6010BD65370008E6
:1039000070B5094DFF231A4605F5807606E000BF25
:1039100010F8014B54402A5D5A40335D491E89B26C
:10392000F6D242EA032070BD44440008D0E90132D7
:1039300001699A60D0E901235A604A68824201D144
:1039400082684A60002202610868401E08600868B8
:1039500070470000034B036003F1540008608020AF
:10396000106070473C01002000F108014FF0FF3269
:10397000C0E90112C16001610021016070470021AE
:103980000161704730B50B685A1C02D000F1080283
:1039900002E0026904E02246546825689D42FAD993
:1039A00053684B6099608A60516008610168491CE6
:1039B000016030BD42684A6093688B6093685960CB
:1039C000916008610168491C01607047502080F3D4
:1039D0001188BFF34F8FBFF36F8F0A494868401CAF
:1039E000486001280CD10848006810F0FF0F07D08C
:1039F000502080F31188BFF34F8FBFF36F8FFEE726
:103A0000704700009000002004ED00E0084948687D
:103A100028B1401E486001D180F3118870475020C2
:103A200080F31188BFF34F8FBFF36F8FFEE7000065
:103A30009000002070B500282AD0164DA0F108048F
:103A400060686969084207D1502080F31188BFF38C
:103A50004F8FBFF36F8FFEE722683AB1502080F39B
:103A60001188BFF34F8FBFF36F8FFEE7884360600D
:103A700000F0A6F860686968084468602046FFF7AF
:103A80003BFE2869401C2861BDE8704000F01CBC6A
:103A900070BD0000700000204FF0E02000210161A7
:103AA000816105494FF47A720968B1FBF2F1491E50
:103AB00041610721016170473000002010B502000C
:103AC00014D00F48006B38B1502080F31188BFF339
:103AD0004F8FBFF36F8FFEE700F072F800211046A2
:103AE000FFF76CFC00F0F0FB002807D105494FF010
:103AF00080500860BFF34F8FBFF36F8F10BD000081
:103B00003400002004ED00E002490A6A0260C9683E
:103B1000416070473400002001490120C8617047AE
:103B20003400002010B50C4650B10949096818311D
:103B3000FFF728FF2046BDE810400121FFF73EBCFB
:103B4000502080F31188BFF34F8FBFF36F8FFEE7D4
:103B50003400002010B586B00024039405AA04A9FF
:103B600003A80494FFF7F6FEDDE903010094CDE914
:103B7000011000230EA11048059A00F080FA0F49A9
:103B80000028C86211D0502080F31188BFF34F8FF6
:103B9000BFF36F8F4FF0FF30886201204861CC6027
:103BA00006B0BDE8104000F041B806B010BD0000FE
:103BB00049444C4500000000E9350008340000206D
:103BC0000248016B491C016370470000340000206B
:103BD0001448016B11B10121C16170470021C1611D
:103BE0000169B1FA81F1C1F11F0101EB81020E49B6
:103BF00051F822306BB101EB820101F108034A68F0
:103C000052684A609A4201D152684A60D1680160A4
:103C10007047502080F31188BFF34F8FBFF36F8F31
:103C2000FEE70000340000209C0700201CB5374848
:103C30000168374A914207D1502080F31188BFF3C1
:103C40004F8FBFF36F8FFEE700683149491E8842EE
:103C500007D1502080F31188BFF34F8FBFF36F8FD0
:103C6000FEE72C4908780190FF20087008788DF84D
:103C700000009DF800009DF8002000F0F000904248
:103C800007D0502080F31188BFF34F8FBFF36F8FA1
:103C9000FEE79DF80000204C00F050002070072047
:103CA000A06005E09DF8002052008DF80020401E25
:103CB0009DF800201206F5D4A060032807D05020FC
:103CC00080F31188BFF34F8FBFF36F8FFEE74FF480
:103CD0004070A060019808700C482030016841F4E1
:103CE00070010160016841F070410160FFF7D4FE8E
:103CF00000206060FCF7CCFA0848016841F04041C0
:103D00000160FCF7B1FA00201CBD000000ED00E0EE
:103D100071C20F4100E400E09000002034EF00E0A9
:103D2000F8B517460E46050013D005FB06F04830DF
:103D3000FFF762FD04000AD0002084F8460004F179
:103D400048023B46314628460094FFF77DFC20465A
:103D5000F8BD502080F31188BFF34F8FBFF36F8FF2
:103D6000FEE738B5049D18B153B1CAB181B120E066
:103D7000502080F31188BFF34F8FBFF36F8FFEE7A2
:103D8000502080F31188BFF34F8FBFF36F8FFEE792
:103D9000502080F31188BFF34F8FBFF36F8FFEE782
:103DA00039B1502080F31188BFF34F8FBFF36F8F6D
:103DB000FEE748241C46012384F846302B46009435
:103DC000FFF742FC204638BD70B50D46040025D0F3
:103DD000FFF7FCFDD4E90F20216802FB0011A16070
:103DE0000021A163216861600A46D4E90F01401EE9
:103DF00000FB0121E16021464FF0FF3001F8440F44
:103E0000487004F110008DB1FFF7AEFD04F12400FD
:103E1000FFF7AAFDFFF7FAFD012070BD502080F3E7
:103E20001188BFF34F8FBFF36F8FFEE72169002921
:103E3000F0D000F00FFA0028ECD004494FF0805089
:103E40000860BFF34F8FBFF36F8FE3E704ED00E02F
:103E50002DE9FF4782B01D468A464FF00008040056
:103E600003D0BAF1000F08D011E0502080F3118880
:103E7000BFF34F8FBFF36F8FFEE7206C38B1502038
:103E800080F31188BFF34F8FBFF36F8FFEE7022DD2
:103E90000AD1E06B012807D0502080F31188BFF3CE
:103EA0004F8FBFF36F8FFEE700F014F93F4F4FF0D5
:103EB00000094FF0805648B9049838B1502080F37B
:103EC0001188BFF34F8FBFF36F8FFEE7FFF77EFDC3
:103ED000A06BE16B884207D3022D05D00498D0B1C6
:103EE000B8F1000F1AD01EE02A4651462046FFF7CF
:103EF00005FB616A19B104F1240000F0ABF920B1AF
:103F00003E60BFF34F8FBFF36F8FFFF77FFD012040
:103F100006B0BDE8F087FFF779FD22E06846FFF7BD
:103F2000F3FD4FF00108FFF771FDFFF749FEFFF7C2
:103F30004DFD94F94400401C01D184F8449094F95B
:103F40004500401C01D184F84590FFF75FFD04A9AE
:103F5000684600F02DF830B12046FFF717FC00F05E
:103F6000B3F90020D4E7FFF731FDA06BE16B884285
:103F700013D1FFF74BFD04F110000499FFF7D2FDB8
:103F80002046FFF703FC00F09FF900289ED13E6019
:103F9000BFF34F8FBFF36F8F98E7FFF737FD2046D2
:103FA000FFF7F4FB00F090F990E7000004ED00E06B
:103FB0002DE9F0410C46050011D0C4B1FFF706FD14
:103FC000174BDA686E682068911B471C17D02F6862
:103FD0001B6A9F4219D0964217D8012410E0502046
:103FE00080F31188BFF34F8FBFF36F8FFEE7502030
:103FF00080F31188BFF34F8FBFF36F8FFEE700246C
:10400000FFF704FD2046BDE8F081884205D9401A3B
:1040100020602846FFF778FDF1E700202060DCE70C
:10402000340000202DE9FF5F8346DDE90E879946C5
:1040300016468A469000FFF7DFFB05001CD054208F
:10404000FFF7DAFB040014D00020256384F8510048
:10405000CDE90240CDE900874B46324651465846ED
:10406000FFF7FDFA2046FFF7E1F9012004B0BDE8B3
:10407000F09F2846FFF7DEFC4FF0FF30F6E7F0B583
:1040800085B0DDE90B640A9DA6B1DCB15427009729
:104090002663022684F85160002604AFCDE902466B
:1040A000CDE90057FFF7DBFA2046FFF7BFF9049888
:1040B00005B0F0BD502080F31188BFF34F8FBFF3E0
:1040C0006F8FFEE7502080F31188BFF34F8FBFF34F
:1040D0006F8FFEE70548416919B1006B18B10020E8
:1040E0007047012070470220704700003400002014
:1040F0002DE9F0412F4C0026206B28B1A069401C0F
:10410000A0613046BDE8F081E5686D1CE56013D123
:10411000606B006838B1502080F31188BFF34F8F77
:10412000BFF36F8FFEE7606BA16B6163A063206AD2
:10413000401C2062FFF706FBA06ADFF87C80854206
:1041400009D3606B0068A0B1606BC068C76878680D
:10415000854211D2A0622068C06A00EB800158F845
:104160002100012800D90126E0690028C9D00126D4
:10417000C7E74FF0FF30EDE7381DFFF7D7FBB86A10
:1041800018B107F11800FFF7D1FBF96A0120226985
:1041900088401043206101EB810108EB8100391D4B
:1041A000FFF708FCF86A2168C96A8842C9D301266A
:1041B000C7E70000340000209C07002070B5040011
:1041C0004FF0000140D0214D2868844207D0502094
:1041D00080F31188BFF34F8FBFF36F8FFEE7A06CA2
:1041E00038B1401EA064636CE26A9A422CD040B1A0
:1041F0002AE0502080F31188BFF34F8FBFF36F8FF9
:10420000FEE7201DFFF792FB114A012150B9E06A39
:1042100000EB800352F8233023B92B6901FA00F038
:1042200083432B61606CE062C0F10700A061E06A2B
:104230002B6981401943296100EB800002EB80006B
:10424000211DFFF7B7FB0121084670BD3400002097
:104250009C0700202DE9F041C068C468ACB104F1AE
:1042600018000746FFF762FB154D286B0126A0B129
:1042700039461448FFF79EFBE06A2968C96A8842FC
:104280001CD90120EE61BDE8F081502080F3118837
:10429000BFF34F8FBFF36F8FFEE7201DFFF746FB85
:1042A000E16A2A6906FA01F01043286101EB8100F6
:1042B0000449B43901EB8000211DDBE70020E2E76F
:1042C00034000020500800202DE9F0472C4D002438
:1042D0002746286B38B1FFF779FB286B401E28630F
:1042E000286B40B146E0502080F31188BFF34F8F18
:1042F000BFF36F8FFEE7A968224E0120D1B3A6F16C
:10430000B40980463068E8B1F068C46804F1180068
:10431000FFF70CFB201DFFF709FBE06A2A6908FA8A
:1043200000F11143296100EB800109EB8100211D9F
:10433000FFF740FBE06A2968C96A8842E2D3C5F802
:104340001C80DFE70CB1FFF7FDF9AC6944B14646CC
:10435000FFF7CEFE00B1EE61641EF9D10020A86126
:10436000E86938B10849012738070860BFF34F8F63
:10437000BFF36F8FFFF74AFB3846BDE8F0870000B8
:10438000340000205008002004ED00E04FF04070A1
:10439000E1EE100A70470000444600085921000869
:1043A000000000000000000080000000000000008D
:1043B0000000000054460008992100080100000098
:1043C000000000008000000000000000000000006D
:1043D00048460008A120000801000000000000007D
:1043E0008000000000000000000000004C460008B3
:1043F00065320008FDFF00000000000080000000A2
:1044000000000000000000005C4600088125000854
:10441000FEFF00000000000000010000000000009E
:104420000000000000061016000610160000000034
:104430000000000001020304060708090000000054
:104440000102030400C1814001C0804101C08041DC
:1044500000C1814001C0804100C1814000C1814054
:1044600001C0804101C0804100C1814000C1814044
:1044700001C0804100C1814001C0804101C0804134
:1044800000C1814001C0804100C1814000C1814024
:1044900001C0804100C1814001C0804101C0804114
:1044A00000C1814000C1814001C0804101C0804104
:1044B00000C1814001C0804100C1814000C18140F4
:1044C00001C0804101C0804100C1814000C18140E4
:1044D00001C0804100C1814001C0804101C08041D4
:1044E00000C1814000C1814001C0804101C08041C4
:1044F00000C1814001C0804100C1814000C18140B4
:1045000001C0804100C1814001C0804101C08041A3
:1045100000C1814001C0804100C1814000C1814093
:1045200001C0804101C0804100C1814000C1814083
:1045300001C0804100C1814001C0804101C0804173
:1045400000C1814000C0C101C30302C2C60607C743
:1045500005C5C404CC0C0DCD0FCFCE0E0ACACB0BB3
:10456000C90908C8D81819D91BDBDA1A1EDEDF1FE3
:10457000DD1D1CDC14D4D515D71716D6D21213D3D3
:1045800011D1D010F03031F133F3F23236F6F73783
:10459000F53534F43CFCFD3DFF3F3EFEFA3A3BFB73
:1045A00039F9F83828E8E929EB2B2AEAEE2E2FEF23
:1045B0002DEDEC2CE42425E527E7E62622E2E32393
:1045C000E12120E0A06061A163A3A26266A6A767C3
:1045D000A56564A46CACAD6DAF6F6EAEAA6A6BAB33
:1045E00069A9A86878B8B979BB7B7ABABE7E7FBF63
:1045F0007DBDBC7CB47475B577B7B67672B2B37353
:10460000B17170B050909151935352929656579702
:10461000559594549C5C5D9D5F9F9E5E5A9A9B5BF2
:1046200099595898884849894B8B8A4A4E8E8F4FA2
:104630008D4D4C8C44848545874746868242438312
:10464000418180404C454400494D5500636F6E7474
:10465000726F6C004C617365720000004D6F746F77
:104660007200000084460008000000203C010000A9
:10467000C40100089C4600083C01002084A40000FE
:1046800000020008012542019210036224F405771C
:0C469000AAAAAAAA3370410329404000E6
:040000050800018965
:00000001FF
