:020000040800F2
:1000000060490020E9020008C91F0008351C0008EB
:10001000891F00084305000865270008000000004C
:10002000000000000000000000000000290200089D
:10003000AD06000800000000850200082D21000820
:100040000303000803030008030300080303000878
:100050000303000803030008030300080303000868
:100060000303000803030008030300080303000858
:10007000D905000803030008E5050008030300088C
:10008000F105000803030008030300080303000848
:100090000303000803030008030300080303000828
:1000A0000303000803030008030300080303000818
:1000B0000303000803030008030300080303000808
:1000C00003030008030300080303000803030008F8
:1000D00003030008DD2600080D2700083D2700085F
:1000E00003030008030300080303000803030008D8
:1000F00003030008030300080303000803030008C8
:1001000003030008030300080303000803030008B7
:100110000303000803030008FD210008030300088F
:100120000303000803030008FD050008030300089B
:100130000303000803030008030300080303000887
:100140000303000803030008030300080303000877
:100150000303000803030008030300080303000867
:100160000303000803030008030300080303000857
:100170000303000803030008030300080000000055
:10018000030300080303000800F002F800F03CF845
:100190000AA090E8000C82448344AAF10107DA45E2
:1001A00001D100F031F8AFF2090EBAE80F0013F0F8
:1001B000010F18BFFB1A43F00103184784330000F6
:1001C000A4330000103A24BF78C878C1FAD8520787
:1001D00024BF30C830C144BF04680C6070470000C1
:1001E0000023002400250026103A28BF78C1FBD840
:1001F000520728BF30C148BF0B6070471FB503F0DE
:1002000045F81FBD10B510BD00F061F91146FFF7AC
:10021000F5FF02F0B8FA00F07FF903B4FFF7F2FF40
:1002200003BC00F087F900002C4B19680868B0E89F
:10023000F04F80F30988BFF36F8F4FF0000080F319
:10024000118870470000000008480068006880F3CB
:1002500008884FF0000080F3148862B661B6BFF3DF
:100260004F8FBFF36F8F00DF00BF00BF08ED00E0CE
:10027000DFF80C00016841F470010160704700BFB5
:1002800088ED00E0EFF30980BFF36F8F134B1A681E
:100290001EF0100F08BF20ED108A20E9F04F10600B
:1002A00009B44FF0500080F31188BFF34F8FBFF3B4
:1002B0006F8F02F023FE4FF0000080F3118809BC1D
:1002C00019680868B0E8F04F1EF0100F08BFB0ECD6
:1002D000108A80F30988BFF36F8F704720000020D9
:1002E000EFF3058070470000094880470948004740
:1002F000FEE7FEE7FEE7FEE7FEE7FEE7FEE7FEE7D6
:10030000FEE7FEE704480549054A064B7047000032
:10031000ED210008890100086043002060490020A9
:10032000604500206045002053EA020C00F069801F
:100330002DE9F04B4FF00006002B1FBFB3FA83F5F9
:1003400003FA05F424FA05F65E4012BF1643B2FA2A
:1003500082F502FA05F4C5F120051EBF22FA05FC5C
:1003600044EA0C04203556EA044C4FEA144418BF02
:10037000641C4FF000084FF00009904271EB030C31
:1003800039D3002919BFB1FA81F701FA07F6B0FA9B
:1003900080F700FA07F6C7F120071EBF20FA07FC16
:1003A00046EA0C062037B6FBF4FCA7EB0507103F26
:1003B00007F01F0BCBF120060CFA0BFB2CFA06F60C
:1003C00044BFB3460026202FA4BF5E464FF0000B6B
:1003D0005BEA060C08BF4FF0010B19EB0B09ABFBF6
:1003E000027C48EB0608C01B06FB02CC0BFB03CCCF
:1003F00071EB0C01C1E70B46024641464846BDE899
:10040000F08B13B54FF000004FF00001AFF3008008
:10041000BDE81C40704710B5203AC0F00B80B1E831
:100420001850203AA0E81850B1E81850A0E8185029
:10043000BFF4F5AF5FEA027C24BFB1E81850A0E832
:10044000185044BF18C918C0BDE810405FEA827C4C
:1004500024BF51F8043B40F8043B08BF7047D20763
:1004600028BF31F8023B48BF11F8012B28BF20F804
:10047000023B48BF00F8012B70474FF0000200B567
:10048000134694469646203922BFA0E80C50A0E8B7
:100490000C50B1F12001BFF4F7AF090728BFA0E865
:1004A0000C5048BF0CC05DF804EB890028BF40F831
:1004B000042B08BF704748BF20F8022B11F0804F73
:1004C00018BF00F8012B704770477047704775469A
:1004D00000F02CF8AE4605006946534620F00700B0
:1004E000854618B020B5FFF70DFFBDE820404FF05E
:1004F00000064FF000074FF000084FF0000B21F00E
:100500000701AC46ACE8C009ACE8C009ACE8C009DA
:10051000ACE8C0098D46704710B50446AFF30080C3
:100520002046BDE81040FFF778BE00000048704745
:10053000FC42002001491820ABBEFEE72600020065
:100540007047FEE70178552916D142782149503A83
:100550000A2A11D2DFE802F0050A11161B20252B0A
:10056000313750F8022F41F8022F03E050F8022FE4
:1005700041F80A2F40684860704750F8022F41F850
:10058000122FF7E750F8022F41F81A2FF2E750F830
:10059000022F41F8222FEDE750F8022F41F82A2FC1
:1005A000E8E750F8022F4A6340688863704750F8C4
:1005B000022FCA6340680864704750F8022F4A64EB
:1005C00040688864704750F8022FCA644068086524
:1005D000704700008C000020014800F007B90000BF
:1005E000E4040020014800F001B9000044050020A7
:1005F000014800F0FBB8000084040020014800F02E
:10060000F5B800002404002001681823CAB2103A8B
:10061000B2FBF3F2054B6FF30901032A9B5CC36540
:1006200000D9091D8165084670470000083300089D
:1006300010B5014600208B698A6A4FF0C07453B12F
:10064000B3F5005F15D072B1012A0CD0022A0AD08E
:10065000032A09D104E01AB1012A06D0022A03D1E3
:10066000C96AC90100D5012010BDC96AA142FAD0EA
:1006700010BD002AF7D0012AF2D0022AF3D0032AB3
:10068000F3D010BD30B50468256825F480252560B9
:10069000046863608368402B036803D09960006836
:1006A000C26030BD9A600068C16030BD7047000014
:1006B0002DE9F0414FF400511B4E4F001B4C00251B
:1006C000D0B1012020700246304600F001FB00222C
:1006D0003946304600F0FCFA012001F0ACFC022063
:1006E00001F0A9FC032001F09CFC042001F099FC1E
:1006F0006560A560BDE8F08125700022304600F0FD
:10070000E7FA01223946304600F0E2FA012001F012
:1007100088FC022001F085FC032001F08CFC042001
:1007200001F089FCE4E7000000100240F000002026
:1007300072B6FEE72DE9F0410446876D00F0CEFA6F
:10074000064694F835000025022806D08020606512
:1007500084F834500120BDE8F0812068016821F060
:10076000160101602068416921F080014161206C1F
:1007700008B9A06C20B12068016821F0080101606F
:100780002068016821F0010101600CE000F0A6FA88
:10079000801B052807D920206065032084F83500D8
:1007A00084F83450D7E720680068C007EED194F889
:1007B0005C103F208840B860012084F8350084F840
:1007C00034500020C7E790F83510022903D080216B
:1007D000416501207047052180F8351000680168E7
:1007E00021F0010101600020704700002DE9F8436D
:1007F00004464FF00009CDF8009063484FF41651BD
:10080000A56D0068B0FBF1F72E6894F85C10082025
:1008100000FA01F131420FD021680A6852070BD566
:100820000A6822F004020A6094F85C108840A8600C
:10083000606D40F00100606594F85C104FF00108B5
:1008400008FA01F0304208D021684969090604D548
:10085000A860606D40F00200606594F85C100420B0
:100860008840304208D021680968890704D5A8600B
:10087000606D40F00400606594F85C1010208840C2
:10088000304218D021680968090714D5A86020688B
:100890000168490304D50068000308D5A16C07E08E
:1008A0000168C90503D4016821F008010160216CC9
:1008B00009B12046884794F85C10202088403042D7
:1008C00031D021680968C9062DD5A86094F8350093
:1008D00005282068016806D0490347D50068000351
:1008E0001DD4616C1CE021F0160101602068416993
:1008F00021F080014161206C08B9A06C20B1206812
:10090000016821F00801016094F85C103F208840E4
:10091000A86084F8358084F83490216D1FE0E16B85
:1009200009B120468847606D00282BD0606DC00754
:1009300014D0052084F835002068016821F00101F9
:1009400001600098401C0090B84203D820680068FD
:10095000C007F6D184F8358084F83490E16C002922
:1009600010D001B02046BDE8F04308470168C90532
:10097000D5D4016821F01001016084F8358084F835
:100980003490CCE7BDE8F8831C0000202DE9F0414D
:10099000044600F0A3F906465CB1022084F8350055
:1009A000002584F834502068016821F001010160BD
:1009B0000DE00120BDE8F08100F090F9801B0528D2
:1009C00005D920206065032084F83500F2E720680F
:1009D0000068C007F0D12268116820480140D4E9BE
:1009E00001031843D4E903363343184363691843BA
:1009F000A3691843E3691843236A18430843616AEB
:100A0000042903D1D4E90B1319430843106020686B
:100A10004069666A20F0070130460E43012704282A
:100A20000CD1A06A0643E06A40B12046FFF700FE01
:100A300020B14020606584F83570BAE720684661CF
:100A40002046FFF7E1FD94F85C203F219140816052
:100A5000656584F835700020ACE700003F8010F039
:100A60002DE9F0410446866D90F8340000250128F8
:100A70000DD0012084F8340094F835700020012F47
:100A800007D084F8340002252846BDE8F081022012
:100A9000FBE7022784F8357060652046FFF7F2FD1A
:100AA00094F85C103F208840B0602068016841F0F5
:100AB00016010160206C20B12068016841F0080136
:100AC00001602068016841F001010160DCE700007D
:100AD0002DE9F84FDFF8BCA10022012503264FF0D5
:100AE0000F090AF1040BAAF1040E00BF0B6805FA06
:100AF00002F42340A34270D10F7907F00307012FBE
:100B000001D0022F16D187684FEA420806FA08FC86
:100B100027EA0C07D1F80CC00CFA08FC4CEA070CC9
:100B2000C0F808C04768A7430C79C4F30014944088
:100B30003C4344600C79E443A4070AD0C4684FEAFC
:100B4000420C06FA0CF7BC438F6807FA0CF72743F0
:100B5000C7600C7904F00304022C12D1D40800EB16
:100B6000840CDCF820405707FF0E09FA07F824EA46
:100B70000804D1F8108008FA07F848EA0408CCF80D
:100B8000208004684FEA420C06FA0CF7BC430F7948
:100B900007F0030707FA0CF7274307604C6814F4C3
:100BA000403F70D03C4C276847F48047276024685A
:100BB00022F0030704F480440094384C07EB040C43
:100BC000DCF8084897074FEA177809FA08F7BC439A
:100BD000334FB84202D1002724E054E0314FB842ED
:100BE00001D101271EE0304FB84201D1022719E0A0
:100BF0002E4FB84201D1032714E02D4FB84201D146
:100C000004270FE02B4FB84201D105270AE02A4FF5
:100C1000B84201D1062705E0284FB84201D1072785
:100C200000E0082707FA08F72743CCF80878DAF835
:100C300000405746D1F804C09C435FEACC2C00D555
:100C40001C433C60DBF800405F46D1F804C09C4385
:100C50005FEA8C2C00D51C433C60DEF800407746F0
:100C6000D1F804C09C435FEA8C3C00D51C433C6037
:100C7000084F083F3C68D1F804C09C435FEACC3C75
:100C800000D51C433C60521C102AFFF42FAFBDE876
:100C9000F88F0000083C0140443802400030014019
:100CA000000002400004024000080240000C024024
:100CB000001002400014024000180240001C0240D4
:100CC000426921EA02030A4043EA02418161704716
:100CD0000AB1816170470904FBE7000001488068A0
:100CE000704700001000002002488168027811441B
:100CF00081607047100000200B4810B5016841F476
:100D000000710160016841F480610160016841F493
:100D100080710160032000F09FF80F2000F006F8BA
:100D200000F050F8002010BD003C024030B50546F0
:100D30001F4887B00024016841F01001016000687D
:100D400006A900F01000009001A800F031F9049805
:100D5000A8B100F04DF940001649174AB0FBF1F177
:100D60001648491E026040F2E732C0E90324C0E998
:100D70000114846100F044FB040003D015E000F08E
:100D800037F9E9E70D4800F069FB04000DD1362082
:100D900000F034F8102D07D200222946362000F04A
:100DA0003BF80748056000E0012407B0204630BD4D
:100DB0004038024040420F0000100040A4050020CF
:100DC000140000200C4882B0016841F480410160A9
:100DD000006800F4804000900748001F016841F05F
:100DE000805101600068002200F0805000900F21C7
:100DF000901E02B000F010B844380240002809DB11
:100E000000F01F02012191404009800000F1E02024
:100E1000C0F8001170470000F0B40E4B1B680C4680
:100E2000C3F30223C3F10705042D00D90425191DBE
:100E3000072901D2002300E0DB1E012606FA05F196
:100E4000491E214099409E40761E16403143F0BC19
:100E500001F089BC0CED00E0064900F007020868CB
:100E60004FF6FF03184040EA0220034A104308608F
:100E7000704700000CED00E00000FA052DE9F04796
:100E80000E46050065D0DFF81481D8F80000F7B2EF
:100E900000F00700B04207D288F80070D8F80000D0
:100EA00000F00700B04254D128683D4C810712D5AC
:100EB000400703D5206840F4E05020602878000700
:100EC00003D5206840F4604020602068A96820F0C5
:100ED000F000084320602878C0072DD030496868AA
:100EE0000839012812D0022813D0032811D009682C
:100EF000890700292DDA216821F0030101432160CF
:100F0000FFF7ECFE814641F2883A0EE0096889035A
:100F1000EFE709688901ECE7FFF7E0FEA0EB0901C4
:100F2000514502D90320BDE8F0872068696800F0C8
:100F30000C00B0EB810FEFD1D8F80010404601F063
:100F40000701B14207D90770006800F00700B042FE
:100F500001D00120E7E72878400705D52068E96837
:100F600020F4E050084320602878000706D5206868
:100F7000296920F4604040EAC100206000F058F880
:100F80002168084AC1F30311515CC8400649086052
:100F900006480068FFF7CAFE0020C4E7003C024094
:100FA00008380240103300081C0000201400002004
:100FB0000F2202600C4A136803F0030343601368B6
:100FC00003F0F0038360136803F4E053C360126816
:100FD0004FF4E05303EAD20202610448006800F0D3
:100FE000070008607047000008380240003C0240DB
:100FF0000448054900680968044AC1F38221515C2C
:10100000C84070471C000020083802402033000808
:101010000448054900680968044AC1F34231515C3B
:10102000C84070471C0000200838024020330008E8
:10103000154810B5006810F00C02144813D0411088
:10104000042A0FD0082A0ED10F4C241F22682368CF
:1010500002F03F025B0207D52068C0F38810A0FBB6
:10106000010106E0084610BD2168C1F38811A1FB0B
:1010700000010023FFF758F92168C1F30141491C21
:101080004900B0FBF1F010BD083802400024F40024
:101090002DE9F84F04006ED02078DFF84C93C0079C
:1010A000A9F104054AD009F104000168C1F38101E6
:1010B000012908D00068C0F3810002280AD1D9F8BC
:1010C0000000400206D52868800337D560680028F4
:1010D000E1D033E06068B0F5803F10D0B0F5A02FCC
:1010E000286810D020F480302860286820F4802000
:1010F00028606068A8B1FFF7F1FD06460DE028689A
:1011000040F48030F4E740F480202860F7E700BF27
:10111000FFF7E4FD801B642873D828688003F7D5A7
:101120000CE0FFF7DBFD064605E000BFFFF7D6FD4C
:10113000801B6428F0D828688003F7D42078DFF873
:10114000AC8280074FF0000A3ED5A748001D016819
:1011500011F00C0F08D00068C0F3810002280BD1F9
:10116000D9F80000400207D42868800716D5E06847
:10117000012800D112E033E1E068B8B10120C8F8DD
:101180000000FFF7ABFD064605E000BFFFF7A6FD38
:10119000801B0228C0D828688007F7D528682169F5
:1011A00020F0F80040EAC10028600DE0C8F800A077
:1011B000FFF794FD064604E0FFF790FD801B022830
:1011C0001FD828688007F7D42078000722D5864FDB
:1011D00087486169703771B101210160FFF77EFDB9
:1011E000064604E0FFF77AFD801B022809D838681C
:1011F0008007F7D50EE0C0F800A0FFF76FFD0646A8
:1012000005E082E0FFF76AFD801B02287DD8386880
:101210008007F7D42078400768D5DFF8CCB10027E5
:101220000BF13C0BDBF80000C0000BD4DBF8001026
:1012300041F08051CBF80010DBF80000012700F0EE
:10124000805000906B4E3068C00510D4306840F478
:1012500080703060FFF742FD009005E0FFF73EFD33
:101260000099401A022850D83068C005F6D55E4E65
:10127000A0686C3601280FD00528306810D020F007
:1012800001003060306820F004003060A068B8B120
:10129000FFF724FD00900FE0306840F00100F4E714
:1012A00040F004003060F7E7FFF718FD0099411A9D
:1012B00041F28830814266D830688007F4D50EE06C
:1012C000FFF70CFD009007E0FFF708FD0099411AB9
:1012D00041F28830814256D830688007F4D42FB16B
:1012E000DBF8001021F08051CBF80010A069C8B3E2
:1012F0003D49091D0968C1F3810102294AD002282C
:10130000504607D0C8F8600000E03CE0FFF7E6FC7C
:1013100004463BE04746C8F86000FFF7DFFC06469E
:1013200005E000BFFFF7DAFC801B02282BD82868F5
:101330008001F7D4D4E907010843A16A2E4A49087D
:1013400002EB0141626A41EA8211084394F82C10D1
:1013500040EA0161C9F8001001203866FFF7BEFCC1
:10136000044606E03EE000BFFFF7B8FC001B022881
:1013700009D828688001F7D534E000BFFFF7AEFC3C
:10138000001B022802D90320BDE8F88F28688001DD
:10139000F4D427E00128F7D0D9F80000E26900F47E
:1013A000800191421CD1226A00F03F01914217D185
:1013B00047F6C071626A0140B1EB821F10D1A26A88
:1013C0004FF0FF3300F4403103EB5202B1EB024F18
:1013D00006D194F82C1000F07060B0EB016F01D0D2
:1013E0000120D1E70020CFE7043802400000474247
:1013F000800E4742007000400000FFFF70477047BA
:1014000010B5040003D094F83D0010B107E00120AE
:1014100010BD002084F83C00204600F01EF8022099
:1014200084F83D00211D206800F0EEFE012084F8C4
:10143000460084F83E0084F83F0084F8400084F8B9
:10144000410084F8420084F8430084F8440084F8A2
:10145000450084F83D00002010BD704790F83D1015
:10146000012901D001207047022180F83D10016858
:10147000CA6842F00102CA6000681149884214D06B
:10148000B0F1804F11D00F4988420ED00E498842EA
:101490000BD00E49884208D00D49884205D00D492D
:1014A000884202D00C49884204D1816801F00701CA
:1014B000062903D0016841F0010101600020704756
:1014C000000001400004004000080040000C004003
:1014D000000401400040014000180040704770B512
:1014E0000446006801694FF00005C943890715D417
:1014F000C168C943890711D4E91E01610120207721
:10150000206880698007204602D0FFF7E7FF04E0EB
:1015100000F098F8204600F096F8257720680169D9
:10152000C943490717D4C168C943490713D46FF0A9
:1015300004010161022020772068806910F4407F57
:10154000204602D0FFF7CAFF04E000F07BF82046F7
:1015500000F079F8257720680169C943090716D496
:10156000C168C943090712D46FF008010161042062
:1015700020772068C0698007204602D0FFF7AEFFC1
:1015800004E000F05FF8204600F05DF82577206861
:101590000169C943C90617D4C168C943C90613D430
:1015A0006FF010010161082020772068C06910F4F5
:1015B000407F204602D0FFF791FF04E000F042F8A0
:1015C000204600F040F8257720680169C943C90723
:1015D00008D1C168C943C90704D1891E01612046E9
:1015E00000F032F820680169C943090609D4C168CE
:1015F000C943090605D46FF0800101612046FFF759
:10160000FDFE20680169C943490609D4C168C94380
:10161000490605D46FF040010161204600F01EF834
:1016200020680169C94389060BD4C168C94389068A
:1016300007D46FF0200101612046BDE87040FFF73C
:10164000DEBE70BD7047704700680349884201D113
:10165000FFF74ABB7047000000100040704770471A
:1016600070470000F8B5016804460868CA684B690D
:1016700010F00F0F4FF0000559D003F0010602F4EF
:101680009077374365D0C10705D0D10503D5216CCC
:1016900041F001012164410705D5D90703D0216C30
:1016A00041F002012164810705D5D90703D0216CDF
:1016B00041F004012164010707D502F02001314304
:1016C00003D0216C41F008012164216C00293AD03B
:1016D000800604D5900602D5204600F0CFFE206893
:1016E0004069216CC0F38010090700D460B3204624
:1016F00000F08FFE20684069400621D52068143034
:1017000050E8001F21F0400140E80012002AF5D106
:10171000A06BA8B16C490165A06BFFF754F80028D5
:1017200011D0A06B016D01B0BDE8F0400847830601
:101730000FD593060DD52046BDE8F84000F09EBEBB
:101740002046FFF78DFFF8BD2046FFF789FF25648F
:10175000F8BD266B2023012E79D1C60677D5D60693
:1017600075D50868486800904869400640D5A16B67
:10177000086840680004000CEAD0A28D8242E7D9D4
:10178000E085C869B0F5807F2DD020680C3050E826
:10179000001F21F4807140E80012002AF5D1206872
:1017A000143050E8001F21F0010140E80012002A27
:1017B000F5D12068143050E8001F21F0400140E8C6
:1017C0000012002AF5D184F83E30256320680C30E1
:1017D00050E8001F21F0100140E80012002AF5D166
:1017E000A06BFEF7A7FFA08DE18D401A81B229E022
:1017F000A08DE18D401A81B2E08D0028A8D000298B
:10180000A6D020680C3050E8002F22F4907240E8F7
:101810000026002EF5D12068143050E8002F22F069
:10182000010240E80026002EF5D184F83E30256301
:1018300020680C3050E8002F22F0100240E800230E
:10184000002BF5D12046FFF70AFFF8BDFFE705069C
:101850002BD5150629D594F83D002128F5D1A0688F
:10186000B0F5805F01D12069B0B1206A411C2162CE
:10187000216800784860E08C401E0004000CE08481
:10188000E3D12068C16821F08001C1602068C1688F
:1018900041F04001C160D8E7206A0088C0F3080029
:1018A0004860206A801C2062E5E74006CDD55006DE
:1018B000CBD5CA68204622F04002CA6084F83D3089
:1018C00000F0B6F9C1E70000D122000870B50400AD
:1018D00004D094F83D00002510B106E0012070BD51
:1018E00084F83C50204600F023F8242084F83D0082
:1018F0002068C16821F40051C160204600F01EFE3E
:101900002068016921F4904101612068416921F05A
:101910002A0141612068C16841F40051C160256419
:10192000202084F83D0084F83E00002070BD0000B7
:101930002DE9F04F87B0054614216846FEF79DFD5E
:101940008348DFF808820221D5F800C0032207236C
:10195000DFF800E200248F0606154FF4807A4FF47A
:10196000803BC44542D1DFF8E8C10CF1140CDCF82F
:10197000008048F01008CCF80080DCF800C00CF0C3
:10198000100CCDF814C0D0F800C04CF0010CC0F819
:1019900000C0006800F00100059050028DE81300BF
:1019A00069467046CDE90323FFF792F8DFF8AC8172
:1019B0006949404602C0E0E80274E0E8034640F8A6
:1019C000044C80E8100C4046C8F82440FEF7DEFFC7
:1019D00008B1FEF7ADFEC5F83880002205212520AC
:1019E000C8F83850FFF718FA252049E0DFF8708171
:1019F000DFF85C91C44509F1100946D1D9F800809F
:101A000048F40038C9F80080D9F800C00CF4003C54
:101A1000CDF814C0D0F800C04CF0010CC0F800C0E4
:101A2000006800F0010005900C208DE81300694665
:101A30007046CDE90323FFF74BF8DFF820814949D1
:101A400008F160084046C8F80010C0E90174C0E918
:101A50000346C8F81440C0E9064AC8F82040C8F850
:101A60002440FEF793FF08B1FEF762FEC5F8388008
:101A7000002205212620C8F83850FFF7CDF926208E
:101A8000FFF7BCF907B0BDE8F08FDFF8DC80C44594
:101A9000F8D1D9F8008048F48028C9F80080D9F836
:101AA00000C00CF4802CCDF814C0D0F800C04CF06D
:101AB000020CC0F800C0006800F0020005904FF46E
:101AC00040608DE8130069462848CDE90323FEF7FE
:101AD000FFFFDFF88890234909F1C00960394846C3
:101AE000C9F80010C0E90174C0E90346C9F8144000
:101AF000C9F81840C9E9074BBA46D846C9F8244086
:101B0000FEF744FF08B1FEF713FE1648184FC5F85C
:101B100038903038C9F83850E7E8020A402051C7F9
:101B2000134847F81449BC61C7E907487C62FEF7CF
:101B30002DFF08B1FEF7FCFD6F6300220521272071
:101B4000BD63FFF769F927209AE700000010014004
:101B5000303802400000024040640240240400206B
:101B600000440040886002400048004000040240F9
:101B70004405002090F83E30202B0ED159B152B1CF
:101B800090F83C30012B08D0012380F83C30002332
:101B9000036300F059BD0120704702207047704771
:101BA0007047000070B5044690F83D00202836D1FB
:101BB00091B38AB394F83C00012830D0012084F816
:101BC0003C002162A284E28400252564212084F85F
:101BD0003D00636B1348D863636B13481864636BF1
:101BE0001248D864606B134605652668606B321D29
:101BF000FEF736FF21686FF04000086084F83C5023
:101C00002068143050E8001F41F0800140E80012C5
:101C1000002AF5D1002070BDFFE70120FBE702207C
:101C2000F9E70000C723000809240008E1220008A2
:101C300070477047FEE700002DED028B00F01EF8A4
:101C40000A4C9FED0B8ADFED0B8A0B4DB4F90400B3
:101C500000EE100A0220B8EEC00A20EE080A20EEBC
:101C6000280A85ED000A00F0A7FDEFE7A600002096
:101C70000000003800003443FC00002005480068E4
:101C8000C16841F01001C1600B2203490148FFF710
:101C900071BF000058030020DC4200204FF4FA74AA
:101CA000204600F03BF8012000F086FDF8E7000038
:101CB0000178042903D0052901D0062909D1094A50
:101CC000042907D0052909D0062902D1808840BA05
:101CD00090807047808840BA10807047808840BAF2
:101CE00050807047E20000200A4804240068C16860
:101CF00041F01001C160082207490648FFF73AFF8A
:101D0000641CE4B2062C00D90424642000F054FDC5
:101D1000F6E700009C030020E800002006490A685E
:101D2000521C0A60824206DB002008604FF400511A
:101D30000248FEF7C5BF7047880000200008024037
:101D4000194808B5016841F480010160016801F497
:101D500080010091016841F40011016000680022D7
:101D600000F40010009005210C20FFF755F80C201E
:101D7000FFF744F8002205210E20FFF74DF80E2052
:101D8000FFF73CF8002205211020FFF745F810204E
:101D9000FFF734F8002205213A20FFF73DF8BDE8AF
:101DA00008403A20FFF72AB83038024010B59CB0FE
:101DB0001C2216496846FEF72EFB0021684600F0FB
:101DC00007FD134C11491C2260601C3107A8FEF767
:101DD00022FB002107A800F0FBFC0C49A0601C229C
:101DE00038310EA8FEF717FB00210EA800F0F0FC1A
:101DF0000649E0601C22543115A8FEF70CFB0021B7
:101E000015A800F0E5FC20601CB010BD9832000859
:101E1000000000202DE9F04186B014216846FEF74D
:101E20002CFB2B480025016841F00401016001688A
:101E300001F004010591016841F080010160016831
:101E400001F080010591016841F001010160016824
:101E500001F001010591016841F010010160016884
:101E600001F010010591016841F002010160006874
:101E7000184F00F002004FF4005405900022214654
:101E80003846FEF725FFDFF850804FF4C0460022A9
:101E900031464046FEF71CFF00940124694638464F
:101EA0000194CDE90245FEF713FECDE900646946D1
:101EB0004046CDE90245FEF70BFEE003CDE9000503
:101EC000694602940548FEF703FE06B0BDE8F081BE
:101ED000303802400008024000100240000002407A
:101EE0000C4810B50A4901604FF4E131416000210E
:101EF00081600C22C160C0E904128161C161FFF7F9
:101F0000E5FC002803D0BDE81040FEF711BC10BD71
:101F100000100140580300200C4810B50A49016028
:101F20004FF416514160002181600C22C160C0E96C
:101F300004128161C161FFF7C9FC002803D0BDE82C
:101F40001040FEF7F5BB10BD004400409C0300208C
:101F50000C4810B50A4901604FF4E131416000219D
:101F600081600C22C160C0E904128161C161FFF788
:101F7000ADFC002803D0BDE81040FEF7D9BB10BD72
:101F800000480040E0030020FEE70000002101209F
:101F900000F01BF80021022000F017F800210320B8
:101FA00000F013F80021042000F00FF80120FEF7E4
:101FB0007FFB044CD4E9010100F0A0F81E2000F0E2
:101FC000FBFBF7E7F0000020FEE713B584B0044602
:101FD00000200599ADF80400009100290CDB0120D8
:101FE000ADF80400022301AA5221204600F046F871
:101FF000A0B9042305AA0DE0ADF80400022301AA4C
:102000005221204600F03AF840B905986A4640420D
:10201000042300905521204600F030F806B000203F
:1020200010BD08B50621ADF8001002236A46512103
:1020300000F024F808BD38B504460620ADF80000CD
:1020400002236A465121204600F018F8002813D1D7
:102050000720ADF8000002236A465121204600F017
:102060000DF8002808D10F20ADF8000002236A46C1
:102070005121204600F002F838BD000070B51D4C1B
:10208000002525801C4C207010206070080AA0706C
:10209000E17002202571022B02D96071042001E059
:1020A00001216171A071042B13D05078E071107878
:1020B00020720921104800F0DFFD6072000AA07252
:1020C0000B210D4800F040FB0A2000F075FB0020BA
:1020D00070BDD078E071907820725078607210787E
:1020E000A0720B21044800F0C7FDE072000A2073C3
:1020F0000D21E6E702010020E742002010B50C4662
:1021000009490A78414242B10120FFF75EFF2146AA
:102110000220BDE81040FFF758BF0420FFF755FF2D
:1021200021460320F5E70000F000002010B5502004
:1021300080F31188BFF34F8FBFF36F8F00F0DEFF86
:1021400018B104494FF080500860002080F31188D6
:1021500010BD000004ED00E030B593B030216846BA
:10216000FEF78BF914210CA8FEF787F91D4800250E
:10217000016841F080510160006800F080501190CA
:102180001948016841F4804101600068022400F4AC
:102190008040119001200090000401908001CDE961
:1021A000064008AA0420A82182E813000B90684684
:1021B000FEF76EFF08B172B6FEE70CA90F2081E8AA
:1021C00031004FF4A0500F904FF480501090052133
:1021D0000CA8FEF753FE002801D072B6FEE713B03C
:1021E00030BD0000403802400070004002480168E5
:1021F00041F470010160704788ED00E00148FFF78D
:102200006EB90000A4050020F0B50268254C264DEB
:10221000264E274F274B4FF0804CA04209D06045F7
:1022200007D0A84205D0B04203D0B84201D09842AE
:1022300004D122F0700E4A6842EA0E02A0421BD07E
:10224000604519D0A84217D0B04215D0B84213D07B
:10225000984211D0184DA8420ED0184DA8420BD06C
:10226000174DA84208D0174DA84205D0164DA842D8
:1022700002D0164DA84203D122F44075CA682A4301
:102280004D6922F080022A4302608A68C2620A68AD
:102290008262A04201D0984201D109690163012103
:1022A0004161F0BD00000140000400400008004012
:1022B000000C004000040140004001400044014087
:1022C0000048014000180040001C00400020004071
:1022D00010B5806B0021C185C184FFF7C1F910BD25
:1022E00070B5846B2068406994F83D10C0F3C0104D
:1022F0000025212904D118B1E584204600F0B0F86A
:102300002068406994F83E10C0F38010222904D15F
:1023100018B1E585204600F07CF8206C40F01000F4
:1023200020642046FFF79CF970BD10B50146806B14
:1023300009680968C9052FD40021C18501680C31DD
:1023400051E8002F22F4807241E80023002BF5D1E0
:102350000168143151E8002F22F0010241E8002306
:10236000002BF5D10168143151E8002F22F0400212
:1023700041E80023002BF5D1202180F83E10016BAD
:10238000012909D101680C3151E8002F22F0100217
:1023900041E80023002BF5D1016B012902D0FFF7A2
:1023A000FEFB10BD818DFFF75AF910BD10B5806B93
:1023B000016B012902D0FFF7F3FB10BD818D4908A5
:1023C000FFF74DF910BD10B50146806B096809682B
:1023D000C90516D40021C1840168143151E8002FC9
:1023E00022F0800241E80023002BF5D101680C3176
:1023F00051E8002F42F0400241E80023002BF5D1C4
:1024000010BDFFF715FC10BD10B5806BFFF711FC78
:1024100010BD01680C3151E8002F22F4907241E8A0
:102420000023002BF5D10168143151E8002F22F070
:10243000010241E80023002BF5D1016B012909D1EC
:1024400001680C3151E8002F22F0100241E800230E
:10245000002BF5D1202180F83E1000210163704748
:1024600001680C3151E8002F22F0C00241E800233E
:10247000002BF5D1202180F83D10704708B590F869
:102480003E10222901D0022008BD82684FF48053FB
:102490009A4201D1016921B1816A9A421BD04AB1A5
:1024A0000AE00268816A5268C2F308020A80816AFF
:1024B000891C08E0026972B10268526802F07F026A
:1024C0000A70816A491C8162C18D491E0904090C88
:1024D000C18503D019E002685268F1E70168CA6853
:1024E00022F02002CA600168CA6822F48072CA60C1
:1024F00001684A6922F001024A61202180F83E10F9
:10250000016B012903D0FFF74AFB002008BD002121
:10251000016301680C3151E8002F22F0100241E8FC
:102520000023002BF5D101680A68D20602D50A689B
:1025300049680091818DFFF792F8E6E770B504468F
:1025400000680169E26821F4405111430161216989
:10255000A068E26908436169114308432168CA68B9
:1025600049F20C639A430243CA6020684169A26938
:1025700021F440711143416131492068884202D001
:102580003049884202D1FEF743FD01E0FEF730FDFD
:10259000E2690023192164253226B2F5004F6268F2
:1025A00028D0A0FB0101930F9200FDF7BDFE01466C
:1025B000B0FBF5F06FF01802504301EB800006EB22
:1025C0000010B0FBF5F000F0F002B1FBF5F002EB0B
:1025D0000012B1FBF5F06FF01803584301EB8000D7
:1025E00006EB0010B0FBF5F000F00F00216810447E
:1025F000886070BDA0FB010192185B41FDF794FE5D
:102600000146B0FBF5F00201B1FBF5F06FF01803E5
:10261000584301EB800006EBC000B0FBF5F000F082
:10262000F80002EB4002B1FBF5F0584301EB8000EB
:1026300006EBC000B0FBF5F000F00700D6E70000A5
:10264000001001400014014038B5816282850025E8
:10265000134604460564222084F83E00A26B1C4801
:10266000D063A26B1B481064A26B1B48D064A06BA4
:102670000A4605652168A06B091DFEF7F1F920687F
:1026800001684068009084F83C50206948B1206897
:102690000C3050E8001F41F4807140E80012002A1D
:1026A000F5D12068143050E8001F41F0010140E8E6
:1026B0000012002AF5D12068143050E8001F41F0C4
:1026C000400140E80012002AF5D1002038BD00008A
:1026D0002B230008AD230008E122000808B50948B3
:1026E000FEF7C0FF074800680168C943C90607D460
:1026F000016840680090BDE808400348FDF722BF2C
:1027000008BD000058030020DC42002008B509483D
:10271000FEF7A8FF074800680168C943C90607D447
:10272000016840680090BDE808400348FFF7C0BA60
:1027300008BD00009C030020E80000200148FEF7CF
:1027400091BF0000E00300200A4610B5014603488F
:10275000FFF728FA02490020087010BDE0030020AE
:1027600000010020FEE70907090E002804DB00F144
:10277000E02080F80014704700F00F0000F1E02026
:1027800080F8141D7047FEF7B7FAFFF7E5FCFFF776
:1027900041FBFFF7D5FAFFF7A3FBFFF7BDFBFFF700
:1027A000D7FBFFF703FB00F00EF8FEE70146002021
:1027B000842900D0C81C704710B500B9012000F072
:1027C00039FB002010BD10B500F05AFB002010BDF1
:1027D0007FB50D4604464169B0F9080081B1A16991
:1027E00071B1FFF7E3FFD4E905128DE80700D4E9E2
:1027F00000102B46226900F056FC039004B070BD17
:10280000FFF7D4FF03A9CDE90001208A2B4682B24D
:10281000D4E9001000F01AFC012801D00020EDE7F7
:102820000398EBE72DE9F041184C0F460546E668A2
:102830002068001D00F036FA38B9206890F82C1096
:1028400001208840216981432161681C07D137B18B
:102850002168BDE8F0410E48091D00F067BA206804
:102860003544B5424560216805D2A06BBDE8F04112
:10287000091D00F043BA606B091D00F03FFAA06A21
:10288000854200D2A562BDE8F08100002000002052
:10289000C80600202DE9F041054600F053FA2E4C01
:1028A000A068401CA06020682C4F10B1606940B344
:1028B0002DE02560A068012829D1002606EB8600BE
:1028C00007EB800000F00CFA761C072EF6D32348A5
:1028D0008C3000F005FA2148A03000F001FA1F48C2
:1028E000B43000F0FDF91D48C83000F0F9F91B487C
:1028F000DC3000F0F5F919488C3060631430A063C7
:1029000005E02068E96AC06A884200D82560606AEC
:10291000401C6062E96A01202269884010432061FE
:1029200001EB810007EB8000291D00F0FFF900F0AA
:1029300029FA606900280CD02068E96AC06A8842D8
:1029400007D207494FF080500860BFF34F8FBFF3A5
:102950006F8FBDE8F081000020000020EC05002012
:1029600004ED00E010B5044690F8510058B101287C
:102970000CD002280FD0502080F31188BFF34F8F66
:10298000BFF36F8FFEE7206B00F010FA2046BDE822
:10299000104000F00BBA10BD10484FF470514207C0
:1029A00006D0C01D0D4920F00700411AC1F5705135
:1029B0000B4A00230144C2E900030839183A21F008
:1029C000070111604B600B600B1AC0E900139360A4
:1029D0004FF000405360506170470000DC0600205B
:1029E00074000020144E154CA6F1C8074FF0805813
:1029F000DFF84C9012E000BF00F0A4F9F068C56861
:102A0000281D00F04FF9A068401EA0606068401EBD
:102A1000606000F0B7F92846FFF7A4FF606800285F
:102A2000EAD138680128F9D9C9F80080BFF34F8F7F
:102A3000BFF36F8FF2E70000B406002020000020F3
:102A400004ED00E02DE9F0479A46DDE9098481466E
:102A50006FF00303206B03EB82021044089E20F00A
:102A60000707780707D0502080F31188BFF34F8FF6
:102A7000BFF36F8FFEE7002561B1002023180A5CC9
:102A800083F834200A5C12B1401C1028F6D384F875
:102A9000435001E084F83450072E00D30626E66246
:102AA000C4E91165201D00F026F904F1180000F0BA
:102AB00022F92461C6F107006462A061E56484F82C
:102AC000505052464946384600F0C0F82060B8F1F0
:102AD000000F01D0C8F80040BDE8F08730B51149BB
:102AE00000E011460A688242FBD34B685C188442BE
:102AF00003D1406818444860084643681C18944253
:102B000009D1084C183C2468A24209D052681A44E2
:102B100042600A6812680260814200D0086030BDDD
:102B20000460F9E7740000200648416B096829B188
:102B3000416BC968C9684968816270474FF0FF31CD
:102B4000FAE700002000002008484068401C4FF0D1
:102B5000500080F3118804D0BFF34F8FBFF36F8F05
:102B6000FEE7BFF34F8FBFF36F8FFEE77C000020BF
:102B70002DE9F0410546002700F0B8F9324E3068E3
:102B800008B9FFF709FF706905424ED1C5B3083592
:102B900068070ED005F00700C0F10800054468077B
:102BA00007D0502080F31188BFF34F8FBFF36F8F92
:102BB000FEE72DB37068854237D8234818300146A8
:102BC0000C6801E020460C466168A94202D22168E7
:102BD0000029F7D131688C4227D00768216801604D
:102BE00060680837411B10290FD96019420708D0C7
:102BF000502080F31188BFF34F8FBFF36F8FFEE734
:102C000013E041606560FFF769FF61687068401A12
:102C10007060B268904200D2B060706901430020D9
:102C2000C4E90001F068401CF06000F0CDFA7807BC
:102C300007D0502080F31188BFF34F8FBFF36F8F01
:102C4000FEE73846BDE8F0815C00002010B5031FA8
:102C50004FF080741C601B1F21F001011960191FC7
:102C6000044B0B6014390A60091F6FF002024438EC
:102C70000A6010BD492B000870B5094DFF231A46A4
:102C800005F5807606E000BF10F8014B54402A5D40
:102C90005A40335D491E89B2F6D242EA032070BD24
:102CA00028330008D0E9013201699A60D0E9012394
:102CB0005A604A68824201D182684A6000220261F9
:102CC0000868401E0860086870470000034B0360F6
:102CD00003F1540008608020106070470401002058
:102CE00000F108014FF0FF32C0E90112C16001613B
:102CF00000210160704700210161704730B50B6809
:102D00005A1C02D000F1080202E0026904E02246E7
:102D1000546825689D42FAD953684B6099608A606F
:102D2000516008610168491C016030BD42684A6019
:102D300093688B6093685960916008610168491CD1
:102D400001607047502080F31188BFF34F8FBFF3AD
:102D50006F8F0A494868401C486001280CD1084818
:102D6000006810F0FF0F07D0502080F31188BFF3E8
:102D70004F8FBFF36F8FFEE7704700007C0000208D
:102D800004ED00E00849486828B1401E486001D1C0
:102D900080F311887047502080F31188BFF34F8F64
:102DA000BFF36F8FFEE700007C00002070B50028A5
:102DB0002AD0164DA0F1080460686969084207D15D
:102DC000502080F31188BFF34F8FBFF36F8FFEE762
:102DD00022683AB1502080F31188BFF34F8FBFF3C0
:102DE0006F8FFEE78843606000F080F86068696874
:102DF000084468602046FFF771FE2869401C28617E
:102E0000BDE8704000F0E0B970BD00005C0000203B
:102E10004FF0E02000210161816105494FF47A7291
:102E20000968B1FBF2F1491E416107210161704758
:102E30001C00002010B5020014D00F48006B38B100
:102E4000502080F31188BFF34F8FBFF36F8FFEE7E1
:102E500000F04CF800211046FFF7E4FC00F0B4F954
:102E6000002807D105494FF080500860BFF34F8F0D
:102E7000BFF36F8F10BD00002000002004ED00E0C4
:102E800010B586B00024039405AA04A903A80494ED
:102E9000FFF71CFFDDE903010094CDE901100023D9
:102EA0000EA11048059A00F0FEF80F490028C862EC
:102EB00011D0502080F31188BFF34F8FBFF36F8F75
:102EC0004FF0FF30886201204861CC6006B0BDE859
:102ED000104000F041B806B010BD000049444C4518
:102EE00000000000E5290008200000200248016BD6
:102EF000491C016370470000200000201448016B4A
:102F000011B10121C16170470021C1610169B1FAAC
:102F100081F1C1F11F0101EB81020E4951F822300C
:102F20006BB101EB820101F108034A6852684A6003
:102F30009A4201D152684A60D168016070475020BE
:102F400080F31188BFF34F8FBFF36F8FFEE7000050
:102F500020000020EC0500201CB537480168374AE6
:102F6000914207D1502080F31188BFF34F8FBFF3F8
:102F70006F8FFEE700683149491E884207D1502013
:102F800080F31188BFF34F8FBFF36F8FFEE72C499B
:102F900008780190FF20087008788DF800009DF8EF
:102FA00000009DF8002000F0F000904207D0502073
:102FB00080F31188BFF34F8FBFF36F8FFEE79DF84B
:102FC0000000204C00F0500020700720A06005E0B9
:102FD0009DF8002052008DF80020401E9DF8002032
:102FE0001206F5D4A060032807D0502080F3118882
:102FF000BFF34F8FBFF36F8FFEE74FF44070A060B9
:10300000019808700C482030016841F4700101609B
:10301000016841F070410160FFF7FAFE0020606036
:10302000FDF726F90848016841F040410160FDF7CD
:103030000BF900201CBD000000ED00E071C20F4143
:1030400000E400E07C00002034EF00E02DE9FF5FA9
:103050008346DDE90E87994616468A469000FFF7BB
:1030600087FD05001CD05420FFF782FD040014D01A
:103070000020256384F85100CDE90240CDE90087A6
:103080004B46324651465846FFF7DCFC2046FFF7D8
:1030900001FC012004B0BDE8F09F2846FFF786FE42
:1030A0004FF0FF30F6E7F0B585B0DDE90B640A9D1F
:1030B000A6B1DCB1542700972663022684F851603C
:1030C000002604AFCDE90246CDE90057FFF7BAFC70
:1030D0002046FFF7DFFB049805B0F0BD502080F3D9
:1030E0001188BFF34F8FBFF36F8FFEE7502080F33F
:1030F0001188BFF34F8FBFF36F8FFEE72DE9F041CB
:103100002F4C0026206B28B1A069401CA0613046DE
:10311000BDE8F081E5686D1CE56013D1606B006867
:1031200038B1502080F31188BFF34F8FBFF36F8FFA
:10313000FEE7606BA16B6163A063206A401C2062A4
:10314000FFF7F2FCA06ADFF87C80854209D3606B50
:103150000068A0B1606BC068C7687868854211D20A
:10316000A0622068C06A00EB800158F821000128A5
:1031700000D90126E0690028C9D00126C7E74FF031
:10318000FF30EDE7381DFFF78DFDB86A18B107F184
:103190001800FFF787FDF96A012022698840104373
:1031A000206101EB810108EB8100391DFFF7BEFDB5
:1031B000F86A2168C96A8842C9D30126C7E70000B6
:1031C00020000020EC0500202DE9F0472C4D0024C4
:1031D0002746286B38B1FFF7B5FD286B401E2863E2
:1031E000286B40B146E0502080F31188BFF34F8F29
:1031F000BFF36F8FFEE7A968224E0120D1B3A6F17D
:10320000B40980463068E8B1F068C46804F1180079
:10321000FFF748FD201DFFF745FDE06A2A6908FA1F
:1032200000F11143296100EB800109EB8100211DB0
:10323000FFF77CFDE06A2968C96A8842E2D3C5F8D5
:103240001C80DFE70CB1FFF76FFCAC6944B1464668
:10325000FFF754FF00B1EE61641EF9D10020A861B0
:10326000E86938B10849012738070860BFF34F8F74
:10327000BFF36F8FFFF786FD3846BDE8F08700008B
:1032800020000020A006002004ED00E04FF0407078
:10329000E1EE100A70470000283500089D1C000868
:1032A000000000000000000080000000000000009E
:1032B0000000000030350008E91C0008FDFF000098
:1032C000000000008000000000000000000000007E
:1032D0002C350008391C0008FDFF0000000000002C
:1032E00080000000000000000000000038350008E9
:1032F0008D1F0008FDFF000000000000800000009E
:103300000000000000000000000610160006101665
:103310000000000000000000010203040607080985
:10332000000000000102030400C1814001C080418F
:1033300001C0804100C1814001C0804100C1814085
:1033400000C1814001C0804101C0804100C1814075
:1033500000C1814001C0804100C1814001C0804165
:1033600001C0804100C1814001C0804100C1814055
:1033700000C1814001C0804100C1814001C0804145
:1033800001C0804100C1814000C1814001C0804135
:1033900001C0804100C1814001C0804100C1814025
:1033A00000C1814001C0804101C0804100C1814015
:1033B00000C1814001C0804100C1814001C0804105
:1033C00001C0804100C1814000C1814001C08041F5
:1033D00001C0804100C1814001C0804100C18140E5
:1033E00000C1814001C0804100C1814001C08041D5
:1033F00001C0804100C1814001C0804100C18140C5
:1034000000C1814001C0804101C0804100C18140B4
:1034100000C1814001C0804100C1814001C08041A4
:1034200001C0804100C1814000C0C101C30302C28C
:10343000C60607C705C5C404CC0C0DCD0FCFCE0EF4
:103440000ACACB0BC90908C8D81819D91BDBDA1A64
:103450001EDEDF1FDD1D1CDC14D4D515D71716D6D4
:10346000D21213D311D1D010F03031F133F3F23244
:1034700036F6F737F53534F43CFCFD3DFF3F3EFEB4
:10348000FA3A3BFB39F9F83828E8E929EB2B2AEA24
:10349000EE2E2FEF2DEDEC2CE42425E527E7E62694
:1034A00022E2E323E12120E0A06061A163A3A26204
:1034B00066A6A767A56564A46CACAD6DAF6F6EAE74
:1034C000AA6A6BAB69A9A86878B8B979BB7B7ABAE4
:1034D000BE7E7FBF7DBDBC7CB47475B577B7B67654
:1034E00072B2B373B17170B05090915193535292C4
:1034F00096565797559594549C5C5D9D5F9F9E5E34
:103500005A9A9B5B99595898884849894B8B8A4AA3
:103510004E8E8F4F8D4D4C8C448485458747468613
:1035200082424383418180404C454400494D5500CF
:103530004C617365720000004D6F746F7200000083
:10354000603500080000002004010000C4010008EC
:1035500064360008040100205C480000E001000817
:10356000000000000000000000000000000000005B
:103570000100000010000000000000000024F40022
:10358000000000000000000000000000000000003B
:10359000000000000000000000000000000000002B
:1035A000000000000000000000000000000000001B
:1035B000000000000000000000000000000000000B
:1035C00000000000000000000000000000000000FB
:1035D00000000000000000000000000000000000EB
:1035E000AAAAAAAA00000000000000000000000033
:1035F00000000000000000000000000000000000CB
:1036000000000000000000000000000000000000BA
:1036100000000000000000000000000000000000AA
:10362000000000000000000000000000000000009A
:10363000000000000000000000000000000000008A
:10364000000000000000000000000000000000007A
:10365000000000000000000000000000000000006A
:043660000000000066
:040000050800018965
:00000001FF
