:020000040800F2
:10000000A8070020290200080F170008F5140008AF
:100010000D1700081F0400087D1B000800000000E9
:10002000000000000000000000000000131700089E
:100030003D04000800000000111700081517000813
:10004000430200084302000843020008430200087C
:10005000430200084302000843020008430200086C
:10006000430200084302000843020008430200085C
:10007000430200084302000843020008430200084C
:10008000430200084302000843020008430200083C
:10009000430200084302000843020008430200082C
:1000A000430200084302000843020008430200081C
:1000B000430200084302000843020008430200080C
:1000C00043020008430200084302000843020008FC
:1000D0004302000843020008711B000843020008A5
:1000E00043020008430200084302000843020008DC
:1000F00043020008BD17000843020008430200083D
:1001000043020008430200084302000843020008BB
:1001100043020008430200084302000843020008AB
:10012000430200084302000843020008430200089B
:10013000430200084302000843020008430200088B
:10014000430200084302000843020008430200087B
:10015000430200084302000843020008430200086B
:10016000430200084302000843020008430200085B
:100170004302000843020008430200080000000098
:10018000430200084302000800F002F800F03CF8C7
:100190000AA090E8000C82448344AAF10107DA45E2
:1001A00001D100F031F8AFF2090EBAE80F0013F0F8
:1001B000010F18BFFB1A43F001031847FC1C000095
:1001C0001C1D0000103A24BF78C878C1FAD8520725
:1001D00024BF30C830C144BF04680C6070470000C1
:1001E0000023002400250026103A28BF78C1FBD840
:1001F000520728BF30C148BF0B6070471FB501F0E0
:1002000049FD1FBD10B510BD00F0CFF81146FFF736
:10021000F5FF01F0C7FC00F0EDF803B4FFF7F2FFC3
:1002200003BC00F0F5F80000094880470948004782
:10023000FEE7FEE7FEE7FEE7FEE7FEE7FEE7FEE796
:10024000FEE7FEE704480549054A064B70470000F3
:10025000AD17000889010008A8010020A8070020A8
:10026000A8030020A803002053EA020C00F06980D4
:100270002DE9F04B4FF00006002B1FBFB3FA83F5BA
:1002800003FA05F424FA05F65E4012BF1643B2FAEB
:1002900082F502FA05F4C5F120051EBF22FA05FC1D
:1002A00044EA0C04203556EA044C4FEA144418BFC3
:1002B000641C4FF000084FF00009904271EB030CF2
:1002C00039D3002919BFB1FA81F701FA07F6B0FA5C
:1002D00080F700FA07F6C7F120071EBF20FA07FCD7
:1002E00046EA0C062037B6FBF4FCA7EB0507103FE7
:1002F00007F01F0BCBF120060CFA0BFB2CFA06F6CD
:1003000044BFB3460026202FA4BF5E464FF0000B2B
:100310005BEA060C08BF4FF0010B19EB0B09ABFBB6
:10032000027C48EB0608C01B06FB02CC0BFB03CC8F
:1003300071EB0C01C1E70B46024641464846BDE859
:10034000F08B13B54FF000004FF00001AFF30080C9
:10035000BDE81C4070474FF0000200B513469446BC
:100360009646203922BFA0E80C50A0E80C50B1F10D
:100370002001BFF4F7AF090728BFA0E80C5048BF21
:100380000CC05DF804EB890028BF40F8042B08BFBF
:10039000704748BF20F8022B11F0804F18BF00F8BB
:1003A000012B7047704770477047754600F02CF876
:1003B000AE4605006946534620F00700854618B052
:1003C00020B5FFF73FFFBDE820404FF000064FF09B
:1003D00000074FF000084FF0000B21F00701AC467A
:1003E000ACE8C009ACE8C009ACE8C009ACE8C00999
:1003F0008D46704710B50446AFF300802046BDE837
:100400001040FFF70ABF0000004870474801002075
:1004100001491820ABBEFEE7260002007047FEE748
:10042000421810B5891E32F8024C89B201F01CFC4A
:10043000844201D0002010BD012010BD704772B66B
:10044000FEE72DE9F0410446876D00F065F90646A8
:1004500094F835000025022806D08020606584F8D5
:1004600034500120BDE8F0812068016821F01601B8
:1004700001602068416921F080014161206C08B968
:10048000A06C20B12068016821F00801016020689B
:10049000016821F0010101600CE000F03DF9801BD2
:1004A000052807D920206065032084F8350084F8EA
:1004B0003450D7E720680068C007EED194F85C108C
:1004C0003F208840B860012084F8350084F834501B
:1004D0000020C7E790F83510022903D0802141653C
:1004E00001207047052180F835100068016821F06F
:1004F000010101600020704770B5044600F00CF95E
:100500000546601C02D004480078044400F004F959
:10051000401BA042FAD370BD100000202DE9F84F17
:10052000DFF8BCA10022012503264FF00F090AF1D4
:10053000040BAAF1040E00BF0B6805FA02F4234075
:10054000A34270D10F7907F00307012F01D0022FCA
:1005500016D187684FEA420806FA08FC27EA0C071A
:10056000D1F80CC00CFA08FC4CEA070CC0F808C023
:100570004768A7430C79C4F3001494403C4344609B
:100580000C79E443A4070AD0C4684FEA420C06FA87
:100590000CF7BC438F6807FA0CF72743C7600C7948
:1005A00004F00304022C12D1D40800EB840CDCF814
:1005B00020405707FF0E09FA07F824EA0804D1F88B
:1005C000108008FA07F848EA0408CCF8208004688C
:1005D0004FEA420C06FA0CF7BC430F7907F0030709
:1005E00007FA0CF7274307604C6814F4403F70D0BB
:1005F0003C4C276847F480472760246822F00307B3
:1006000004F480440094384C07EB040CDCF80848F0
:1006100097074FEA177809FA08F7BC43334FB842F7
:1006200002D1002724E054E0314FB84201D1012724
:100630001EE0304FB84201D1022719E02E4FB842D8
:1006400001D1032714E02D4FB84201D104270FE058
:100650002B4FB84201D105270AE02A4FB84201D1F9
:10066000062705E0284FB84201D1072700E00827F8
:1006700007FA08F72743CCF80878DAF8004057461D
:10068000D1F804C09C435FEACC2C00D51C433C60ED
:10069000DBF800405F46D1F804C09C435FEA8C2C35
:1006A00000D51C433C60DEF800407746D1F804C01A
:1006B0009C435FEA8C3C00D51C433C60084F083FDC
:1006C0003C68D1F804C09C435FEACC3C00D51C4395
:1006D0003C60521C102AFFF42FAFBDE8F88F0000D9
:1006E000083C014044380240003001400000024014
:1006F0000004024000080240000C024000100240CA
:100700000014024000180240001C02400AB181613E
:1007100070470904FBE7000001488068704700004B
:1007200010000020024881680278114481607047FF
:10073000100000200B4810B5016841F40071016001
:10074000016841F480610160016841F480710160D9
:10075000032000F06FF80F2000F006F800F024F8F6
:10076000002010BD003C024070B50D4D04464FF412
:100770007A712878B1FBF0F00A490968B1FBF0F012
:1007800000F00AFB48B9102C07D200222146501E67
:1007900000F030F800206C6070BD012070BD0000DA
:1007A000100000201C0000200A4808B5016841F430
:1007B00080410160006800F4804000900548001FFF
:1007C000016841F080510160006800F080500090A5
:1007D00008BD000044380240002809DB00F01F0279
:1007E000012191404009800000F1E020C0F8001193
:1007F00070470000F0B40E4B1B680C46C3F3022395
:10080000C3F10705042D00D90425191D072901D2BC
:10081000002300E0DB1E012606FA05F1491E2140F7
:1008200099409E40761E16403143F0BC01F0A7B9B6
:100830000CED00E0064900F0070208684FF6FF03E0
:10084000184040EA0220034A104308607047000045
:100850000CED00E00000FA052DE9F0470E4605001A
:1008600065D0DFF81481D8F80000F7B200F0070077
:10087000B04207D288F80070D8F8000000F00700F6
:10088000B04254D128683D4C810712D5400703D5AA
:10089000206840F4E05020602878000703D52068E5
:1008A00040F4604020602068A96820F0F000084310
:1008B00020602878C0072DD03049686808390128A1
:1008C00012D0022813D0032811D009688907002903
:1008D0002DDA216821F0030101432160FFF71CFF9D
:1008E000814641F2883A0EE009688903EFE709681A
:1008F0008901ECE7FFF710FFA0EB0901514502D990
:100900000320BDE8F0872068696800F00C00B0EBB8
:10091000810FEFD1D8F80010404601F00701B14235
:1009200007D90770006800F00700B04201D001202D
:10093000E7E72878400705D52068E96820F4E0500B
:10094000084320602878000706D52068296920F42C
:10095000604040EAC100206000F038F82168084A91
:10096000C1F30311515CC84006490860064800689D
:10097000FFF7FAFE0020C4E7003C024008380240BE
:100980009E1C00081C00002014000020044805499B
:1009900000680968044AC1F38221515CC84070476D
:1009A0001C00002008380240AE1C0008044805491D
:1009B00000680968044AC1F34231515CC84070477D
:1009C0001C00002008380240AE1C0008154810B575
:1009D000006810F00C02144813D04110042A0FD004
:1009E000082A0ED10F4C241F2268236802F03F0210
:1009F0005B0207D52068C0F38810A0FB010106E068
:100A0000084610BD2168C1F38811A1FB0001002335
:100A1000FFF72AFC2168C1F30141491C4900B0FBE2
:100A2000F1F010BD083802400024F4002DE9F84F21
:100A300004006ED02078DFF84C93C007A9F10405BC
:100A40004AD009F104000168C1F38101012908D0ED
:100A50000068C0F3810002280AD1D9F800004002E2
:100A600006D52868800337D560680028E1D033E0D8
:100A70006068B0F5803F10D0B0F5A02F286810D086
:100A800020F480302860286820F480202860606886
:100A9000A8B1FFF741FE06460DE0286840F480301B
:100AA000F4E740F480202860F7E700BFFFF734FE4A
:100AB000801B642873D828688003F7D50CE0FFF703
:100AC0002BFE064605E000BFFFF726FE801B6428CC
:100AD000F0D828688003F7D42078DFF8AC8280074C
:100AE0004FF0000A3ED5A748001D016811F00C0F19
:100AF00008D00068C0F3810002280BD1D9F80000AB
:100B0000400207D42868800716D5E068012800D184
:100B100012E033E1E068B8B10120C8F80000FFF747
:100B2000FBFD064605E000BFFFF7F6FD801B02282F
:100B3000C0D828688007F7D52868216920F0F80018
:100B400040EAC10028600DE0C8F800A0FFF7E4FD0E
:100B5000064604E0FFF7E0FD801B02281FD8286846
:100B60008007F7D42078000722D5864F874861692F
:100B7000703771B101210160FFF7CEFD064604E038
:100B8000FFF7CAFD801B022809D838688007F7D50F
:100B90000EE0C0F800A0FFF7BFFD064605E082E0CA
:100BA000FFF7BAFD801B02287DD838688007F7D48C
:100BB0002078400768D5DFF8CCB100270BF13C0B5B
:100BC000DBF80000C0000BD4DBF8001041F08051CE
:100BD000CBF80010DBF80000012700F080500090F7
:100BE0006B4E3068C00510D4306840F480703060BF
:100BF000FFF792FD009005E0FFF78EFD0099401A87
:100C0000022850D83068C005F6D55E4EA0686C3614
:100C100001280FD00528306810D020F00100306086
:100C2000306820F004003060A068B8B1FFF774FDB0
:100C300000900FE0306840F00100F4E740F004005D
:100C40003060F7E7FFF768FD0099411A41F28830FC
:100C5000814266D830688007F4D50EE0FFF75CFD6E
:100C6000009007E0FFF758FD0099411A41F28830E3
:100C7000814256D830688007F4D42FB1DBF80010D9
:100C800021F08051CBF80010A069C8B33D49091D7F
:100C90000968C1F3810102294AD00228504607D0D1
:100CA000C8F8600000E03CE0FFF736FD04463BE09A
:100CB0004746C8F86000FFF72FFD064605E000BF75
:100CC000FFF72AFD801B02282BD828688001F7D463
:100CD000D4E907010843A16A2E4A490802EB014101
:100CE000626A41EA8211084394F82C1040EA0161DB
:100CF000C9F8001001203866FFF70EFD044606E033
:100D00003EE000BFFFF708FD001B022809D8286855
:100D10008001F7D534E000BFFFF7FEFC001B02287E
:100D200002D90320BDE8F88F28688001F4D427E0B9
:100D30000128F7D0D9F80000E26900F4800191425F
:100D40001CD1226A00F03F01914217D147F6C071D1
:100D5000626A0140B1EB821F10D1A26A4FF0FF33EB
:100D600000F4403103EB5202B1EB024F06D194F88C
:100D70002C1000F07060B0EB016F01D00120D1E7C2
:100D80000020CFE70438024000004742800E47426F
:100D9000007000400000FFFF10B5401EB0F1807FE2
:100DA00001D3012010BD4FF0E02460610F216017D6
:100DB00000F0E5FE0020A06107202061002010BDAA
:100DC0007047704710B5040003D094F83D0010B18F
:100DD00007E0012010BD002084F83C00204600F010
:100DE0001FF8022084F83D00211D206800F0ECFC73
:100DF000012084F8460084F83E0084F83F0084F81F
:100E0000400084F8410084F8420084F8430084F8EC
:100E1000440084F8450084F83D00002010BD000027
:100E200008B500680B49884212D10B48016841F4AB
:100E3000807101600068002200F48070009002213F
:100E40002D20FFF7D7FCBDE808402D20FFF7C4BCDC
:100E500008BD0000002000404038024090F83D10DE
:100E6000012901D001207047022180F83D1001685E
:100E7000CA6842F00102CA6000681149884214D071
:100E8000B0F1804F11D00F4988420ED00E498842F0
:100E90000BD00E49884208D00D49884205D00D4933
:100EA000884202D00C49884204D1816801F00701D0
:100EB000062903D0016841F001010160002070475C
:100EC000000001400004004000080040000C004009
:100ED0000004014000400140001800400168CA6859
:100EE00022F00102CA6001680A6A41F211131A4233
:100EF00007D10A6A9B101A4203D10A6822F0010244
:100F00000A60012180F83D1000207047704770B5DD
:100F10000446006801694FF00005C943890715D4EC
:100F2000C168C943890711D4E91E016101202077F6
:100F3000206880698007204602D0FFF7E7FF04E0C1
:100F400000F098F8204600F096F8257720680169AF
:100F5000C943490717D4C168C943490713D46FF07F
:100F600004010161022020772068806910F4407F2D
:100F7000204602D0FFF7CAFF04E000F07BF82046CD
:100F800000F079F8257720680169C943090716D46C
:100F9000C168C943090712D46FF008010161042038
:100FA00020772068C0698007204602D0FFF7AEFF97
:100FB00004E000F05FF8204600F05DF82577206837
:100FC0000169C943C90617D4C168C943C90613D406
:100FD0006FF010010161082020772068C06910F4CB
:100FE000407F204602D0FFF791FF04E000F042F876
:100FF000204600F040F8257720680169C943C907F9
:1010000008D1C168C943C90704D1891E01612046BE
:1010100000F032F820680169C943090609D4C168A3
:10102000C943090605D46FF0800101612046FFF72E
:10103000C7FE20680169C943490609D4C168C9438C
:10104000490605D46FF040010161204600F022F806
:1010500020680169C94389060BD4C168C943890660
:1010600007D46FF0200101612046BDE87040FFF712
:10107000A8BE70BD7047704704490068096888427F
:1010800002D1034800F0B8BA70470000BC0000204D
:10109000200000207047704770470000F8B50168D5
:1010A00004460868CA684B6910F00F0F4FF000053E
:1010B00059D003F0010602F49077374365D0C10799
:1010C00005D0D10503D5216C41F001012164410710
:1010D00005D5D90703D0216C41F0020121648107B5
:1010E00005D5D90703D0216C41F004012164010723
:1010F00007D502F02001314303D0216C41F00801F3
:101100002164216C00293AD0800604D5900602D5CE
:10111000204600F0ECFB20684069216CC0F3801091
:10112000090700D460B3204600F0BAFB206840698C
:10113000400621D52068143050E8001F21F04001FE
:1011400040E80012002AF5D1A06BA8B16C490165F6
:10115000A06BFFF7BFF9002811D0A06B016D01B0A3
:10116000BDE8F040084783060FD593060DD520460D
:10117000BDE8F84000F0BBBB2046FFF78DFFF8BD8F
:101180002046FFF789FF2564F8BD266B2023012E3A
:1011900079D1C60677D5D60675D508684868009017
:1011A0004869400640D5A16B086840680004000CFF
:1011B000EAD0A28D8242E7D9E085C869B0F5807F88
:1011C0002DD020680C3050E8001F21F4807140E8D9
:1011D0000012002AF5D12068143050E8001F21F0D9
:1011E000010140E80012002AF5D12068143050E8CF
:1011F000001F21F0400140E80012002AF5D184F8D8
:101200003E30256320680C3050E8001F21F01001AB
:1012100040E80012002AF5D1A06BFFF712F9A08D6B
:10122000E18D401A81B229E0A08DE18D401A81B292
:10123000E08D0028A8D00029A6D020680C3050E806
:10124000002F22F4907240E80026002EF5D120688D
:10125000143050E8002F22F0010240E80026002E52
:10126000F5D184F83E30256320680C3050E8002F1B
:1012700022F0100240E80023002BF5D12046FFF7B2
:101280000AFFF8BDFFE705062BD5150629D594F80A
:101290003D002128F5D1A068B0F5805F01D120691B
:1012A000B0B1206A411C2162216800784860E08C5E
:1012B000401E0004000CE084E3D12068C16821F0E6
:1012C0008001C1602068C16841F04001C160D8E779
:1012D000206A0088C0F308004860206A801C2062F1
:1012E000E5E74006CDD55006CBD5CA68204622F0AA
:1012F0004002CA6084F83D3000F0FBF8C1E700000E
:101300009118000870B5040004D094F83D00002541
:1013100010B106E0012070BD84F83C50204600F07A
:1013200023F8242084F83D002068C16821F400518E
:10133000C160204600F03CFB2068016921F4904127
:1013400001612068416921F02A0141612068C1687A
:1013500041F40051C1602564202084F83D0084F8E8
:101360003E00002070BD000010B586B00446142178
:101370006846FEF7F0FF17492068884228D11648D2
:101380000021026842F400320260006800F400307C
:10139000059011481038026842F0010202600068AE
:1013A00000F0010005900C2000900220CDE9010121
:1013B000032003900720049069460848FFF7AEF821
:1013C000002201212620FFF715FA2620FFF704FA54
:1013D00006B010BD0044004040380240000002400A
:1013E00090F83E30202B0ED159B152B190F83C30DC
:1013F000012B08D0012380F83C300023036300F068
:101400005DBB0120704702207047000010B50949FC
:101410000068096888420BD107480178074800F046
:10142000D3F8BDE81040012203490248FFF7D8BFB6
:1014300010BD00000401002000000020200000205A
:101440002DE9F843044690F83D001F4616460D4628
:1014500020284CD1C5B1BEB194F83C00012846D03B
:10146000012084F83C004FF00008C4F8408021209F
:1014700084F83D00FFF750F9A6848146E684A06811
:10148000B0F5805F03D004E00120BDE8F883206957
:1014900028B12E465FF0000584F83C800EE000265F
:1014A000FAE78021204600F026FBA0B9AEB116F87D
:1014B000010B21684860E08C401EE084E08C4B46C4
:1014C0004FF0000200970028EBD14FF0400120467A
:1014D00000F011FB30B10320D7E735F8020BC0F361
:1014E0000800E6E7202084F83D000020CDE7022038
:1014F000CBE77047FEE710B5044602982170627092
:10150000190AA170E370010A217160710621204659
:1015100000F0AAFBA071000AE0712046D4F89820E0
:10152000BDE81040082110472DE9F84F0446DDE9D9
:101530000A68D0F884001D4693468A464FF0FF376C
:1015400000B180474FF00009A4F880905B46032269
:10155000514620460095FFF7CEFF2CE0B4F88000FE
:1015600000041ED52178514516D16078032813D187
:10157000B4F88000C0F30E012046FEF751FF58B1C9
:10158000E01C04E030F8021B49BA28F8021B6D1E6B
:10159000ADB2F7D2002701E06FF00107A4F8809008
:1015A0000BE0052E01D9052000E03046311A8EB23D
:1015B000D4F88C108847002ED0D1D4F8880000B120
:1015C00080473846BDE8F88F70B50446D0F89000E3
:1015D0000D468047B4F88000802808D2411CA4F84A
:1015E00080102554D4F89400BDE87040004740F4C2
:1015F0000040A4F8800070BD10B50446D0F89000FB
:101600008047B4F88000002803D040F40040A4F8DC
:10161000800010BD70B586B014216846FEF79BFEB1
:101620001B480024016841F004010160016801F0D9
:1016300004010591016841F080010160016801F039
:1016400080010591016841F0010101600068114EBF
:1016500000F001004FF40055059000222946304665
:10166000FFF754F800950125CDE90154694630464D
:101670000394FEF753FFE80300904FF40410CDE904
:10168000010569460448FEF749FF06B070BD000039
:101690003038024000080240000002400C4810B5FB
:1016A0000A49016053214160002140F69F72C0E960
:1016B0000212016180218161FFF784FB002803D0C1
:1016C000BDE81040FEF7BBBE10BD0000002000408A
:1016D000BC0000200C4810B50A4901604FF41651B7
:1016E0004160002181600C22C160C0E90412816167
:1016F000C161FFF707FE002803D0BDE81040FEF7E8
:101700009EBE10BD0044004004010020FEE7FEE73D
:1017100070477047FFF706B830B593B03021684680
:10172000FEF719FE14210CA8FEF715FE1D48002532
:10173000016841F080510160006800F08050119014
:101740001948016841F4804101600068022400F4F6
:101750008040119001200090000401908001CDE9AB
:10176000064008AA0420A82182E813000B906846CE
:10177000FFF75CF908B172B6FEE70CA90F2081E80B
:1017800031004FF4A0500F904FF48050109005217D
:101790000CA8FFF761F8002801D072B6FEE713B07D
:1017A00030BD00004038024000700040024801682F
:1017B00041F470010160704788ED00E00148FFF7D7
:1017C000A6BB0000BC000020F0B50268254C264DE9
:1017D000264E274F274B4FF0804CA04209D0604542
:1017E00007D0A84205D0B04203D0B84201D09842F9
:1017F00004D122F0700E4A6842EA0E02A0421BD0C9
:10180000604519D0A84217D0B04215D0B84213D0C5
:10181000984211D0184DA8420ED0184DA8420BD0B6
:10182000174DA84208D0174DA84205D0164DA84222
:1018300002D0164DA84203D122F44075CA682A434B
:101840004D6922F080022A4302608A68C2620A68F7
:101850008262A04201D0984201D10969016301214D
:101860004161F0BD0000014000040040000800405C
:10187000000C0040000401400040014000440140D1
:101880000048014000180040001C004000200040BB
:1018900010B5806B0021C185C184FFF7FDFB10BD31
:1018A00001680C3151E8002F22F4907241E80023C6
:1018B000002BF5D10168143151E8002F22F001020C
:1018C00041E80023002BF5D1016B012909D1016802
:1018D0000C3151E8002F22F0100241E80023002BC8
:1018E000F5D1202180F83E1000210163704708B532
:1018F00090F83E10222901D0022008BD82684FF4E2
:1019000080539A4201D1016921B1816A9A421BD068
:101910004AB10AE00268816A5268C2F308020A808A
:10192000816A891C08E0026972B10268526802F09B
:101930007F020A70816A491C8162C18D491E0904B7
:10194000090CC18503D019E002685268F1E701680B
:10195000CA6822F02002CA600168CA6822F4807254
:10196000CA6001684A6922F001024A61202180F8B8
:101970003E10016B012903D0FFF748FD002008BD90
:101980000021016301680C3151E8002F22F01002A0
:1019900041E80023002BF5D101680A68D20602D580
:1019A0000A6849680091818DFFF775FBE6E7000042
:1019B00070B5044600680169E26821F440511143A2
:1019C00001612169A068E269084361691143084324
:1019D0002168CA6849F20C639A430243CA602068CE
:1019E0004169A26921F44071114341613149206884
:1019F000884202D03049884202D1FEF7D7FF01E089
:101A0000FEF7C4FFE2690023192164253226B2F5EE
:101A1000004F626828D0A0FB0101930F9200FEF7EF
:101A200023FC0146B0FBF5F06FF01802504301EBC8
:101A3000800006EB0010B0FBF5F000F0F002B1FB07
:101A4000F5F002EB0012B1FBF5F06FF0180358430C
:101A500001EB800006EB0010B0FBF5F000F00F008A
:101A600021681044886070BDA0FB010192185B41A1
:101A7000FEF7FAFB0146B0FBF5F00201B1FBF5F011
:101A80006FF01803584301EB800006EBC000B0FB79
:101A9000F5F000F0F80002EB4002B1FBF5F058431E
:101AA00001EB800006EBC000B0FBF5F000F0070092
:101AB000D6E70000001001400014014081628285D9
:101AC000C28500210164222280F83E2080F83C106B
:101AD000016921B10168CA6842F48072CA60016874
:101AE0004A6942F001024A610068C16841F0200180
:101AF000C160002070472DE9F041984617460E4618
:101B00000446069D27E0681C25D02DB1FEF704FE93
:101B1000A0EB0800A8421ED920680C3050E8001F36
:101B200021F4D07140E80012002AF5D12068143069
:101B300050E8001F21F0010140E80012002AF5D111
:101B4000202084F83D0084F83E00002084F83C000A
:101B50000320BDE8F0812068006836EA000004D068
:101B60000020B842CFD00020F3E70120F9E70000C1
:101B70000148FFF793BA000004010020FEE70907BF
:101B8000090E002804DB00F1E02080F80014704703
:101B900000F00F0000F1E02080F8141D7047FEF700
:101BA000ABBC00001CB5FEF7C5FDFFF7B5FDFFF7A8
:101BB00031FDFFF78FFDFFF771FD17496FF0010051
:101BC00009680861012215491548FFF709FC124808
:101BD000FFF744F9114F4FF4FA74BF1DBD1F6600A3
:101BE00005F10208CDE900470123022205210D4835
:101BF000FFF79AFCE8603046FEF77EFCCDE900482E
:101C00000023022205210748FFF78EFCE8603046DA
:101C1000FEF772FCE6E70000BC0000200000002098
:101C200004010020200000207047704710B50C46CA
:101C30008AB2014664230348FFF702FC00B1002486
:101C4000204610BD040100200349002009684862B5
:101C50000148FFF703B90000BC0000200148FFF76E
:101C60003DB90000BC00002070B5094DFF231A46A5
:101C700005F5807606E000BF10F8014B54402A5D60
:101C80005A40335D491E89B2F6D242EA032070BD44
:101C9000B61C00084FF04070E1EE100A70470000DB
:101CA000000000000000010203040607080900000C
:101CB00000000102030400C1814001C0804101C055
:101CC000804100C1814001C0804100C1814000C10C
:101CD000814001C0804101C0804100C1814000C1FC
:101CE000814001C0804100C1814001C0804101C0EC
:101CF000804100C1814001C0804100C1814000C1DC
:101D0000814001C0804100C1814001C0804101C0CB
:101D1000804100C1814000C1814001C0804101C0BB
:101D2000804100C1814001C0804100C1814000C1AB
:101D3000814001C0804101C0804100C1814000C19B
:101D4000814001C0804100C1814001C0804101C08B
:101D5000804100C1814000C1814001C0804101C07B
:101D6000804100C1814001C0804100C1814000C16B
:101D7000814001C0804100C1814001C0804101C05B
:101D8000804100C1814001C0804100C1814000C14B
:101D9000814001C0804101C0804100C1814000C13B
:101DA000814001C0804100C1814001C0804101C02B
:101DB000804100C1814000C0C101C30302C2C60608
:101DC00007C705C5C404CC0C0DCD0FCFCE0E0ACA73
:101DD000CB0BC90908C8D81819D91BDBDA1A1EDEC3
:101DE000DF1FDD1D1CDC14D4D515D71716D6D21273
:101DF00013D311D1D010F03031F133F3F23236F683
:101E0000F737F53534F43CFCFD3DFF3F3EFEFA3A32
:101E10003BFB39F9F83828E8E929EB2B2AEAEE2EC2
:101E20002FEF2DEDEC2CE42425E527E7E62622E232
:101E3000E323E12120E0A06061A163A3A26266A682
:101E4000A767A56564A46CACAD6DAF6F6EAEAA6AF2
:101E50006BAB69A9A86878B8B979BB7B7ABABE7E42
:101E60007FBF7DBDBC7CB47475B577B7B67672B2F2
:101E7000B373B17170B05090915193535292965682
:101E80005797559594549C5C5D9D5F9F9E5E5A9AB2
:101E90009B5B99595898884849894B8B8A4A4E8E42
:101EA0008F4F8D4D4C8C44848545874746868242B2
:101EB0004383418180400000D81E000800000020BC
:101EC000BC000000C4010008941F0008BC000020F2
:101ED000EC060000E0010008000001000100000025
:101EE00000000000000000000100000010000000E1
:101EF000000000000024F4000000000000000000CA
:101F000000000000000000000000000000000000D1
:101F100000000000000000000000000000000000C1
:101F200000000000000000000000000000000000B1
:101F300000000000000000000000000000000000A1
:101F40000000000000000000000000000000000091
:101F50000000000000000000000000000000000081
:101F60000000000000000000000000000000000071
:101F7000000000000000000000000000291C000814
:101F80002B1C00089F1B00085D1C0008491C000852
:041F90002D1C0008FC
:040000050800018965
:00000001FF
