:020000040800F2
:100000007809002029020008211E00084117000875
:100010001D1E0008D503000815210008000000007F
:10002000000000000000000000000000291E000881
:10003000D903000800000000251E00082D1E00083E
:10004000430200084302000843020008430200087C
:10005000430200084302000843020008430200086C
:10006000430200084302000843020008430200085C
:10007000430200084302000843020008430200084C
:10008000430200084302000843020008430200083C
:10009000430200084302000843020008430200082C
:1000A000430200084302000843020008430200081C
:1000B000430200084302000843020008430200080C
:1000C00043020008430200084302000843020008FC
:1000D00043020008430200084302000843020008EC
:1000E00043020008430200084302000843020008DC
:1000F00043020008430200084302000843020008CC
:1001000043020008430200084302000843020008BB
:1001100043020008430200084302000843020008AB
:10012000430200084302000843020008430200089B
:10013000430200084302000843020008430200088B
:10014000430200084302000843020008430200087B
:10015000430200084302000843020008430200086B
:10016000430200084302000843020008430200085B
:100170004302000843020008430200080000000098
:10018000430200084302000800F002F800F03CF8C7
:100190000AA090E8000C82448344AAF10107DA45E2
:1001A00001D100F031F8AFF2090EBAE80F0013F0F8
:1001B000010F18BFFB1A43F001031847C81F0000C6
:1001C000E81F0000103A24BF78C878C1FAD8520757
:1001D00024BF30C830C144BF04680C6070470000C1
:1001E0000023002400250026103A28BF78C1FBD840
:1001F000520728BF30C148BF0B6070471FB501F0E0
:10020000A8FF1FBD10B510BD00F0A9F81146FFF7FB
:10021000F5FF01F081FF00F0C7F803B4FFF7F2FF2C
:1002200003BC00F0CFF800000948804709480047A8
:10023000FEE7FEE7FEE7FEE7FEE7FEE7FEE7FEE796
:10024000FEE7FEE704480549054A064B70470000F3
:10025000E11E0008890100087803002078090020C9
:10026000780500207805002053EA020C00F0698030
:100270002DE9F04B4FF00006002B1FBFB3FA83F5BA
:1002800003FA05F424FA05F65E4012BF1643B2FAEB
:1002900082F502FA05F4C5F120051EBF22FA05FC1D
:1002A00044EA0C04203556EA044C4FEA144418BFC3
:1002B000641C4FF000084FF00009904271EB030CF2
:1002C00039D3002919BFB1FA81F701FA07F6B0FA5C
:1002D00080F700FA07F6C7F120071EBF20FA07FCD7
:1002E00046EA0C062037B6FBF4FCA7EB0507103FE7
:1002F00007F01F0BCBF120062CFA06F60CFA0BFBCD
:1003000044BFB3460026202FA4BF5E464FF0000B2B
:100310005BEA060C08BF4FF0010B19EB0B0948EB29
:100320000608ABFB027C06FB02CC0BFB03CCC01B1C
:1003300071EB0C01C1E70B46024641464846BDE859
:10034000F08B13B5084318BF4FF0FF300146AFF3F1
:100350000080BDE81C407047704770477047754685
:1003600000F02CF8AE4605006946534620F0070021
:10037000854618B020B5FFF765FFBDE820404FF077
:1003800000064FF000074FF000084FF0000BAC469E
:10039000ACE8C009ACE8C009ACE8C009ACE8C009E9
:1003A00021F007018D46704710B50446AFF3008079
:1003B0002046BDE81040FFF730BF000000487047FE
:1003C0001000002001491820ABBEFEE72600020005
:1003D00070470000FEE7000070470000EFF3108058
:1003E00072B600BFFEE700002DE9F04F82B000F1C9
:1003F0003E4241F6004502F1FF77C4F202050822B1
:100400004FEAB726A84208BF0722072E38BF4FEA97
:10041000B7224FF0010A002400274FF00008009295
:1004200008E000BF023708F10108202F04F104049E
:1004300000F0B4800E680AFA08F916EA090FF1D044
:10044000D1F804A00AF0030BABF10106012E17D876
:100450000322866802FA07FECA6826EA0E06BA4038
:10046000324382604268CAF3001522EA090205FAA3
:1004700008F54FEA480C6FEA0E062A4342600BE08B
:100480000322BA40D643BBF1030FBC4604D1BC469D
:100490004FF0030B22E000BFC2688D68324005FABE
:1004A0000CF52A43BBF1020FC26017D16FF00302B3
:1004B00002EA5802024404F01C030F25D2F820E09F
:1004C00005FA03FA0D692EEA0A0E05FA03F343EA68
:1004D0000E031362D1F804A00AF0030B02680BFAB2
:1004E0000CF332401A431AF4403F4FF0010A026005
:1004F00098D0002243F644030192C4F202031A6822
:1005000043F6004E42F480421A601A68C4F2010EAB
:1005100002F480420192019A28F003024FF6084C3F
:100520007244CFF6FF7C52F80C3004F00C060F2515
:10053000B540AB43009D05FA06F6334342F80C3054
:10054000DEF808204B6842EA090643F60C4CDD024F
:1005500058BF22EA0906CEF80860C4F2010CDCF8A4
:1005600000209D0242EA090658BF22EA0906CCF89B
:100570000060DEF804209D0342EA090658BF22EA23
:100580000906CEF80460DEF80020DB0342EA090623
:1005900058BF22EA0906CEF8006043E702B0BDE882
:1005A000F08F000040F27430C2F200000068704723
:1005B00040F2000040F27431C2F20000C2F20001C9
:1005C00000780A68104408607047000080B543F660
:1005D0000040C4F20200016841F40071016001684A
:1005E00041F480610160016841F480710160032081
:1005F00000F074F80F2000F005F800F027F8002054
:1006000080BD000070B540F20006C2F2000640F264
:1006100008013278C2F200014FF47A730968B3FB23
:10062000F2F20446B1FBF2F1084600F031FB0F2C68
:100630004FF0010508D838B94FF0FF3021460022AD
:10064000002500F01FF87460284670BD82B00020BD
:1006500043F640010190C4F202014A6842F480422C
:100660004A604A6802F480420192019A0090086848
:1006700040F080500860086800F0805000900098BA
:1006800002B0704710B54EF60C5CCEF2000CDCF8F0
:100690000030C3F3022E8EF00704042C28BF04247C
:1006A000BEF103034FF0FF3E0EFA04F438BF0023FF
:1006B000A14399400EFA03F39A43114300F00F024D
:1006C000043A624409010C3200F16043B0F1FF3F8B
:1006D000C8BF03F56442117010BD00004EF60C5106
:1006E000CEF200010A684FF6FF031A4060F30A22B7
:1006F00042F0806040F0FD70086070472DE9F041E5
:10070000002800F08B8043F60808C4F20208044673
:10071000D8F8F8030D4600F00700884207D288F8A1
:10072000F853D8F8F80300F00700A84276D1206803
:10073000810717D5410705D5D8F8001041F4E051DD
:10074000C8F80010010705D5D8F8001041F4604141
:10075000C8F80010D8F80010A26821F0F001114389
:10076000C8F80010C0073FD1D8F8F80300F0070020
:10077000A84207D988F8F853D8F8F80300F0070022
:10078000A8424BD12068410707D5D8F80010E2688D
:1007900021F4E0511143C8F80010000708D5D8F83B
:1007A0000000216920F4604040EAC100C8F8000060
:1007B00000F07CF8D8F8001042F26C12C1F303117B
:1007C000C0F60002515C40F2080220FA01F140F24A
:1007D0000400C2F200000068C2F200021160FFF7DC
:1007E00011FF0020BDE8F0816068811E022907D258
:1007F00058F8081C89015CBF0120BDE8F08111E0B8
:10080000012807D158F8081C89035CBF0120BDE806
:10081000F08107E058F8081C890703D40120BDE8DF
:10082000F08100BFD8F8001021F003010843C8F898
:100830000000FFF7B7FE064641F28837D8F80000FF
:10084000616800F00C00B0EB810F8DD0FFF7AAFEBD
:10085000801BB842F2D90320BDE8F08140F20800C5
:1008600043F60801C2F20000C4F202010068096800
:1008700042F27C12C1F38221C0F60002515CC840F2
:100880007047000040F2080043F60801C2F2000081
:10089000C4F202010068096842F27C12C1F34231DD
:1008A000C0F60002515CC8407047000010B543F626
:1008B0000404C4F20204606800F00C0142F200403B
:1008C0000829C0F2F40007D0042918BF10BD41F276
:1008D0000020C0F27A0010BD216801F03F022168BB
:1008E00023684902C3F3881106D4A1FB0001002349
:1008F000FFF7BAFC07E000BF41F20020C0F27A0027
:100900004843B0FBF2F021680222C1F3014102EB3F
:100910004101B0FBF1F010BD2DE9F04182B000289B
:100920006AD00446007843F60006C007C4F2020607
:100930000BD0B06800F00C00042840F0A1803068B3
:10094000800302D56068002856D0207880071AD529
:10095000B06810F00C0F09D0B06800F00C00082847
:1009600040F0A8807068400200F1A48030688007E1
:1009700002D5E06801283FD13068216920F0F800F5
:1009800040EAC10030602078000739D42078400761
:100990004ED4A5695DB3B06800F00C00082840F0A3
:1009A000BD80012D28D07068E16900F480028A4280
:1009B00022D1216A00F03F028A421DD147F6C07160
:1009C000626A0140B1EB821F16D1A26A0023CFF602
:1009D000FF7303EBC23200F440316FF30F02914218
:1009E0000AD1E16A00F07060B0EB016F04D1002021
:1009F00002B0BDE8F08100BF012002B0BDE8F08187
:100A00006069002840F20000C4F2472076D001213E
:100A1000C0F8801EFFF7C6FD054600BF706F800757
:100A2000B4D4FFF7BFFD401B0228F7D9DDE000BFBB
:100A3000306C10F080580AD100200190306C40F0EA
:100A400080503064306C00F080500190019847F283
:100A50000007C4F200073868C00541D4386840F484
:100A600080703860FFF79EFD054600BF3868C005FE
:100A700036D4FFF797FD401B0228F7D9B5E000BF39
:100A8000B06800F00C00082803D1706840023FF500
:100A900056AF6068B0F5803F07D0B0F5A02F40F0AA
:100AA0008D80306840F480203060306840F48030C1
:100AB00030608DE0E068002852D00020C4F247206A
:100AC00001210160FFF76EFD054600BF3068800719
:100AD0003FF552AFFFF766FD401B0228F6D984E0D0
:100AE000A068012805D005284ED1306F40F00400E1
:100AF0003067306F40F0010030674FE00021C0F8F0
:100B0000801EFFF74FFD0546706F80077FF53EAFF3
:100B1000FFF748FD401B0228F6D966E00027C4F223
:100B2000472700203866FFF73DFD022D05460BD113
:100B3000306880015ED5FFF735FD401B02284FF07D
:100B40000300F5D954E700BF306880017FF54FAF4F
:100B5000FFF728FD401B02284FF00300F4D947E7B8
:100B60000020C4F2472000210160FFF71BFD05466D
:100B7000306880077FF507AFFFF714FD401B0228A0
:100B80004FF00300F4D933E7316F002821F0010161
:100B90003167316F21F0040131674DD0FFF702FD5D
:100BA000054641F2883700BF306F800756D4FFF703
:100BB000F9FC401BB842F7D917E000BF31680028A4
:100BC00021F480313160316821F4802131604FD0CF
:100BD000FFF7E8FC054600BF306880033FF5B5AE7F
:100BE000FFF7E0FC401B6428F6D9032002B0BDE803
:100BF000F08100BF04F11C052FCD08430021CFF682
:100C0000FF7140EA821001EBC3316FF30F0140EA3C
:100C100005600843706001203866FFF7C3FC044696
:100C2000306880013FF5E3AEFFF7BCFC001B0228F3
:100C30004FF00300F4D9DBE6FFF7B4FC054641F2C0
:100C4000883700BF306F800708D5FFF7ABFC401B2B
:100C5000B8424FF00300F5D9CAE600BFB8F1000F63
:100C60007FF497AE306C20F08050306491E600BF86
:100C7000FFF798FC054600BF306880037FF565AE3E
:100C8000FFF790FC401B64284FF00300F4D9AFE657
:100C9000411E0020B0EB116F1CBF012070474EF2C7
:100CA0001002CEF2000251604EF62351CEF2000146
:100CB000F0230B700721906011607047B0B590F879
:100CC0003C20012A04BF0220B0BD01F108053CCD43
:100CD000D1E900CE23F47C5322F470521A432EF44F
:100CE000F0431A432CF4E0431A4324F4C0431A435C
:100CF0002A43C96922F480420368114359640021E0
:100D000080F83C100846B0BD10B590F83C20012A90
:100D10004FF0020251D080F83D200268D2F804E082
:100D2000D2F808C00C682EF07003234341F2FF7420
:100D3000C4F20004A24253600EDC40F2FF73C4F21E
:100D400000039A4216DCB2F1804F2BD040F20043F0
:100D5000C4F2000324E000BF40F2FF33C4F20103F9
:100D60009A4213DC41F60003C4F200039A4219D000
:100D7000002313E040F60003C4F200039A4211D0AE
:100D800040F60043C4F200030AE000BF44F200034F
:100D9000C4F201039A4205D040F20043C4F20103B9
:100DA0009A4204D149682CF08003194391600121D3
:100DB000002280F83D1080F83C20104610BD000055
:100DC000002804BF0120704710B5044690F83D008C
:100DD00028B9002084F83C00204600F01FF80220CB
:100DE00084F83D002068211D01F084F8012084F87A
:100DF000460084F83E0084F83F0084F8400084F800
:100E0000410084F8420084F8430084F8440084F8E8
:100E1000450084F83D00002010BD000082B000684D
:100E200040F20041C4F20101884215D00021C4F211
:100E3000010188421FD10020019043F64400C4F212
:100E40000200016841F001010160006800F001004A
:100E50000190019802B070470020009043F64400D2
:100E6000C4F20200016841F002010160006800F074
:100E700002000090009802B07047000080B590F822
:100E80003C20012A4FF0020200F0C28080F83D2091
:100E9000D0F800C04FF67772DCF8083023EA02027F
:100EA000CCF808200B684F2B28DC1F2B44DD202BAF
:100EB00045D0302B43D0402B40F0AC80D1F804E03B
:100EC000C968DCF82030DCF8202022F00102CCF8E0
:100ED0002020DCF8182022F0F00242EA011123F071
:100EE0000A0242EA0E02CCF81810CCF82020DCF8F6
:100EF000081041F0470121F0300180E06F2B27DD21
:100F0000B3F5005F48D0B3F5805F7AD0702B40F026
:100F10008180D1E901E3C968DCF8082043EA0E03C7
:100F200022F47F4243EA01211143CCF80810DCF897
:100F3000081041F0770162E00BB1102B6AD1DCF8A8
:100F4000081021F07001194341F0070157E000BF7C
:100F5000502B35D0602B5DD1D1F804E0C968DCF8A6
:100F6000203023F01003CCF82030DCF81830DCF807
:100F7000202023F4704322F0A00243EA013142EA28
:100F80000E12CCF81810CCF82020DCF8081041F034
:100F9000670121F0100132E0D1E901E3C968DCF812
:100FA000082043EA0E0322F47F4243EA0121114361
:100FB000CCF80810DCF8081041F480411FE000BFB5
:100FC000D1F804E0C968DCF82030DCF8202022F0F9
:100FD0000102CCF82020DCF8182022F0F00242EACE
:100FE000011123F00A0242EA0E02CCF81810CCF8E4
:100FF0002020DCF8081041F0570121F02001CCF846
:1010000008100022012180F83D10002180F83C10DA
:10101000104680BD0122F5E7002804BF012070477B
:101020002DE9F047044690F83D000D4628B9002010
:1010300084F83C00204600F049F8022084F83D0086
:10104000206844F20702816891438160211D00F00D
:1010500051FF20684FF6FF7881688269D0F820C080
:10106000D5E9003ED5E9026A43EA0109AB6922EA03
:10107000080246EA03234FF6FC46B343D5E9076767
:1010800042EA0A0229691A4342EA062242EA0111A7
:101090002CF0AA026B6942EA0E0241EA073142EAE9
:1010A0000312C0F8089081610262012084F84600B2
:1010B00084F83E0084F83F0084F8420084F843003E
:1010C00084F83D000020BDE8F0870000F0B587B04F
:1010D0000068002100F140404FEAB020032806914B
:1010E000CDE904110391029100F2A980DFE800F03C
:1010F000023C5880002543F630000195C4F20200FE
:101100000169002441F0010101610169C4F2020496
:1011100001F001010191019901950168022641F058
:10112000010101600168012701F0010101910199AC
:101130000195016841F002010160006802A900F018
:101140000200019001982020029020460396CDE9EC
:1011500004750697FFF748F9082002A9C1C1CDE937
:10116000055704F5806067E0002043F630010190E8
:10117000C4F202010A6942F002020A610A6902F03D
:1011800002020192019A01900A6842F001020A608B
:10119000096801F0010101910199C02142E000BFFD
:1011A000002043F630010190C4F202010A6942F0C6
:1011B00004020A610A6902F004020192019A019094
:1011C0000A6842F008020A600968012201F0080179
:1011D000019101994FF44051CDE904200020029182
:1011E0000221C4F202000391069100F5406023E061
:1011F000002043F630010190C4F202010A6942F076
:1012000008020A610A6902F008020192019A01903B
:101210000A6842F001020A60096801F001010191C7
:101220000199032105900020029102210122C4F2BC
:10123000020003910492069102A9FFF7D5F807B0C6
:10124000F0BD00002DE9F04190F83C30012B04BFC7
:101250000220BDE8F0814FEAB202032A00F2FC80CE
:10126000DFE802F0023E7EBE036840F200471A6AE1
:1012700043F4806522F001021A621C6A1A46D3F810
:1012800004E052F818CF8E6824F00204C4F201077B
:10129000BD4244EA060405D1CE6824F00C0426F0D1
:1012A000040634430E68BD4207D1D1E905572EF438
:1012B000407E45EA0E0545EA070E2CF073073743DA
:1012C000C3F804E09F614F6809695F631C629F690E
:1012D00047F008079F619F6927F004079F61B1E00D
:1012E000036840F200481A6A43F4806522F0100255
:1012F0001A621C6A1A46D3F804E052F818CF8F68B5
:1013000024F02004C4F20108454544EA071407D13B
:10131000CF686FF0400624F0C00406EA0716344395
:101320000F68454507D1D1E905562EF4406E4EEAC7
:10133000850545EA860E2CF4E64646EA0727C3F8FB
:1013400004E09F614F6809699F631C629F6947F4CD
:1013500000679F619F6927F480679F6171E000BF0C
:10136000036840F200481A6A43F4806522F48072F0
:101370001A621C6A1A46D3F804E052F81CCF8F6830
:1013800024F40074C4F20108454544EA072408D156
:10139000CF6840F2FF463F0224F4406427EA060685
:1013A00034430F68454507D1D1E905562EF4405E18
:1013B0004EEA051545EA061E2CF073063743C3F8BE
:1013C00004E0DF614F680969DF631C62DF6947F091
:1013D0000807DF61DF6927F00407DF6132E000BF43
:1013E000036840F200451A6A43F4806722F4805291
:1013F0001A621A46D3F820C05C6852F81CEFD1F884
:1014000000808E68C4F20105AF4204D14D6924F416
:10141000804444EA85142CF4005747EA06372EF43A
:10142000E64646EA08265C60DE614E6809691E648D
:101430001F62DF6947F40067DF61DF6927F48067B7
:10144000DF6109021368194311600021002280F84E
:101450003C200846BDE8F0810121002280F83C20B4
:101460000846BDE8F0810000002804BF0120704755
:1014700010B5044690F83D0028B9002084F83C00DF
:10148000204600F01FF8022084F83D002068211D4E
:1014900000F030FD012084F8460084F83E0084F816
:1014A0003F0084F8400084F8410084F8420084F84A
:1014B000430084F8440084F8450084F83D0000208F
:1014C00010BD000070470000002804BF01207047D5
:1014D00010B5044690F83D0028B9002084F83C007F
:1014E000204600F021F8242084F83D002068C168DF
:1014F00021F40051C160204600F09AFD2068016986
:1015000021F490410161416921F02A014161C168E2
:1015100041F40051C16000202021206484F83D1076
:1015200084F83E1010BD00002DE9F04186B000683F
:1015300044F6FF31C4F2000188424FF000010591EA
:10154000CDE90311CDE901113CDD41F20001C4F206
:10155000010188426ED045F20001C4F200018842C8
:1015600000F0848044F60041C4F20001884240F05B
:10157000E380002043F630010090C4F202010A69C2
:1015800042F400220A610A6902F400220092009AE1
:1015900000900A6842F004020A60096801F0040140
:1015A000009100994FF4406101910221CDE90210B0
:1015B00003200490082005900020C4F2020000F5EA
:1015C0000060B6E044F20041C4F20001884200F03D
:1015D0008B8044F60001C4F20001884240F0AC80E8
:1015E000002043F630010090C4F202010A6942F47F
:1015F00080220A610A6902F480220092009A009017
:101600000A6842F002020A60096801F002010091D2
:1016100000994FF4406101910221CDE902100320AD
:101620000490072005900020C4F2020000F58060BD
:101630007FE000BF002043F630010090C4F20201B9
:101640004A6942F010024A614A6902F010020092AF
:10165000009A00900A6842F001020A60096801F0ED
:101660000101009100994FF4C06157E0002443F656
:1016700030000094C4F202000169002541F4801199
:1016800001610169C4F2020501F480110091009921
:10169000009401684FF0020841F004010160016804
:1016A000032601F0040100910099009401680827C5
:1016B00041F008010160006801A900F008000090F5
:1016C00000984FF48050019005F50060CDE9028448
:1016D00004960597FEF788FE0420CDE9010803A8CB
:1016E000D0C005F5406024E0002043F630010090B2
:1016F000C4F202010A6942F400320A610A6902F482
:1017000000320092009A00900A6842F001020A60DA
:10171000096801F00101009100990C210390032058
:101720000490072001910221059000200291C4F24B
:10173000020001A9FEF758FE06B0BDE8F0810000E6
:10174000FEE7000081B0002143F630000091C4F2B2
:101750000200026842F080020260026802F0800229
:101760000092009A0091026842F001020260026851
:1017700002F001020092009A0091026842F0100209
:101780000260026802F010020092009A0091026862
:1017900042F002020260026802F002020092009A25
:1017A0000091026842F008020260026802F008023A
:1017B0000092009A0091016841F004010160006804
:1017C00000F004000090009801B0704770B59CB024
:1017D000002540F27000C4F201050021C2F20000B1
:1017E000012242F2CF031591CDE913111191CDE9F8
:1017F0000F11CDE90D11CDE90B11CDE90911CDE99D
:101800000711CDE90511CDE90311CDE90111C0E9B9
:101810000052C0E90213C0E904118161FFF7D0FA58
:10182000002818BFFEF7DAFD4FF48050129040F206
:101830007000C2F2000012A9FFF720FB002818BFB9
:10184000FEF7CCFD40F27000C2F20000FFF70CFE84
:10185000002818BFFEF7C2FD40F270000024C2F25B
:10186000000010A9CDE91044FFF74EFA002818BF78
:10187000FEF7B4FD6020CDE9090440F27000C2F229
:10188000000009A90022CDE90B44CDE90D440F94D5
:10189000FFF7D8FC002818BFFEF7A0FD40F270004B
:1018A000C2F2000009A90422FFF7CCFC002818BFEF
:1018B000FEF794FD40F27000C2F2000009A9082270
:1018C000FFF7C0FC002818BFFEF788FD40F270004B
:1018D000C2F2000009A90C22FFF7B4FC002818BFCF
:1018E000FEF77CFD40F270044FF40050C2F2000499
:1018F0000026069001A920460596CDE90366CDE9AC
:1019000001660896FFF7DAF9002818BFFEF766FDB2
:10191000206840F20041C4F201018842179617D0B6
:10192000A84233D10020169043F63000C4F20200E2
:10193000016841F0100101600068012100F0100011
:10194000169016984FF4D440179005F5883014E09F
:101950000020169043F63000C4F20200016841F006
:10196000040101600068032100F00400169016983D
:101970004FF47070179005F58430022218920022FF
:101980001B9117A9CDE91922FEF72EFD1CB070BDE1
:1019900080B58CB040F2B8000021C2F200004FF0D8
:1019A00080424FF6FF73C0E900210122CDE900110A
:1019B000C0E9021301618161CDE90321CDE905216F
:1019C000CDE90711CDE909210B9103A9FFF724FB0C
:1019D000002818BFFEF702FD40F2B800C2F2000076
:1019E0006946FFF791F9002818BFFEF7F7FC0CB025
:1019F00080BD000080B58CB040F2001040F2004283
:101A00000021C2F20000C4F200024FF6FF73C0E9E9
:101A100000210122CDE90011C0E9021301618161B9
:101A2000CDE90321CDE90521CDE90711CDE9092152
:101A30000B9103A9FFF7F0FA002818BFFEF7CEFCC0
:101A400040F20010C2F200006946FFF75DF900287D
:101A500018BFFEF7C3FC0CB080BD000080B58CB091
:101A600040F2481040F600020021C2F20000C4F229
:101A700000024FF6FF73C0E900210122CDE90011F9
:101A8000C0E9021301618161CDE90321CDE905219E
:101A9000CDE90711CDE909210B9103A9FFF7BCFAA4
:101AA000002818BFFEF79AFC40F24810C2F200006E
:101AB0006946FFF729F9002818BFFEF78FFC0CB024
:101AC00080BD000080B58CB040F2901040F600421E
:101AD0000021C2F20000C4F200024FF0FF33C0E95F
:101AE00000210122CDE90011C0E9021301618161E9
:101AF000CDE90321CDE90521CDE90711CDE9092182
:101B00000B9103A9FFF788FA002818BFFEF766FCBF
:101B100040F29010C2F200006946FFF7F5F8002885
:101B200018BFFEF75BFC0CB080BD000070B59CB028
:101B300040F2004540F2D810C4F201050021C2F283
:101B40000000012242F2CF031591CDE9131111914A
:101B5000CDE90F11CDE90D11CDE90B11CDE9091139
:101B6000CDE90711CDE90511CDE90311CDE9011149
:101B7000C0E90052C0E90213C0E904118161FFF716
:101B80001FF9002818BFFEF729FC4FF4805012906F
:101B900040F2D810C2F2000012A9FFF76FF9002836
:101BA00018BFFEF71BFC40F2D810C2F20000FFF78E
:101BB0005BFC002818BFFEF711FC40F2D81000248F
:101BC000C2F2000010A9CDE91044FFF79DF80028EB
:101BD00018BFFEF703FC6020CDE9090440F2D810DD
:101BE000C2F2000009A90022CDE90B44CDE90D4461
:101BF0000F94FFF727FB002818BFFEF7EFFB40F21A
:101C0000D810C2F2000009A90422FFF71BFB00282C
:101C100018BFFEF7E3FB40F2D810C2F2000009A99A
:101C20000822FFF70FFB002818BFFEF7D7FB40F292
:101C3000D810C2F2000009A90C22FFF703FB00280C
:101C400018BFFEF7CBFB40F2D8144FF40050C2F29D
:101C500000040026069001A920460596CDE90366FA
:101C6000CDE901660896FFF729F8002818BFFEF7AE
:101C7000B5FB20681796A8421AD00021C4F20101D2
:101C8000884233D10020169043F63000C4F202009F
:101C9000016841F0100101600068012100F01000AE
:101CA000169016984FF4D440179005F5863014E03E
:101CB0000020169043F63000C4F20200016841F0A3
:101CC000040101600068032100F0040016901698DA
:101CD0004FF47070179005F582300222189200229E
:101CE0001B9117A9CDE91922FEF77EFB1CB070BD30
:101CF00080B540F2EC2044F60041C2F20000C4F28C
:101D0000000100234FF00C0C4FF4E13280E80E008C
:101D1000C0E90333C0E905C3C361FFF7D5FB002861
:101D200008BF80BDBDE88040FEF758BB80B540F2DB
:101D3000303045F20001C2F20000C4F2000100237D
:101D40004FF00C0C4FF4E13280E80E00C0E9033391
:101D5000C0E905C3C361FFF7B7FB002808BF80BD1A
:101D6000BDE88040FEF73ABB80B540F2202041F24A
:101D70000001C2F20000C4F2010100234FF00C0C7C
:101D80004FF4E13280E80E00C0E90333C0E905C337
:101D9000C361FFF799FB002808BF80BDBDE8804004
:101DA000FEF71CBB80B540F2642044F20041C2F251
:101DB0000000C4F2000100234FF00C0C4FF4E1329C
:101DC00080E80E00C0E90333C0E905C3C361FFF733
:101DD0007BFB002808BF80BDBDE88040FEF7FEBA4F
:101DE00080B540F2A82044F60001C2F20000C4F21F
:101DF000000100234FF00C0C4FF4E13280E80E009C
:101E0000C0E90333C0E905C3C361FFF75DFB0028E8
:101E100008BF80BDBDE88040FEF7E0BAFEE70000E5
:101E2000FEE700007047000070470000FEF7C0BBEF
:101E3000B0B592B0002443F64000CDE90A44CDE9A4
:101E400008440594CDE90344CDE901440094C4F26B
:101E500002000168022541F080510160006800F035
:101E600080500090009847F200000094C4F20000F7
:101E7000016841F4804101600068A82100F48040BD
:101E800000900098012006904FF4803007904FF4A6
:101E900080000D9004200E90119006A80C95CDE9BD
:101EA0000F15FEF739FD28B1EFF3108072B600BFB1
:101EB000FEE700BF0F20CDE901054FF4A0500490CC
:101EC0004FF48050059001A805210394FEF716FCFD
:101ED00020B1EFF3108072B6FEE700BF12B0B0BDC4
:101EE0004EF68850CEF20000016841F470010160A6
:101EF0007047000010B540F6FF3E0368C4F2000EC4
:101F000040F2004C7045C4F2010C27DCB0F1804F68
:101F100031D040F20042C4F2000290422BD040F691
:101F20000002C4F20002904225D041F6FF72C4F2D2
:101F30000002904229DC70453CDCB0F1804F5FD05C
:101F400040F20042C4F20002904259D040F6000232
:101F5000C4F20002904253D056E000BF40F6004267
:101F6000C4F20002904206D0604504D00022C4F2C0
:101F700001029042D9D14A6823F07003134341F61D
:101F8000FF72C4F200029042D5DD43F6FF72C4F244
:101F90000102904222DC42F20002C4F200029042AE
:101FA0002ED00022C4F20102904229D0604527D0F1
:101FB0002AE000BF40F60042C4F2000290421FD067
:101FC00041F60002C4F20002904219D041F60042EC
:101FD000C4F20002904213D016E000BF44F20002A7
:101FE000C4F2010290420BD044F60002C4F2010296
:101FF000904205D044F20042C4F20102904203D163
:10200000CA6823F44073134323F080024B69D1F86C
:1020100000E08C681A430260C46240F48062C0F839
:1020200028E0624504BF096901630121416110BDD7
:1020300010B504460068D4E902C22369016921F49D
:10204000405111430161626943EA0C01E3691143A4
:10205000C268194349F20C639A431143C160416954
:10206000A26921F4407141F20043114340F48062BF
:10207000C4F201039A42416102D1FEF703FC01E080
:10208000FEF7ECFBE16963681922B1F5004FA0FB94
:1020900002011FD15A00DB0FFEF7E6F848F21F518C
:1020A000C5F2EB11A0FB01235A096FF0630302FB99
:1020B0000300322303EBC000A0FB01014FF4F870D2
:1020C00000EA111000EB0210C1F34211084421682C
:1020D000886010BD9A009B0FFEF7C6F848F21F51AA
:1020E000C5F2EB11A0FB01235A096FF0630302FB59
:1020F0000300322303EB0010A0FB0101F02000EAF3
:10210000511000EB0210C1F34311084421688860AC
:1021100010BD0000FEE70000FEF758FAFFF788FE4A
:10212000FFF710FBFFF752FBFFF732FCFFF762FCF3
:10213000FFF794FCFFF7C6FCFFF7F8FCFFF7D8FDAC
:10214000FFF7F4FDFFF710FEFFF72CFEFFF748FE48
:10215000FEE7F1EE100A4FF6FF71C0F2C03120EA3F
:10216000010040F04070E1EE100A704700000000EE
:102170000000000001020304060708090000000037
:1021800001020304A8210008000000201000000044
:10219000C4010008B82100081000002068090000F0
:1021A000E001000800000000010000001000000035
:0821B0000024F400000000000F
:040000050800018965
:00000001FF
