:020000040800F2
:10000000E00A002029020008E5260008991F0008E0
:10001000E1260008D5030008F12A000800000000CE
:10002000000000000000000000000000ED260008B5
:100030005104000800000000E9260008F12600082D
:10004000430200084302000843020008430200087C
:10005000430200084302000843020008430200086C
:10006000430200084302000843020008430200085C
:10007000430200084302000843020008430200084C
:10008000430200084302000843020008430200083C
:10009000430200084302000843020008430200082C
:1000A000430200084302000843020008430200081C
:1000B000430200084302000843020008430200080C
:1000C00043020008430200084302000843020008FC
:1000D00043020008E52A0008430200084302000822
:1000E00043020008430200084302000843020008DC
:1000F00043020008430200084302000843020008CC
:1001000043020008430200084302000843020008BB
:1001100043020008430200084302000843020008AB
:10012000430200084302000843020008430200089B
:10013000430200084302000843020008430200088B
:10014000430200084302000843020008430200087B
:10015000430200084302000843020008430200086B
:10016000430200084302000843020008430200085B
:100170004302000843020008430200080000000098
:10018000430200084302000800F002F800F03CF8C7
:100190000AA090E8000C82448344AAF10107DA45E2
:1001A00001D100F031F8AFF2090EBAE80F0013F0F8
:1001B000010F18BFFB1A43F001031847AC2B0000D6
:1001C000CC2B0000103A24BF78C878C1FAD8520767
:1001D00024BF30C830C144BF04680C6070470000C1
:1001E0000023002400250026103A28BF78C1FBD840
:1001F000520728BF30C148BF0B6070471FB502F0DF
:100200009AFD1FBD10B510BD00F0A9F81146FFF70B
:10021000F5FF02F067FD00F0C7F803B4FFF7F2FF47
:1002200003BC00F0CFF800000948804709480047A8
:10023000FEE7FEE7FEE7FEE7FEE7FEE7FEE7FEE796
:10024000FEE7FEE704480549054A064B70470000F3
:10025000A527000889010008E0040020E00A00202A
:10026000E0060020E006002053EA020C00F069805E
:100270002DE9F04B4FF00006002B1FBFB3FA83F5BA
:1002800003FA05F424FA05F65E4012BF1643B2FAEB
:1002900082F502FA05F4C5F120051EBF22FA05FC1D
:1002A00044EA0C04203556EA044C4FEA144418BFC3
:1002B000641C4FF000084FF00009904271EB030CF2
:1002C00039D3002919BFB1FA81F701FA07F6B0FA5C
:1002D00080F700FA07F6C7F120071EBF20FA07FCD7
:1002E00046EA0C062037B6FBF4FCA7EB0507103FE7
:1002F00007F01F0BCBF120062CFA06F60CFA0BFBCD
:1003000044BFB3460026202FA4BF5E464FF0000B2B
:100310005BEA060C08BF4FF0010B19EB0B0948EB29
:100320000608ABFB027C06FB02CC0BFB03CCC01B1C
:1003300071EB0C01C1E70B46024641464846BDE859
:10034000F08B13B5084318BF4FF0FF300146AFF3F1
:100350000080BDE81C407047704770477047754685
:1003600000F02CF8AE4605006946534620F0070021
:10037000854618B020B5FFF765FFBDE820404FF077
:1003800000064FF000074FF000084FF0000BAC469E
:10039000ACE8C009ACE8C009ACE8C009ACE8C009E9
:1003A00021F007018D46704710B50446AFF3008079
:1003B0002046BDE81040FFF730BF000000487047FE
:1003C0001000002001491820ABBEFEE72600020005
:1003D00070470000FEE7000040F2721CC2F2000C01
:1003E0009CF8003040F27802C2F20002D05411783A
:1003F000581C55298CF8000011D1C0B20B2838BF09
:10040000704750785038C0B2092808D806A151F872
:100410002000D2F80210D2F80620C0E90012002015
:100420008CF80000704700BFD00400208804002032
:10043000A804002090040020B804002098040020A4
:10044000C0040020B0040020A0040020C804002044
:1004500070470000EFF3108072B600BFFEE70000A7
:1004600070B5866D044600F043F994F83510022902
:100470002ED105462068216C026822F01602026027
:10048000426922F08002426109B9A16C19B1016888
:1004900021F008010160016821F00101016000689C
:1004A000C00708D000F024F9401B052818D82068A0
:1004B0000068C007F6D1E06D3F2101FA00F0B0609E
:1004C000012084F835000020002184F8341070BD2C
:1004D000802060650120002184F8341070BD00BFC9
:1004E00020206065032084F83500002184F8341052
:1004F00070BD000090F83510022909D1052180F85F
:1005000035100068016821F001010160002070478A
:1005100080214165012070472DE9F04F82B000F144
:100520003E4241F6004502F1FF77C4F2020508227F
:100530004FEAB726A84208BF0722072E38BF4FEA66
:10054000B7224FF0010A002400274FF00008009264
:1005500008E000BF023708F10108202F04F104046D
:1005600000F0B4800E680AFA08F916EA090FF1D013
:10057000D1F804A00AF0030BABF10106012E17D845
:100580000322866802FA07FECA6826EA0E06BA4007
:10059000324382604268CAF3001522EA090205FA72
:1005A00008F54FEA480C6FEA0E062A4342600BE05A
:1005B0000322BA40D643BBF1030FBC4604D1BC466C
:1005C0004FF0030B22E000BFC2688D68324005FA8D
:1005D0000CF52A43BBF1020FC26017D16FF0030282
:1005E00002EA5802024404F01C030F25D2F820E06E
:1005F00005FA03FA0D692EEA0A0E05FA03F343EA37
:100600000E031362D1F804A00AF0030B02680BFA80
:100610000CF332401A431AF4403F4FF0010A0260D3
:1006200098D0002243F644030192C4F202031A68F0
:1006300043F6004E42F480421A601A68C4F2010E7A
:1006400002F480420192019A28F003024FF6084C0E
:100650007244CFF6FF7C52F80C3004F00C060F25E4
:10066000B540AB43009D05FA06F6334342F80C3023
:10067000DEF808204B6842EA090643F60C4CDD021E
:1006800058BF22EA0906CEF80860C4F2010CDCF873
:1006900000209D0242EA090658BF22EA0906CCF86A
:1006A0000060DEF804209D0342EA090658BF22EAF2
:1006B0000906CEF80460DEF80020DB0342EA0906F2
:1006C00058BF22EA0906CEF8006043E702B0BDE851
:1006D000F08F0000426902EA0103914341EA0341BD
:1006E00081617047002A08BF0904816170470000DA
:1006F00040F2D840C2F200000068704740F20000AB
:1007000040F2D841C2F20000C2F2000100780A684B
:10071000104408607047000080B543F60040C4F202
:100720000200016841F400710160016841F48061D8
:100730000160016841F480710160032000F084F8D9
:100740000F2000F005F800F027F8002080BD000021
:1007500070B540F20006C2F2000640F2080132789D
:10076000C2F200014FF47A730968B3FBF2F2044657
:10077000B1FBF2F1084600F04DFB0F2C4FF00105E4
:1007800008D838B94FF0FF3021460022002500F08C
:100790002FF87460284670BD82B0002043F64001F7
:1007A0000190C4F202014A6842F480424A604A68F9
:1007B00002F480420192019A0090086840F0805053
:1007C0000860086800F080500090009802B0704700
:1007D000002848BF704700F01F01012202FA01F112
:1007E0004EF200124009CEF2000242F8201070478B
:1007F00010B54EF60C5CCEF2000CDCF80030C3F302
:10080000022E8EF00704042C28BF0424BEF103033B
:100810004FF0FF3E0EFA04F438BF0023A143994085
:100820000EFA03F39A43114300F00F02043A6244B4
:1008300009010C3200F16043B0F1FF3FC8BF03F57E
:100840006442117010BD00004EF60C51CEF2000152
:100850000A684FF6FF031A4060F30A2242F08060F4
:1008600040F0FD70086070472DE9F041002800F06D
:100870008B8043F60808C4F202080446D8F8F8034F
:100880000D4600F00700884207D288F8F853D8F8E0
:10089000F80300F00700A84276D12068810717D539
:1008A000410705D5D8F8001041F4E051C8F8001010
:1008B000010705D5D8F8001041F46041C8F80010D0
:1008C000D8F80010A26821F0F0011143C8F8001018
:1008D000C0073FD1D8F8F80300F00700A84207D9B5
:1008E00088F8F853D8F8F80300F00700A8424BD175
:1008F0002068410707D5D8F80010E26821F4E051DC
:100900001143C8F80010000708D5D8F80000216985
:1009100020F4604040EAC100C8F8000000F07CF814
:10092000D8F8001042F65052C1F30311C0F600028D
:10093000515C40F2080220FA01F140F20400C2F2D8
:1009400000000068C2F200021160FFF701FF002002
:10095000BDE8F0816068811E022907D258F8081CA2
:1009600089015CBF0120BDE8F08111E0012807D1B9
:1009700058F8081C89035CBF0120BDE8F08107E03E
:1009800058F8081C890703D40120BDE8F08100BF96
:10099000D8F8001021F003010843C8F80000FFF761
:1009A000A7FE064641F28837D8F80000616800F0DB
:1009B0000C00B0EB810F8DD0FFF79AFE801BB84280
:1009C000F2D90320BDE8F08140F2080043F60801A7
:1009D000C2F20000C4F202010068096842F66052E7
:1009E000C1F38221C0F60002515CC840704700008C
:1009F00040F2080043F60801C2F20000C4F202010E
:100A00000068096842F66052C1F34231C0F6000244
:100A1000515CC8407047000010B543F60404C4F2AE
:100A20000204606800F00C0142F200400829C0F2A4
:100A3000F40007D0042918BF10BD41F20020C0F215
:100A40007A0010BD216801F03F0221682368490245
:100A5000C3F3881106D4A1FB00010023FFF704FCB7
:100A600007E000BF41F20020C0F27A004843B0FB2B
:100A7000F2F021680222C1F3014102EB4101B0FB17
:100A8000F1F010BD2DE9F04182B000286AD0044693
:100A9000007843F60006C007C4F202060BD0B06827
:100AA00000F00C00042840F0A1803068800302D5DB
:100AB0006068002856D0207880071AD5B06810F0FA
:100AC0000C0F09D0B06800F00C00082840F0A88096
:100AD0007068400200F1A4803068800702D5E068A9
:100AE00001283FD13068216920F0F80040EAC100B8
:100AF00030602078000739D4207840074ED4A569AB
:100B00005DB3B06800F00C00082840F0BD80012DF6
:100B100028D07068E16900F480028A4222D1216AFB
:100B200000F03F028A421DD147F6C071626A01405F
:100B3000B1EB821F16D1A26A0023CFF6FF7303EB3D
:100B4000C23200F440316FF30F0291420AD1E16AE0
:100B500000F07060B0EB016F04D1002002B0BDE87E
:100B6000F08100BF012002B0BDE8F081606900287B
:100B700040F20000C4F2472076D00121C0F8801E68
:100B8000FFF7B6FD054600BF706F8007B4D4FFF7CE
:100B9000AFFD401B0228F7D9DDE000BF306C10F03C
:100BA00080580AD100200190306C40F080503064B1
:100BB000306C00F080500190019847F20007C4F2B9
:100BC00000073868C00541D4386840F48070386048
:100BD000FFF78EFD054600BF3868C00536D4FFF725
:100BE00087FD401B0228F7D9B5E000BFB06800F0D0
:100BF0000C00082803D1706840023FF556AF6068CA
:100C0000B0F5803F07D0B0F5A02F40F08D80306860
:100C100040F480203060306840F4803030608DE0F7
:100C2000E068002852D00020C4F247200121016072
:100C3000FFF75EFD054600BF306880073FF552AF05
:100C4000FFF756FD401B0228F6D984E0A068012872
:100C500005D005284ED1306F40F004003067306F6A
:100C600040F0010030674FE00021C0F8801EFFF720
:100C70003FFD0546706F80077FF53EAFFFF738FDFB
:100C8000401B0228F6D966E00027C4F2472700205F
:100C90003866FFF72DFD022D05460BD13068800127
:100CA0005ED5FFF725FD401B02284FF00300F5D964
:100CB00054E700BF306880017FF54FAFFFF718FDA4
:100CC000401B02284FF00300F4D947E70020C4F28C
:100CD000472000210160FFF70BFD054630688007C3
:100CE0007FF507AFFFF704FD401B02284FF003001C
:100CF000F4D933E7316F002821F001013167316FFA
:100D000021F0040131674DD0FFF7F2FC054641F2B6
:100D1000883700BF306F800756D4FFF7E9FC401BCF
:100D2000B842F7D917E000BF3168002821F48031BC
:100D30003160316821F4802131604FD0FFF7D8FC59
:100D4000054600BF306880033FF5B5AEFFF7D0FC25
:100D5000401B6428F6D9032002B0BDE8F08100BF33
:100D600004F11C052FCD08430021CFF6FF7140EAA6
:100D7000821001EBC3316FF30F0140EA05600843B5
:100D8000706001203866FFF7B3FC044630688001CC
:100D90003FF5E3AEFFF7ACFC001B02284FF0030069
:100DA000F4D9DBE6FFF7A4FC054641F2883700BF23
:100DB000306F800708D5FFF79BFC401BB8424FF00F
:100DC0000300F5D9CAE600BFB8F1000F7FF497AE73
:100DD000306C20F08050306491E600BFFFF788FC53
:100DE000054600BF306880037FF565AEFFF780FCE5
:100DF000401B64284FF00300F4D9AFE64EF2100117
:100E0000CEF200010A68042822F0040208BF04326E
:100E10000A607047411E0020B0EB116F1CBF01201B
:100E200070474EF21002CEF2000251604EF623518E
:100E3000CEF20001F0230B70072190601160704723
:100E4000B0B590F83C20012A04BF0220B0BD01F1EA
:100E500008053CCDD1E900CE23F47C5322F4705236
:100E60001A432EF4F0431A432CF4E0431A4324F4BB
:100E7000C0431A432A43C96922F4804203681143DC
:100E80005964002180F83C100846B0BD10B590F8B8
:100E90003C20012A4FF0020251D080F83D20026828
:100EA000D2F804E0D2F808C00C682EF07003234397
:100EB00041F2FF74C4F20004A24253600EDC40F21F
:100EC000FF73C4F200039A4216DCB2F1804F2BD0BC
:100ED00040F20043C4F2000324E000BF40F2FF33BD
:100EE000C4F201039A4213DC41F60003C4F200038A
:100EF0009A4219D0002313E040F60003C4F2000325
:100F00009A4211D040F60043C4F200030AE000BF49
:100F100044F20003C4F201039A4205D040F20043B8
:100F2000C4F201039A4204D149682CF080031943AA
:100F300091600121002280F83D1080F83C2010468D
:100F400010BD0000002804BF0120704710B5044602
:100F500090F83D0028B9002084F83C00204600F0BD
:100F60001FF8022084F83D002068211D01F024FCB8
:100F7000012084F8460084F83E0084F83F0084F89D
:100F8000400084F8410084F8420084F8430084F86B
:100F9000440084F8450084F83D00002010BD0000A6
:100FA00082B0006840F20041C4F20101884215D0CD
:100FB0000021C4F2010188421FD10020019043F6B4
:100FC0004400C4F20200016841F0010101600068C0
:100FD00000F001000190019802B0704700200090DD
:100FE00043F64400C4F20200016841F002010160CE
:100FF000006800F002000090009802B07047000006
:1010000080B590F83C20012A4FF0020200F0C28027
:1010100080F83D20D0F800C04FF67772DCF8083039
:1010200023EA0202CCF808200B684F2B28DC1F2B88
:1010300044DD202B45D0302B43D0402B40F0AC80FA
:10104000D1F804E0C968DCF82030DCF8202022F078
:101050000102CCF82020DCF8182022F0F00242EA4D
:10106000011123F00A0242EA0E02CCF81810CCF863
:101070002020DCF8081041F0470121F0300180E029
:101080006F2B27DDB3F5005F48D0B3F5805F7AD0D2
:10109000702B40F08180D1E901E3C968DCF80820B9
:1010A00043EA0E0322F47F4243EA01211143CCF8C4
:1010B0000810DCF8081041F0770162E00BB1102B4A
:1010C0006AD1DCF8081021F07001194341F00701E2
:1010D00057E000BF502B35D0602B5DD1D1F804E034
:1010E000C968DCF8203023F01003CCF82030DCF89D
:1010F0001830DCF8202023F4704322F0A00243EAE9
:10110000013142EA0E12CCF81810CCF82020DCF89D
:10111000081041F0670121F0100132E0D1E901E34C
:10112000C968DCF8082043EA0E0322F47F4243EA50
:1011300001211143CCF80810DCF8081041F480417B
:101140001FE000BFD1F804E0C968DCF82030DCF80B
:10115000202022F00102CCF82020DCF8182022F018
:10116000F00242EA011123F00A0242EA0E02CCF830
:101170001810CCF82020DCF8081041F0570121F0BD
:101180002001CCF808100022012180F83D10002138
:1011900080F83C10104680BD0122F5E7002804BF0E
:1011A000012070472DE9F047044690F83D000D46B8
:1011B00028B9002084F83C00204600F049F80220BD
:1011C00084F83D00206844F2070281689143816001
:1011D000211D01F0F1FA20684FF6FF7881688269DD
:1011E000D0F820C0D5E9003ED5E9026A43EA0109FA
:1011F000AB6922EA080246EA03234FF6FC46B343F2
:10120000D5E9076742EA0A0229691A4342EA062237
:1012100042EA01112CF0AA026B6942EA0E0241EA8D
:10122000073142EA0312C0F808908161026201208E
:1012300084F8460084F83E0084F83F0084F84200B9
:1012400084F8430084F83D000020BDE8F0870000EA
:10125000F0B587B00068002100F140404FEAB020AF
:1012600003280691CDE904110391029100F2A980AF
:10127000DFE800F0023C5880002543F6300001957D
:10128000C4F202000169002441F001010161016919
:10129000C4F2020401F00101019101990195016874
:1012A000022641F0010101600168012701F00101FE
:1012B000019101990195016841F002010160006806
:1012C00002A900F00200019001982020029020461F
:1012D0000396CDE904750697FFF71EF9082002A9C9
:1012E000C1C1CDE9055704F5806067E0002043F6F1
:1012F00030010190C4F202010A6942F002020A615F
:101300000A6902F002020192019A01900A6842F011
:1013100001020A60096801F0010101910199C021EF
:1013200042E000BF002043F630010190C4F2020108
:101330000A6942F004020A610A6902F00402019299
:10134000019A01900A6842F008020A6009680122C5
:1013500001F00801019101994FF44051CDE90420B9
:10136000002002910221C4F202000391069100F5CF
:10137000406023E0002043F630010190C4F20201F6
:101380000A6942F008020A610A6902F00802019241
:10139000019A01900A6842F001020A60096801F0AE
:1013A0000101019101990321059000200291022180
:1013B0000122C4F2020003910492069102A9FFF7F0
:1013C000ABF807B0F0BD00002DE9F04190F83C30DB
:1013D000012B04BF0220BDE8F0814FEAB202032ACC
:1013E00000F2FC80DFE802F0023E7EBE036840F2BD
:1013F00000471A6A43F4806522F001021A621C6AEF
:101400001A46D3F804E052F818CF8E6824F002048C
:10141000C4F20107BD4244EA060405D1CE6824F0B7
:101420000C0426F0040634430E68BD4207D1D1E90E
:1014300005572EF4407E45EA0E0545EA070E2CF0CE
:1014400073073743C3F804E09F614F6809695F631E
:101450001C629F6947F008079F619F6927F0040796
:101460009F61B1E0036840F200481A6A43F4806566
:1014700022F010021A621C6A1A46D3F804E052F8ED
:1014800018CF8F6824F02004C4F20108454544EACF
:10149000071407D1CF686FF0400624F0C00406EAB5
:1014A000071634430F68454507D1D1E905562EF498
:1014B000406E4EEA850545EA860E2CF4E64646EA7D
:1014C0000727C3F804E09F614F6809699F631C62A6
:1014D0009F6947F400679F619F6927F480679F6158
:1014E00071E000BF036840F200481A6A43F4806567
:1014F00022F480721A621C6A1A46D3F804E052F889
:101500001CCF8F6824F40074C4F20108454544EAF6
:10151000072408D1CF6840F2FF463F0224F440641C
:1015200027EA060634430F68454507D1D1E9055639
:101530002EF4405E4EEA051545EA061E2CF07306B1
:101540003743C3F804E0DF614F680969DF631C6259
:10155000DF6947F00807DF61DF6927F00407DF6113
:1015600032E000BF036840F200451A6A43F4806726
:1015700022F480521A621A46D3F820C05C6852F8EE
:101580001CEFD1F800808E68C4F20105AF4204D18F
:101590004D6924F4804444EA85142CF4005747EA4A
:1015A00006372EF4E64646EA08265C60DE614E68A1
:1015B00009691E641F62DF6947F40067DF61DF6944
:1015C00027F48067DF610902136819431160002165
:1015D000002280F83C200846BDE8F081012100226D
:1015E00080F83C200846BDE8F0810000002804BFD8
:1015F0000120704710B5044690F83D0028B900203E
:1016000084F83C00204600F01FF8022084F83D00DA
:101610002068211D01F0D0F8012084F8460084F8EC
:101620003E0084F83F0084F8400084F8410084F8CC
:10163000420084F8430084F8440084F8450084F8AC
:101640003D00002010BD0000704700007047000002
:1016500070470000B0B582B0044600680168C368F6
:10166000426901F02F05202D03F0200506D12DB190
:10167000204602B0BDE8B04001F042B95FEA017C0B
:101680001EBF02F0010E03F4907212EB0E0255D150
:10169000226B012A05D111F0100218BF13F01002BD
:1016A00036D10A0622D513F080021FD094F83D10DF
:1016B000212941D1A168B1F5805F03D121690029B9
:1016C00000F06C82216A4A1C226209784160E18C38
:1016D00001390A04E1842FD1C16821F08001C16081
:1016E000C16841F04001C16002B0B0BD490623D5D8
:1016F00013F0400120D0C16821F04001C1602021D9
:10170000204684F83D1002B0BDE8B04000F01CBC9B
:10171000002101910168019141680191019941699C
:10172000490600F18B80A18DE28DE38D002B1CBF5B
:10173000891A5FEA01420CD102B0B0BDCA0718BFD6
:1017400013F4807240F032814A0700F135813AE1AA
:10175000206850E8030F226820F4907042E80303E9
:10176000DBB1206850E8030F226820F4907042E853
:10177000030393B1206850E8030F226820F49070AF
:1017800042E803034BB1206850E8030F226820F4BD
:10179000907042E80303002BDAD1206850E8050F6F
:1017A000226820F0010042E80503DBB1206850E820
:1017B000050F226820F0010042E8050393B120687C
:1017C00050E8050F226820F0010042E805034BB104
:1017D000206850E8050F226820F0010042E8050368
:1017E000002BDAD1202084F83E00002020632068FE
:1017F00050E8030F226820F0100042E80303DBB139
:10180000206850E8030F226820F0100042E803032C
:1018100093B1206850E8030F226820F0100042E8DE
:1018200003034BB1206850E8030F226820F010003A
:1018300042E80303002BDAD189B2B0E0A26B116851
:101840004B689DB2002D3FF477AFA18D8D42BFF460
:1018500073AFE385D269B2F5807F00F09D8050E8D8
:10186000030F216820F4807041E80302E2B1206890
:1018700050E8030F216820F4807041E803029AB118
:10188000206850E8030F216820F4807041E80302CB
:1018900052B1206850E8030F216820F4807041E8BD
:1018A00003020AB12068DAE7206850E8050F2168D2
:1018B00020F0010041E80502DAB1206850E8050F88
:1018C000216820F0010041E8050292B1206850E84B
:1018D000050F216820F0010041E805024AB12068A7
:1018E00050E8050F216820F0010041E80502002AB8
:1018F000DAD1206850E8050F216820F0400041E867
:101900000502DAB1206850E8050F216820F0400098
:1019100041E8050292B1206850E8050F216820F0E7
:10192000400041E805024AB1206850E8050F2168EF
:1019300020F0400041E80502002ADAD1202084F896
:101940003E0000202063206850E8030F216820F04B
:10195000100041E80302DAB1206850E8030F216863
:1019600020F0100041E8030292B1206850E8030F14
:10197000216820F0100041E803024AB1206850E8D5
:10198000030F216820F0100041E80302002ADAD199
:10199000A06BFEF765FDA18DE08D081A81B220468F
:1019A00002B0BDE8B040FFF751BE00BF226C42F06C
:1019B000010222644A0706D5BEF1000F03D0226C53
:1019C00042F0020222648A0706D5BEF1000F03D05E
:1019D000226C42F004022264BCF1000F06D555EAE5
:1019E0000E0203D0226C42F008022264226C002A0C
:1019F0003FF4A2AE11F0200118BF002D03D0204605
:101A000000F07EFF20684169226C01F0400102F085
:101A10000802891800F0A28050E8030F216820F422
:101A2000907041E80302C2B3206850E8030F2168B8
:101A300020F4907041E803027AB3206850E8030F65
:101A4000216820F4907041E8030232B3206850E826
:101A5000030F216820F4907041E80302EAB1206886
:101A6000DAE700BF206850E8050F216820F0010088
:101A700041E80502DAB1206850E8050F216820F03E
:101A8000010041E8050292B1206850E8050F216885
:101A900020F0010041E805024AB1206850E8050F36
:101AA000216820F0010041E80502002ADAD1206B0C
:101AB000012824D1206850E8030F216820F010008D
:101AC00041E80302DAB1206850E8030F216820F0F2
:101AD000100041E8030292B1206850E8030F21682A
:101AE00020F0100041E803024AB1206850E8030FDB
:101AF000216820F0100041E80302002ADAD12020FA
:101B000084F83E00002020632068416949063FD5E3
:101B100050E8050F216820F0400041E805022AB393
:101B2000206850E8050F216820F0400041E80502D8
:101B3000E2B1206850E8050F216820F0400041E83C
:101B400005029AB1206850E8050F216820F0400096
:101B500041E8050252B12068DAE700BF2046FFF7EE
:101B600077FD0020206402B0B0BD00BFA06B78B14B
:101B700042F6F501C0F600010165FEF7BBFC002846
:101B80003FF4DAADA06B016D02B0BDE8B04008478C
:101B9000204602B0BDE8B040FFF75ABD216A31F8D7
:101BA000022B6FF35F224260216290E5002804BFA0
:101BB0000120704710B5044690F83D0028B9002078
:101BC00084F83C00204600F021F8242084F83D00F1
:101BD0002068C16821F40051C160204600F010FF68
:101BE0002068016921F490410161416921F02A01D5
:101BF0004161C16841F40051C1600020202120648E
:101C000084F83D1084F83E1010BD00002DE9F0432B
:101C100087B0006844F6FF31C4F2000188424FF0FB
:101C200000010691CDE90411CDE9021142DD41F236
:101C30000001C4F20101884278D045F20001C4F2EB
:101C40000001884200F0A68044F60041C4F2000181
:101C5000884240F00F81002043F630010190C4F229
:101C600002010A6942F400220A610A6902F40022B0
:101C70000192019A01900A6842F004020A60096820
:101C800001F00401019101994FF440610291022198
:101C9000CDE9031003200590082006900020C4F22F
:101CA000020000F5006002A9FEF736FC07B0BDE8AF
:101CB000F08300BF44F20041C4F20001884200F00A
:101CC000B18044F60001C4F20001884240F0D280A5
:101CD000002043F630010190C4F202010A6942F487
:101CE00080220A610A6902F480220192019A01901D
:101CF0000A6842F002020A60096801F002010191DB
:101D000001994FF4406102910221CDE903100320B3
:101D10000590072006900020C4F2020000F58060C4
:101D200002A9FEF7F9FB07B0BDE8F083002043F6F7
:101D300030010190C4F202014A6942F010024A6186
:101D40004A6902F010020192019A01900A6842F079
:101D500001020A60096801F00101019101994FF443
:101D6000C06102910221CDE90310032005900720F4
:101D700006900020C4F2020002A9FEF7CDFB252048
:101D800001210022FEF734FD2520FEF721FD07B0DA
:101D9000BDE8F083002543F630000195C4F202004F
:101DA0000169002741F4801101610169C4F2020751
:101DB00001F48011019101990195016802AC41F093
:101DC0000401016001684FF0020801F00401019173
:101DD0000199019501684FF0030941F00801016084
:101DE0000068082600F00800019001984FF4805028
:101DF000029007F500602146CDE90385CDF81490E7
:101E00000696FEF789FB0420CDE90208CDE90459C6
:101E1000069607F540602146FEF77EFB07B0BDE859
:101E2000F08300BF002043F630010190C4F20201AC
:101E30000A6942F400320A610A6902F4003201922E
:101E4000019A01900A6842F001020A60096801F0F3
:101E50000101019101990C2102910221CDE90310A8
:101E600003200590072006900020C4F2020002A97A
:101E7000FEF752FB07B0BDE8F083000090F83E305B
:101E8000202B0BD100294FF0010318BF002A01D1EC
:101E90001846704790F83C30012B01D10220704762
:101EA00000230363816222218285C285036480F856
:101EB0003E100269016880F83C301AB1C86840F4ED
:101EC0008070C8604869002340F001004861C8681C
:101ED00040F02000C86018467047000040F23031E2
:101EE000C2F20001884218BF704710B540F2781462
:101EF000C2F200042078FEF76FFA40F23030C2F2EE
:101F0000000021460122FFF7B9FF40F29040C2F2E3
:101F10000000B0F904009FED0A1A00EE100AB8EEB6
:101F2000C00A9FED082A20EE010A40F2DC4020EEB4
:101F3000020AC2F2000080ED000ABDE810407047BE
:101F400000000038000034437047000010B540F234
:101F5000700440F23030C2F20004C2F200002146A8
:101F60000122FFF78BFF40F29040C2F20000B0F96F
:101F700004009FED071A00EE100AB8EEC00A9FEDAC
:101F8000052A20EE010A20EE020A84ED010A10BDA6
:101F90000000003800003443FEE7000040F27412F5
:101FA000C2F200021168013181421160B8BF70476E
:101FB00040F600000023C4F202004FF40051136009
:101FC000FEF788BB70B586B0002643F63000059654
:101FD0000096C4F20200016840F6000441F00401DA
:101FE00001600168C4F2020401F00401009100994B
:101FF00000960168002241F08001016001684FF401
:10200000005501F08001009100990096016841F0AF
:1020100001010160016801F0010100910099009641
:10202000016841F010010160016801F010010091A8
:1020300000990096016841F002010160016801F019
:102040000201009100990096016841F008010160C9
:1020500000684FF4005100F00800009000982046FE
:10206000FEF740FB0195012001ADCDE902062046B7
:1020700029460496FEF750FA4FF40040CDE90106D8
:10208000A4F5006029460396FEF746FA06B070BD37
:1020900070B59CB0002540F28010C4F2010500210B
:1020A000C2F20000012242F2CF031591CDE91311D3
:1020B0001191CDE90F11CDE90D11CDE90B11CDE94C
:1020C0000911CDE90711CDE90511CDE90311CDE9DC
:1020D0000111C0E90052C0E90213C0E90411816195
:1020E000FEF730FF002818BFFEF7B4F94FF4805018
:1020F000129040F28010C2F2000012A9FEF780FF99
:10210000002818BFFEF7A6F940F28010C2F20000C6
:10211000FFF76CFA002818BFFEF79CF940F2801018
:102120000024C2F2000010A9CDE91044FEF7AEFE73
:10213000002818BFFEF78EF96020CDE9090440F2AF
:102140008010C2F2000009A90022CDE90B44CDE9BC
:102150000D440F94FFF738F9002818BFFEF77AF9FD
:1021600040F28010C2F2000009A90422FFF72CF906
:10217000002818BFFEF76EF940F28010C2F200008E
:1021800009A90822FFF720F9002818BFFEF762F915
:1021900040F28010C2F2000009A90C22FFF714F9E6
:1021A000002818BFFEF756F940F280144FF4005093
:1021B000C2F200040026069001A920460596CDE94A
:1021C0000366CDE901660896FEF73AFE002818BFBF
:1021D000FEF740F9206840F20041C4F20101884254
:1021E000179617D0A84233D10020169043F630003E
:1021F000C4F20200016841F0100101600068012191
:1022000000F01000169016984FF4D440179005F582
:10221000883014E00020169043F63000C4F202002B
:10222000016841F0040101600068032100F004002E
:10223000169016984FF47070179005F584300222AE
:10224000189200221B9117A9CDE91922FEF764F913
:102250001CB070BD80B58CB040F2C8100021C2F235
:1022600000004FF080424FF6FF73C0E900210122C9
:10227000CDE90011C0E9021301618161CDE90321BB
:10228000CDE90521CDE90711CDE909210B9103A97C
:10229000FEF784FF002818BFFEF7DCF840F2C810F4
:1022A000C2F200006946FEF7F1FD002818BFFEF7F4
:1022B000D1F80CB080BD000080B58CB040F2102089
:1022C00040F200420021C2F20000C4F200024FF6C8
:1022D000FF73C0E900210122CDE90011C0E902131A
:1022E00001618161CDE90321CDE90521CDE9071126
:1022F000CDE909210B9103A9FEF750FF002818BF73
:10230000FEF7A8F840F21020C2F200006946FEF77E
:10231000BDFD002818BFFEF79DF80CB080BD000081
:1023200080B58CB040F2582040F600020021C2F285
:102330000000C4F200024FF6FF73C0E90021012241
:10234000CDE90011C0E9021301618161CDE90321EA
:10235000CDE90521CDE90711CDE909210B9103A9AB
:10236000FEF71CFF002818BFFEF774F840F2582053
:10237000C2F200006946FEF789FD002818BFFEF78B
:1023800069F80CB080BD000080B58CB040F2A02090
:1023900040F600420021C2F20000C4F200024FF0F9
:1023A000FF33C0E900210122CDE90011C0E9021389
:1023B00001618161CDE90321CDE90521CDE9071155
:1023C000CDE909210B9103A9FEF7E8FE002818BF0B
:1023D000FEF740F840F2A020C2F200006946FEF786
:1023E00055FD002818BFFEF735F80CB080BD000081
:1023F00070B59CB040F2004540F2E820C4F20105FF
:102400000021C2F20000012242F2CF031591CDE972
:1024100013111191CDE90F11CDE90D11CDE90B117A
:10242000CDE90911CDE90711CDE90511CDE9031178
:10243000CDE90111C0E90052C0E90213C0E904115D
:102440008161FEF77FFD002818BFFEF703F84FF407
:102450008050129040F2E820C2F2000012A9FEF76C
:10246000CFFD002818BFFDF7F5FF40F2E820C2F2CB
:102470000000FFF7BBF8002818BFFDF7EBFF40F2A4
:10248000E8200024C2F2000010A9CDE91044FEF7B4
:10249000FDFC002818BFFDF7DDFF6020CDE9090431
:1024A00040F2E820C2F2000009A90022CDE90B4465
:1024B000CDE90D440F94FEF787FF002818BFFDF704
:1024C000C9FF40F2E820C2F2000009A90422FEF789
:1024D0007BFF002818BFFDF7BDFF40F2E820C2F2E5
:1024E000000009A90822FEF76FFF002818BFFDF7BA
:1024F000B1FF40F2E820C2F2000009A90C22FEF769
:1025000063FF002818BFFDF7A5FF40F2E8244FF451
:102510000050C2F200040026069001A9204605964C
:10252000CDE90366CDE901660896FEF789FC00282F
:1025300018BFFDF78FFF20681796A8421AD0002118
:10254000C4F20101884233D10020169043F63000D6
:10255000C4F20200016841F010010160006801212D
:1025600000F01000169016984FF4D440179005F51F
:10257000863014E00020169043F63000C4F20200CA
:10258000016841F0040101600068032100F00400CB
:10259000169016984FF47070179005F5823002224D
:1025A000189200221B9117A9CDE91922FDF7B4FF5B
:1025B0001CB070BD80B540F2FC3044F60041C2F260
:1025C0000000C4F2000100234FF00C0C4FF4E13284
:1025D00080E80E00C0E90333C0E905C3C361FFF71B
:1025E000E5FA002808BF80BDBDE88040FDF732BF96
:1025F00080B540F2404045F20001C2F20000C4F252
:10260000000100234FF00C0C4FF4E13280E80E0083
:10261000C0E90333C0E905C3C361FFF7C7FA002867
:1026200008BF80BDBDE88040FDF714BF80B540F213
:10263000303041F20001C2F20000C4F20101002377
:102640004FF00C0C4FF4E13280E80E00C0E9033388
:10265000C0E905C3C361FFF7A9FA002808BF80BD20
:10266000BDE88040FDF7F6BE80B540F2743044F21C
:102670000041C2F20000C4F2000100234FF00C0C34
:102680004FF4E13280E80E00C0E90333C0E905C32E
:10269000C361FFF78BFA002808BF80BDBDE880400A
:1026A000FDF7D8BE80B540F2B83044F60001C2F262
:1026B0000000C4F2000100234FF00C0C4FF4E13293
:1026C00080E80E00C0E90333C0E905C3C361FFF72A
:1026D0006DFA002808BF80BDBDE88040FDF7BABE96
:1026E000FEE70000FEE700007047000070470000B2
:1026F000FEF704B8B0B592B0002443F64000CDE92F
:102700000A44CDE908440594CDE90344CDE90144E8
:102710000094C4F202000168022541F0805101607A
:10272000006800F080500090009847F2000000948C
:10273000C4F20000016841F4804101600068A821F2
:1027400000F4804000900098012006904FF4803003
:1027500007904FF480000D9004200E90119006A871
:102760000C95CDE90F15FEF78DF928B1EFF3108028
:1027700072B600BFFEE700BF0F20CDE901054FF4A0
:10278000A05004904FF48050059001A805210394B7
:10279000FEF76AF820B1EFF3108072B6FEE700BFD3
:1027A00012B0B0BD4EF68850CEF20000016841F480
:1027B000700101607047000010B540F6FF3E0368ED
:1027C000C4F2000E40F2004C7045C4F2010C27DC4C
:1027D000B0F1804F31D040F20042C4F2000290428A
:1027E0002BD040F60002C4F20002904225D041F600
:1027F000FF72C4F20002904229DC70453CDCB0F16B
:10280000804F5FD040F20042C4F20002904259D0A3
:1028100040F60002C4F20002904253D056E000BFDE
:1028200040F60042C4F20002904206D0604504D057
:102830000022C4F201029042D9D14A6823F0700309
:10284000134341F6FF72C4F200029042D5DD43F615
:10285000FF72C4F20102904222DC42F20002C4F292
:10286000000290422ED00022C4F20102904229D0F0
:10287000604527D02AE000BF40F60042C4F20002C3
:1028800090421FD041F60002C4F20002904219D0DB
:1028900041F60042C4F20002904213D016E000BF9D
:1028A00044F20002C4F2010290420BD044F600024E
:1028B000C4F20102904205D044F20042C4F2010287
:1028C000904203D1CA6823F44073134323F080027B
:1028D0004B69D1F800E08C681A430260C46240F48E
:1028E0008062C0F828E0624504BF096901630121E4
:1028F000416110BD806B0021C185C184FEF7A8BE77
:1029000081B090F83E10222920D18368B3F5805F12
:1029100008D10169002965D000F128010A6803681F
:102920005B680AE0014651F8282F13B90369002BB0
:10293000F5D003685B6803F07F0313700A68013207
:102940000A60C18D01390A04C18501D001B0704708
:102950000168CA6822F02002CA60CA6822F4807244
:10296000CA604A6922F001024A61202280F83E20B2
:10297000026B012A40D10022026300BF51E8031F0D
:10298000026821F0100142E803130168DBB151E84D
:10299000031F026821F0100142E80313016893B19C
:1029A00051E8031F026821F0100142E80313016897
:1029B0004BB151E8031F026821F0100142E80313F4
:1029C0000168002BDAD10A68D20606D500220092EF
:1029D0000A680092496800910099818D01B0FEF764
:1029E00035BE00BF0168826A49686FF35F2122F833
:1029F000021B8262A5E700BF01B0FFF76FBA0000BB
:102A000010B504460068D4E902C22369016921F4C3
:102A1000405111430161626943EA0C01E3691143CA
:102A2000C268194349F20C639A431143C16041697A
:102A3000A26921F4407141F20043114340F48062E5
:102A4000C4F201039A42416102D1FDF7D1FF01E0D6
:102A5000FDF7BAFFE16963681922B1F5004FA0FBE9
:102A600002011FD15A00DB0FFDF7FEFB48F21F5198
:102A7000C5F2EB11A0FB01235A096FF0630302FBBF
:102A80000300322303EBC000A0FB01014FF4F870F8
:102A900000EA111000EB0210C1F342110844216852
:102AA000886010BD9A009B0FFDF7DEFB48F21F51B6
:102AB000C5F2EB11A0FB01235A096FF0630302FB7F
:102AC0000300322303EB0010A0FB0101F02000EA19
:102AD000511000EB0210C1F34311084421688860D3
:102AE00010BD000040F23030C2F20000FEF7B2BD6F
:102AF000FEE7000010B504460420FEF77FF940F21F
:102B00007C10C2F20000046010BD000070B590B3EC
:102B100040F27C11C2F2000109684FF47A7251430D
:102B20004EF21802431ECEF20002032B00F0030CFB
:102B300022D2BCF1000F1ED052F8040C16680023FC
:102B400008E000BF33445B1BAE4298BF03448B4296
:102B50002E460DD21568AE42F4D11568AE42F1D1C1
:102B60001568AE42EED11568AE42F3D0EAE700BF79
:102B7000BCF1010F78D170BD20F0030E002302E0FC
:102B800004337345D5D052F8040C1568002407E0CF
:102B90002C44A41BB54298BF04448C4235460DD248
:102BA0001668B542F4D11668B542F1D11668B5423F
:102BB000EED11668B542F3D0EAE700BF52F8040C34
:102BC0001568002408E000BF2C44A41BB54298BF40
:102BD00004448C4235460DD21668B542F4D11668CD
:102BE000B542F1D11668B542EED11668B542F3D0C0
:102BF000EAE700BF52F8040C1568002408E000BFA3
:102C00002C44A41BB54298BF04448C4235460DD2D7
:102C10001668B542F4D11668B542F1D11668B542CE
:102C2000EED11668B542F3D0EAE700BF52F8040CC3
:102C3000156800240AE000BF2C44A41BB54298BFCD
:102C400004448C423546BFF49BAF00BF1668B542C2
:102C5000F2D11668B542EFD11668B542ECD11668CC
:102C6000B542F3D0E8E700BF52F8040C1668002321
:102C700008E000BF33445B1BAE4298BF03448B4265
:102C80002E460DD21568AE42F4D11568AE42F1D190
:102C90001568AE42EED11568AE42F3D0EAE700BF48
:102CA000BCF1020F08BF70BD52F8040C1668002377
:102CB0000AE000BF33445B1BAE4298BF03448B4223
:102CC0002E46BFF458AF00BF1568AE42F2D115686A
:102CD000AE42EFD11568AE42ECD11568AE42F3D0EA
:102CE000E8E70000FDF718FDFFF704FDA820FFF757
:102CF00001FFFFF767F9FFF7CBF9FFF7ABFAFFF733
:102D0000DBFAFFF70DFBFFF73FFBFFF771FBFFF768
:102D100051FCFFF76DFCFFF789FCFFF7A5FCFFF7FF
:102D2000C1FCFFF713F900BF0A20FFF737F9322083
:102D3000FFF7ECFEF8E7F1EE100A4FF6FF71C0F274
:102D4000C03120EA010040F04070E1EE100A704707
:102D5000000000000000000001020304060708094B
:102D60000000000001020304882D0008000000207C
:102D700010000000C4010008982D00081000002079
:102D8000D00A0000E001000801000000100000006F
:082D90000024F4000000000023
:040000050800018965
:00000001FF
