:020000040800F2
:10000000B04E0020E9020008651D0008D11A000862
:10001000991C000887050008A528000800000000BA
:10002000000000000000000000000000290200089D
:10003000390600080000000085020008B52300080A
:100040000303000803030008030300080303000878
:100050000303000803030008030300080303000868
:100060000303000803030008030300080303000858
:1000700003030008030300088905000803030008C0
:100080000303000803030008030300080303000838
:100090000303000803030008030300080303000828
:1000A0000303000803030008030300080303000818
:1000B0000303000803030008030300080303000808
:1000C00003030008030300080303000803030008F8
:1000D000030300080303000803030008892800083D
:1000E00003030008030300080303000803030008D8
:1000F0009D2400089124000803030008030300085E
:1001000003030008030300080303000803030008B7
:100110000303000803030008030300088524000804
:100120000303000803030008030300080303000897
:100130000303000803030008030300080303000887
:100140000303000803030008030300080303000877
:100150000303000803030008030300080303000867
:100160000303000803030008030300080303000857
:100170000303000803030008030300080000000055
:10018000030300080303000800F002F800F03CF845
:100190000AA090E8000C82448344AAF10107DA45E2
:1001A00001D100F031F8AFF2090EBAE80F0013F0F8
:1001B000010F18BFFB1A43F001031847B0340000C9
:1001C000D0340000103A24BF78C878C1FAD852075A
:1001D00024BF30C830C144BF04680C6070470000C1
:1001E0000023002400250026103A28BF78C1FBD840
:1001F000520728BF30C148BF0B6070471FB503F0DE
:10020000F9F81FBD10B510BD00F083F91146FFF7D6
:10021000F5FF02F059FB00F0A1F903B4FFF7F2FF7C
:1002200003BC00F0A9F900002C4B19680868B0E87D
:10023000F04F80F30988BFF36F8F4FF0000080F319
:10024000118870470000000008480068006880F3CB
:1002500008884FF0000080F3148862B661B6BFF3DF
:100260004F8FBFF36F8F00DF00BF00BF08ED00E0CE
:10027000DFF80C00016841F470010160704700BFB5
:1002800088ED00E0EFF30980BFF36F8F134B1A681E
:100290001EF0100F08BF20ED108A20E9F04F10600B
:1002A00009B44FF0500080F31188BFF34F8FBFF3B4
:1002B0006F8F02F0D7FE4FF0000080F3118809BC69
:1002C00019680868B0E8F04F1EF0100F08BFB0ECD6
:1002D000108A80F30988BFF36F8F704720000020D9
:1002E000EFF3058070470000094880470948004740
:1002F000FEE7FEE7FEE7FEE7FEE7FEE7FEE7FEE7D6
:10030000FEE7FEE704480549054A064B7047000032
:100310007524000889010008B0420020B04E00207A
:10032000B0460020B046002053EA020C00F069807D
:100330002DE9F04B4FF00006002B1FBFB3FA83F5F9
:1003400003FA05F424FA05F65E4012BF1643B2FA2A
:1003500082F502FA05F4C5F120051EBF22FA05FC5C
:1003600044EA0C04203556EA044C4FEA144418BF02
:10037000641C4FF000084FF00009904271EB030C31
:1003800039D3002919BFB1FA81F701FA07F6B0FA9B
:1003900080F700FA07F6C7F120071EBF20FA07FC16
:1003A00046EA0C062037B6FBF4FCA7EB0507103F26
:1003B00007F01F0BCBF120060CFA0BFB2CFA06F60C
:1003C00044BFB3460026202FA4BF5E464FF0000B6B
:1003D0005BEA060C08BF4FF0010B19EB0B09ABFBF6
:1003E000027C48EB0608C01B06FB02CC0BFB03CCCF
:1003F00071EB0C01C1E70B46024641464846BDE899
:10040000F08B13B54FF000004FF00001AFF3008008
:10041000BDE81C40704710B5203AC0F00B80B1E831
:100420001850203AA0E81850B1E81850A0E8185029
:10043000BFF4F5AF5FEA027C24BFB1E81850A0E832
:10044000185044BF18C918C0BDE810405FEA827C4C
:1004500024BF51F8043B40F8043B08BF7047D20763
:1004600028BF31F8023B48BF11F8012B28BF20F804
:10047000023B48BF00F8012B70474FF000020429EF
:10048000C0F0128010F0030C00F01B80CCF1040CC3
:10049000BCF1020F18BF00F8012BA8BF20F8022BF7
:1004A000A1EB0C0100F00DB85FEAC17C24BF00F89D
:1004B000012B00F8012B48BF00F8012B70474FF0CB
:1004C000000200B5134694469646203922BFA0E8A4
:1004D0000C50A0E80C50B1F12001BFF4F7AF0907B0
:1004E00028BFA0E80C5048BF0CC05DF804EB8900A1
:1004F00028BF40F8042B08BF704748BF20F8022BE4
:1005000011F0804F18BF00F8012B704770477047FB
:100510007047754600F02CF8AE4605006946534614
:1005200020F00700854618B020B5FFF7EBFEBDE8C8
:1005300020404FF000064FF000074FF000084FF04A
:10054000000B21F00701AC46ACE8C009ACE8C009DB
:10055000ACE8C009ACE8C0098D46704710B5044648
:10056000AFF300802046BDE81040FFF756BE000004
:10057000004870474C42002001491820ABBEFEE7FE
:10058000260002007047FEE7014800F0B3B8000003
:10059000D003002001681823CAB2103AB2FBF3F26C
:1005A000054B6FF30901032A9B5CC36500D9091D44
:1005B00081650846704700003834000810B50146D0
:1005C00000208B698A6A4FF0C07453B1B3F5005FA5
:1005D00015D072B1012A0CD0022A0AD0032A09D1FF
:1005E00004E01AB1012A06D0022A03D1C96AC9015E
:1005F00000D5012010BDC96AA142FAD010BD002A61
:10060000F7D0012AF2D0022AF3D0032AF3D010BD8A
:1006100030B50468256825F480252560046863608A
:100620008368402B036803D099600068C26030BDC6
:100630009A600068C16030BD704772B6FEE72DE970
:10064000F0410446876D00F0CDFA064694F8350077
:100650000025022806D08020606584F834500120EF
:10066000BDE8F0812068016821F016010160206872
:10067000416921F080014161206C08B9A06C20B172
:100680002068016821F0080101602068016821F0FC
:10069000010101600CE000F0A5FA801B052807D9D4
:1006A00020206065032084F8350084F83450D7E7B3
:1006B00020680068C007EED194F85C103F208840A5
:1006C000B860012084F8350084F834500020C7E772
:1006D00090F83510022903D0802141650120704730
:1006E000052180F835100068016821F001010160E2
:1006F000002070472DE9F84304464FF00009CDF87B
:10070000009063484FF41651A56D0068B0FBF1F7F7
:100710002E6894F85C10082000FA01F131420FD0E5
:1007200021680A6852070BD50A6822F004020A60A1
:1007300094F85C108840A860606D40F0010060652E
:1007400094F85C104FF0010808FA01F0304208D02C
:1007500021684969090604D5A860606D40F002006F
:10076000606594F85C1004208840304208D021680D
:100770000968890704D5A860606D40F004006065D1
:1007800094F85C1010208840304218D02168096825
:10079000090714D5A86020680168490304D50068DA
:1007A000000308D5A16C07E00168C90503D40168FE
:1007B00021F008010160216C09B12046884794F8B6
:1007C0005C1020208840304231D021680968C90679
:1007D0002DD5A86094F8350005282068016806D05A
:1007E000490347D5006800031DD4616C1CE021F06B
:1007F000160101602068416921F080014161206C8F
:1008000008B9A06C20B12068016821F008010160DE
:1008100094F85C103F208840A86084F8358084F804
:100820003490216D1FE0E16B09B120468847606D6F
:1008300000282BD0606DC00714D0052084F8350047
:100840002068016821F0010101600098401C0090BF
:10085000B84203D820680068C007F6D184F8358014
:1008600084F83490E16C002910D001B02046BDE836
:10087000F04308470168C905D5D4016821F010018B
:10088000016084F8358084F83490CCE7BDE8F883C3
:100890001C0000202DE9F041044600F0A3F90646B3
:1008A0005CB1022084F83500002584F834502068BB
:1008B000016821F0010101600DE00120BDE8F08137
:1008C00000F090F9801B052805D9202060650320E1
:1008D00084F83500F2E720680068C007F0D122688C
:1008E000116820480140D4E901031843D4E90336D4
:1008F0003343184363691843A3691843E3691843F2
:10090000236A18430843616A042903D1D4E90B130D
:1009100019430843106020684069666A20F00701A7
:1009200030460E43012704280CD1A06A0643E06A32
:1009300040B12046FFF742FE20B14020606584F8B8
:100940003570BAE7206846612046FFF723FE94F829
:100950005C203F2191408160656584F835700020FE
:10096000ACE700003F8010F02DE9F0410446866DB1
:1009700090F83400002501280DD0012084F83400BF
:1009800094F835700020012F07D084F83400022538
:100990002846BDE8F0810220FBE7022784F8357085
:1009A00060652046FFF734FE94F85C103F208840D5
:1009B000B0602068016841F016010160206C20B130
:1009C0002068016841F0080101602068016841F079
:1009D00001010160DCE700002DE9F84FDFF8BCA160
:1009E0000022012503264FF00F090AF1040BAAF19A
:1009F000040E00BF0B6805FA02F42340A34270D135
:100A00000F7907F00307012F01D0022F16D1876855
:100A10004FEA420806FA08FC27EA0C07D1F80CC096
:100A20000CFA08FC4CEA070CC0F808C04768A7435A
:100A30000C79C4F3001494403C4344600C79E443C3
:100A4000A4070AD0C4684FEA420C06FA0CF7BC436C
:100A50008F6807FA0CF72743C7600C7904F003048A
:100A6000022C12D1D40800EB840CDCF8204057078C
:100A7000FF0E09FA07F824EA0804D1F8108008FAF2
:100A800007F848EA0408CCF8208004684FEA420CD2
:100A900006FA0CF7BC430F7907F0030707FA0CF7C7
:100AA000274307604C6814F4403F70D03C4C2768E3
:100AB00047F480472760246822F0030704F4804449
:100AC0000094384C07EB040CDCF8084897074FEA11
:100AD000177809FA08F7BC43334FB84202D1002710
:100AE00024E054E0314FB84201D101271EE0304FDD
:100AF000B84201D1022719E02E4FB84201D1032795
:100B000014E02D4FB84201D104270FE02B4FB8421B
:100B100001D105270AE02A4FB84201D1062705E096
:100B2000284FB84201D1072700E0082707FA08F745
:100B30002743CCF80878DAF800405746D1F804C0CB
:100B40009C435FEACC2C00D51C433C60DBF80040A2
:100B50005F46D1F804C09C435FEA8C2C00D51C434F
:100B60003C60DEF800407746D1F804C09C435FEA61
:100B70008C3C00D51C433C60084F083F3C68D1F8D2
:100B800004C09C435FEACC3C00D51C433C60521C33
:100B9000102AFFF42FAFBDE8F88F0000083C014099
:100BA000443802400030014000000240000402408E
:100BB00000080240000C02400010024000140240F5
:100BC00000180240001C0240426921EA02030A4068
:100BD00043EA0241816170470AB1816170470904AB
:100BE000FBE700000148806870470000100000200B
:100BF000024881680278114481607047100000202B
:100C00000B4810B5016841F400710160016841F4BE
:100C100080610160016841F480710160032000F08F
:100C20009FF80F2000F006F800F050F8002010BDEB
:100C3000003C024030B505461F4887B000240168DB
:100C400041F020010160006806A900F0200000903A
:100C500001A800F031F90498A8B100F04DF9400066
:100C60001649174AB0FBF1F11648491E026040F2DE
:100C7000E732C0E90324C0E90114846100F044FBB9
:100C8000040003D015E000F037F9E9E70D4800F063
:100C90009BFB04000DD1372000F034F8102D07D253
:100CA00000222946372000F03BF80748056000E0A5
:100CB000012407B0204630BD4038024040420F00BA
:100CC0000014004030040020140000200C4882B0C2
:100CD000016841F480410160006800F480400090A8
:100CE0000748001F016841F0805101600068002240
:100CF00000F0805000900F21901E02B000F010B85C
:100D000044380240002809DB00F01F020121914015
:100D10004009800000F1E020C0F800117047000099
:100D2000F0B40E4B1B680C46C3F30223C3F1070556
:100D3000042D00D90425191D072901D2002300E044
:100D4000DB1E012606FA05F1491E214099409E400E
:100D5000761E16403143F0BC01F0A5BD0CED00E05D
:100D6000064900F0070208684FF6FF03184040EA02
:100D70000220034A10430860704700000CED00E0B9
:100D80000000FA052DE9F0470E46050065D0DFF8B2
:100D90001481D8F80000F7B200F00700B04207D283
:100DA00088F80070D8F8000000F00700B04254D175
:100DB00028683D4C810712D5400703D5206840F4D0
:100DC000E05020602878000703D5206840F4604098
:100DD00020602068A96820F0F0000843206028788F
:100DE000C0072DD0304968680839012812D0022880
:100DF00013D0032811D00968890700292DDA21684A
:100E000021F0030101432160FFF7ECFE814641F22E
:100E1000883A0EE009688903EFE709688901ECE781
:100E2000FFF7E0FEA0EB0901514502D90320BDE820
:100E3000F0872068696800F00C00B0EB810FEFD1FB
:100E4000D8F80010404601F00701B14207D90770F9
:100E5000006800F00700B04201D00120E7E72878E1
:100E6000400705D52068E96820F4E0500843206079
:100E70002878000706D52068296920F4604040EAF8
:100E8000C100206000F058F82168084AC1F303113E
:100E9000515CC8400649086006480068FFF7CAFE72
:100EA0000020C4E7003C02400838024040340008FB
:100EB0001C000020140000200F2202600C4A13685E
:100EC00003F003034360136803F0F00383601368C7
:100ED00003F4E053C36012684FF4E05303EAD20214
:100EE00002610448006800F00700086070470000D5
:100EF00008380240003C024004480549006809687F
:100F0000044AC1F38221515CC84070471C00002094
:100F10000838024050340008044805490068096850
:100F2000044AC1F34231515CC84070471C000020A4
:100F30000838024050340008154810B5006810F019
:100F40000C02144813D04110042A0FD0082A0ED1E5
:100F50000F4C241F2268236802F03F025B0207D572
:100F60002068C0F38810A0FB010106E0084610BD10
:100F70002168C1F38811A1FB00010023FFF7D4F918
:100F80002168C1F30141491C4900B0FBF1F010BDDB
:100F9000083802400024F4002DE9F84F04006ED018
:100FA0002078DFF84C93C007A9F104054AD009F175
:100FB00004000168C1F38101012908D00068C0F371
:100FC000810002280AD1D9F80000400206D528681D
:100FD000800337D560680028E1D033E06068B0F561
:100FE000803F10D0B0F5A02F286810D020F48030BA
:100FF0002860286820F4802028606068A8B1FFF786
:10100000F1FD06460DE0286840F48030F4E740F436
:1010100080202860F7E700BFFFF7E4FD801B64280D
:1010200073D828688003F7D50CE0FFF7DBFD064690
:1010300005E000BFFFF7D6FD801B6428F0D82868C4
:101040008003F7D42078DFF8AC8280074FF0000AE5
:101050003ED5A748001D016811F00C0F08D00068AC
:10106000C0F3810002280BD1D9F80000400207D458
:101070002868800716D5E068012800D112E033E126
:10108000E068B8B10120C8F80000FFF7ABFD0646E4
:1010900005E000BFFFF7A6FD801B0228C0D8286826
:1010A0008007F7D52868216920F0F80040EAC100E0
:1010B00028600DE0C8F800A0FFF794FD064604E0A4
:1010C000FFF790FD801B02281FD828688007F7D4FF
:1010D0002078000722D5864F87486169703771B143
:1010E00001210160FFF77EFD064604E0FFF77AFD6F
:1010F000801B022809D838688007F7D50EE0C0F8B1
:1011000000A0FFF76FFD064605E082E0FFF76AFDED
:10111000801B02287DD838688007F7D420784007E4
:1011200068D5DFF8CCB100270BF13C0BDBF80000F1
:10113000C0000BD4DBF8001041F08051CBF8001058
:10114000DBF80000012700F0805000906B4E306803
:10115000C00510D4306840F480703060FFF742FD65
:10116000009005E0FFF73EFD0099401A022850D894
:101170003068C005F6D55E4EA0686C3601280FD0E9
:101180000528306810D020F001003060306820F071
:1011900004003060A068B8B1FFF724FD00900FE0B4
:1011A000306840F00100F4E740F004003060F7E7F9
:1011B000FFF718FD0099411A41F28830814266D844
:1011C00030688007F4D50EE0FFF70CFD009007E0D3
:1011D000FFF708FD0099411A41F28830814256D844
:1011E00030688007F4D42FB1DBF8001021F0805173
:1011F000CBF80010A069C8B33D49091D0968C1F3C7
:10120000810102294AD00228504607D0C8F8600060
:1012100000E03CE0FFF7E6FC04463BE04746C8F848
:101220006000FFF7DFFC064605E000BFFFF7DAFCD1
:10123000801B02282BD828688001F7D4D4E9070145
:101240000843A16A2E4A490802EB0141626A41EA59
:101250008211084394F82C1040EA0161C9F800108B
:1012600001203866FFF7BEFC044606E03EE000BF02
:10127000FFF7B8FC001B022809D828688001F7D5C1
:1012800034E000BFFFF7AEFC001B022802D90320A8
:10129000BDE8F88F28688001F4D427E00128F7D052
:1012A000D9F80000E26900F4800191421CD1226A61
:1012B00000F03F01914217D147F6C071626A0140C8
:1012C000B1EB821F10D1A26A4FF0FF3300F440311E
:1012D00003EB5202B1EB024F06D194F82C1000F050
:1012E0007060B0EB016F01D00120D1E70020CFE7A3
:1012F0000438024000004742800E47420070004020
:101300000000FFFF7047704710B5040003D094F849
:101310003D0010B107E0012010BD002084F83C0022
:10132000204600F01FF8022084F83D00211D2068AF
:1013300001F0BAF8012084F8460084F83E0084F8F1
:101340003F0084F8400084F8410084F8420084F8AB
:10135000430084F8440084F8450084F83D000020F0
:1013600010BD000008B5154A0168154891420ED11C
:10137000016841F0800101600068002200F08000F7
:10138000009005212C20FFF7CBFC2C2010E00D4A0B
:10139000914211D1016841F480710160006800221E
:1013A00000F48070009005212D20FFF7B9FC2D205E
:1013B000BDE80840FFF7A6BC08BD0000001C0040C7
:1013C000403802400020004090F83D10012901D033
:1013D00001207047022180F83D100168CA6842F080
:1013E0000102CA6000681149884214D0B0F1804FF0
:1013F00011D00F4988420ED00E4988420BD00E49B9
:10140000884208D00D49884205D00D49884202D053
:101410000C49884204D1816801F00701062903D0F4
:10142000016841F0010101600020704700000140A7
:101430000004004000080040000C0040000401408F
:101440000040014000180040704770B50446006835
:1014500001694FF00005C943890715D4C168C94324
:10146000890711D4E91E0161012020772068806975
:101470008007204602D0FFF7E7FF04E000F098F86D
:10148000204600F096F8257720680169C94349078E
:1014900017D4C168C943490713D46FF0040101612F
:1014A000022020772068806910F4407F204602D017
:1014B000FFF7CAFF04E000F07BF8204600F079F85F
:1014C000257720680169C943090716D4C168C94353
:1014D000090712D46FF00801016104202077206809
:1014E000C0698007204602D0FFF7AEFF04E000F09D
:1014F0005FF8204600F05DF8257720680169C94350
:10150000C90617D4C168C943C90613D46FF01001C6
:101510000161082020772068C06910F4407F2046D0
:1015200002D0FFF791FF04E000F042F8204600F0FF
:1015300040F8257720680169C943C90708D1C16807
:10154000C943C90704D1891E0161204600F032F861
:1015500020680169C943090609D4C168C94309065D
:1015600005D46FF0800101612046FFF7CBFE2068B3
:101570000169C943490609D4C168C943490605D46C
:101580006FF040010161204600F058F820680169C1
:10159000C94389060BD4C168C943890607D46FF0D3
:1015A000200101612046BDE87040FFF7ACBE70BD70
:1015B0007047704770B5044600681649884201D1EB
:1015C000FFF716FB144920680125096888421BD1E2
:1015D0004FF4FA7000F07EFA10480188491C01802F
:1015E0000F484168491C416032290DDD0D490D60ED
:1015F0000D4909680A680D4909680B6800219A427B
:1016000001D10B4A116041600A48844201D10A4865
:10161000058070BD00140040440300208C000020B1
:10162000000000209C000020940000209800002072
:1016300090000020FC020020A200002070477047AC
:1016400070470000F8B5016804460868CA684B692D
:1016500010F00F0F4FF0000559D003F0010602F40F
:101660009077374365D0C10705D0D10503D5216CEC
:1016700041F001012164410705D5D90703D0216C50
:1016800041F002012164810705D5D90703D0216CFF
:1016900041F004012164010707D502F02001314324
:1016A00003D0216C41F008012164216C00293AD05B
:1016B000800604D5900602D5204600F0E1FF2068A0
:1016C0004069216CC0F38010090700D460B3204644
:1016D00000F0A1FF20684069400621D52068143041
:1016E00050E8001F21F0400140E80012002AF5D127
:1016F000A06BA8B16C490165A06BFEF7E9FF00285B
:1017000011D0A06B016D01B0BDE8F0400847830621
:101710000FD593060DD52046BDE8F84000F0B0BFC8
:101720002046FFF78DFFF8BD2046FFF789FF2564AF
:10173000F8BD266B2023012E79D1C60677D5D606B3
:1017400075D50868486800904869400640D5A16B87
:10175000086840680004000CEAD0A28D8242E7D9F4
:10176000E085C869B0F5807F2DD020680C3050E846
:10177000001F21F4807140E80012002AF5D1206892
:10178000143050E8001F21F0010140E80012002A47
:10179000F5D12068143050E8001F21F0400140E8E6
:1017A0000012002AF5D184F83E30256320680C3001
:1017B00050E8001F21F0100140E80012002AF5D186
:1017C000A06BFEF73CFFA08DE18D401A81B229E0AD
:1017D000A08DE18D401A81B2E08D0028A8D00029AB
:1017E000A6D020680C3050E8002F22F4907240E818
:1017F0000026002EF5D12068143050E8002F22F08A
:10180000010240E80026002EF5D184F83E30256321
:1018100020680C3050E8002F22F0100240E800232E
:10182000002BF5D12046FFF70AFFF8BDFFE70506BC
:101830002BD5150629D594F83D002128F5D1A068AF
:10184000B0F5805F01D12069B0B1206A411C2162EE
:10185000216800784860E08C401E0004000CE084A1
:10186000E3D12068C16821F08001C1602068C168AF
:1018700041F04001C160D8E7206A0088C0F3080049
:101880004860206A801C2062E5E74006CDD55006FE
:10189000CBD5CA68204622F04002CA6084F83D30A9
:1018A00000F014F9C1E700007125000870B50400CC
:1018B00004D094F83D00002510B106E0012070BD71
:1018C00084F83C50204600F023F8242084F83D00A2
:1018D0002068C16821F40051C160204600F030FF4B
:1018E0002068016921F4904101612068416921F07B
:1018F0002A0141612068C16841F40051C16025643A
:10190000202084F83D0084F83E00002070BD0000D7
:1019100070B586B0064614216846FEF7D0FD24490E
:101920003068884241D123480025016841F4802174
:101930000160006800F4802005901E48103801689E
:1019400041F0020101600068694600F00200059064
:101950004FF4406000900220CDE901050320039080
:10196000072004901448FFF737F8154C13482060FF
:101970004FF0006060604020C4E902050001C4E946
:101980000405A561E561256220466562FEF782FFD8
:1019900008B1FEF752FE7463002205212720A663DA
:1019A000FFF7BEF92720FFF7ADF906B070BD0000C4
:1019B00000480040403802400004024058600240A5
:1019C000D003002090F83E30202B0ED159B152B1F7
:1019D00090F83C30012B08D0012380F83C300023E4
:1019E000036300F033BF01207047022070470000FE
:1019F0000E4910B5884217D10D48017840290CD204
:101A00000C4A0D4B12785A54491C01700B490020A6
:101A1000096848620948FFF7D7FCBDE81040012279
:101A200004490248FFF7CEBF10BD00008C03002020
:101A3000A0000020000000207C410020FC020020CB
:101A400070B5044690F83D00202836D191B38AB392
:101A500094F83C00012830D0012084F83C00216239
:101A6000A284E28400252564212084F83D00636B74
:101A70001348D863636B13481864636B1248D864C7
:101A8000606B134605652668606B321DFEF76CFFC0
:101A900021686FF04000086084F83C5020681430E2
:101AA00050E8001F41F0800140E80012002AF5D103
:101AB000002070BDFFE70120FBE70220F9E70000EE
:101AC000CB2500080D2600088125000870477047C7
:101AD000FEE7000006490A68521C0A60824206DBE3
:101AE000002008604FF400510248FFF76DB87047BE
:101AF0008800002000080240094808B5016841F448
:101B0000001101600068002200F40010009005211F
:101B10000E20FFF705F9BDE808400E20FFF7F2B8E8
:101B20003038024010B58EB01C220B496846FEF7D3
:101B300072FC0021684600F0FFFE084C06491C229A
:101B400020601C3107A8FEF766FC002107A800F002
:101B5000F3FE60600EB010BD0034000808000020E5
:101B600070B586B014216846FEF7A9FC1E48002512
:101B7000016841F004010160016801F00401059170
:101B8000016841F080010160016801F08001059168
:101B9000016841F002010160016801F00201059154
:101BA000016841F0010101600068104E00F0010081
:101BB0004FF400540590002221463046FFF70CF800
:101BC00000940124694630460194CDE90245FEF7B0
:101BD00003FFE003CDE90005694602940448FEF7DF
:101BE000FBFE06B070BD0000303802400008024025
:101BF000000002400B4810B50949016053214160C3
:101C0000002140F2E732C0E9021201618161FFF771
:101C10007BFB002803D0BDE81040FEF70EBD10BDD1
:101C2000001C0040FC0200200C4810B50A4901606D
:101C300053214160002140F2E732C0E90212016104
:101C400080218161FFF760FB002803D0BDE81040D0
:101C5000FEF7F3BC10BD000000200040440300204C
:101C60000C4810B50A4901604FF4E1314160002190
:101C700081600C22C160C0E904128161C161FFF77B
:101C800015FE002803D0BDE81040FEF7D6BC10BDFD
:101C9000004800408C030020FEE700001CB5002037
:101CA0002E4900900190C1F800D02D4901A80327CA
:101CB0000860384600F058F84FF47A76304600F065
:101CC0002FFE0221384600F08BF8142000F028FE89
:101CD0000221042000F084F8384600F0C3FA1420F2
:101CE00000F01EFE700000F01BFE384600F0C6FA41
:101CF000142000F015FE142000F012FE4FF4FA78C4
:101D000000244FF41675C8F100094146384600F02A
:101D100017F9142000F004FE284600F001FE4946A1
:101D2000384600F00DF9142000F0FAFD284600F0C6
:101D3000F7FD641C0F2CE8DB384600F015F8304640
:101D400000F0EEFD384600F08DFA384600F00CF851
:101D50004FEA060000F0E4FD0120FBE794000020BC
:101D600098000020FEE700002DE9F0411A4A804665
:101D7000A2F14C0100F0C8F8174D243D686A002814
:101D800028D00024A5F128064FF4085717E000BF1B
:101D900056F82400B8420BD000F56F60B0F58040D3
:101DA00006D0102804D0A0F55F60B0F5404F05D1F3
:101DB000404600F01AF8404600F01DF8641C686ABE
:101DC000A042E5D804480A214C38FEF778FB0349C5
:101DD00001200860BDE8F08148420020A4000020F6
:101DE0000B460222392100F055BA022246F664431E
:101DF000732100F04FBA80230222512100F04ABA29
:101E00002DE9F74F3B4D814600242870042068706F
:101E1000AC702732EA702C710120687106212846C7
:101E200000F0DEFFA871000AE8710821284600F0E2
:101E300031FD012000F074FD2F4E314FDFF8C480DA
:101E4000348095F801B02D4D4FF4FA6A3888012896
:101E500034D1297849452AD16878802822D9A878B0
:101E60000D280ED2DFE800F00D07090B0D0F110D44
:101E70000D0D0D0D130001250AE0022508E00325D4
:101E800006E0042504E0052502E0062500E008251B
:101E900040211A48FEF7F1FA88F8004034802846BD
:101EA000BDE8FE8F584502D1A878022812D0402103
:101EB0001248FEF7E2FA88F800403C805445C5D34A
:101EC00040210E48FEF7D9FA3088348050450FD3B0
:101ED0000720E5E72879E97800EB01210198016006
:101EE00040210648FEF7C9FA88F800403480E7E749
:101EF0000020D5E7684100208C0000207C410020B4
:101F0000A2000020A00000202DE9F0410024174687
:101F10000E4680465FF0010506EB84012A464046E6
:101F2000FFF76EFF56F8240008B1641CE4B26D1C84
:101F3000EDB2092DF0D300203C60BDE8F081000037
:101F40002DE9F04FDFF80893074687B0D9F8040071
:101F50000D4618B1052007B0BDE8F08FBD4C07F065
:101F6000FF08102084F8008060700026A6705220C0
:101F7000E07026714FF0010B022084F805B0A071CB
:101F8000E671002D02DD84F808B001E026724D42B2
:101F90000921B04800F024FF6072000AA0720B21F2
:101FA000AC4800F077FC012000F0BAFCA9F8006012
:101FB00061780191CA46E1780491B1466179A64EF3
:101FC00003913088012873D1A4480178B94266D1C1
:101FD000417880291DD9807807280BD2DFE800F0EE
:101FE0000A0406080A0C0E00012408E0022406E098
:101FF000032404E0042402E0052400E00624402138
:102000009648FEF73AFA964981F80090AAF80090AF
:10201000F2E0019A914242D1C27804998A423ED1BB
:102020008E4841790398814239D140218B48FEF78F
:1020300024FA8B49552081F80090AAF8009084F882
:1020400000801021617084F80290E07084F80490A0
:10205000022060710420A071280EE071280C20720B
:10206000280A6072A5720B217A4800F0B9FEE0726E
:10207000000A20730D21774800F00CFC012000F0CD
:102080004FFCAAF8009061780191E17850460491E4
:1020900061794D46DFF8C8A1814603910EE04021E9
:1020A0006E48FEF7EAF96E4981F80090A6F80090B4
:1020B000B9F5FA6F85D3AAF8009073E0308801284B
:1020C0006BD166480178B94260D1417880291CD92A
:1020D000807807280BD2DFE800F00A0406080A0C13
:1020E0000E00012408E0022406E0032404E0042496
:1020F00002E0052400E0062440215848FEF7BDF91F
:102100008AF80050A9F8005076E0019A91423DD13A
:10211000C27804998A4239D1504841790398814262
:1021200034D140214D48FEF7A8F94D4809210570EA
:10213000A9F8005084F8008010206070A57051202C
:10214000E070257184F805B00220A071E5710F20C0
:102150002072404800F044FE6072000AA0720B2119
:102160003C4800F097FB012000F0DAFBA9F8005092
:1021700094F801B0E07803906079C846DFF8DCA0FD
:10218000DFF8DC904FF4FA6402900DE04021334810
:10219000FEF773F98AF800503580B5F5FA6F8DD3E4
:1021A000A9F800500720D6E63088012841D19AF8D6
:1021B00000105046B94235D1417880291ED99AF88D
:1021C000020007280BD2DFE800F00A0406080A0C18
:1021D0000E00012408E0022406E0032404E00424A5
:1021E00002E0052400E0062440211C48FEF745F9E2
:1021F00089F80050A8F800502046ACE6594511D1A6
:10220000C27803998A420DD19AF80510029881424A
:1022100008D140211148FEF730F989F80050A8F89C
:10222000005008E040210D48FEF727F989F80050DA
:102230003580A542B8D340210848FEF71EF9B8F80A
:102240000000A8F80050A042ACD2002083E60000B5
:102250008C00002068410020A20000207C4100206A
:10226000A00000200449496809B1052070470623F1
:102270000222512100F00EB88C0000200449496868
:1022800009B10520704707230222512100F002B84E
:102290008C0000202DE9FF4F3F4E81B0804630700A
:1022A000062070700024B4700298F070180A307123
:1022B00073710621304600F093FDB071000AF07191
:1022C000012000F02DFB0821304600F0E3FA012048
:1022D00000F026FB314DDFF8C8A0334F2C8096F874
:1022E00001B070792F4E4FF4FA69009030880128C0
:1022F00043D19AF800205046424538D14178802990
:1023000023D99AF802000D280ED2DFE800F00D075D
:10231000090B0D0F110D0D0D0D0D130001260AE017
:10232000022608E0032606E0042604E0052602E073
:10233000062600E0082640211948FEF79EF83C706A
:102340002C80304605B0BDE8F08F59450FD1C278DA
:1023500002998A420BD19AF805100098814206D161
:1023600040210F48FEF789F83C702C8007E040219F
:102370000B48FEF782F83C7034804C45B6D34021C0
:102380000748FEF77AF828882C80484501D30720B3
:10239000D8E70020D6E70000684100208C0000202C
:1023A0007C410020A2000020A0000020012000F0BD
:1023B000B7FAFBE710B5502080F31188BFF34F8FB9
:1023C000BFF36F8F00F04EFF18B104494FF08050FB
:1023D0000860002080F3118810BD000004ED00E0CB
:1023E00030B593B030216846FEF769F814210CA887
:1023F000FEF765F81D480025016841F08051016035
:10240000006800F0805011901948016841F4804143
:1024100001600068022400F48040119001200090C7
:10242000000401908001CDE9064008AA0420A821FB
:1024300082E813000B906846FEF7AEFD08B172B655
:10244000FEE70CA90F2081E831004FF4A0500F9057
:102450004FF48050109005210CA8FEF793FC002843
:1024600001D072B6FEE713B030BD00004038024024
:10247000007000400248016841F47001016070473B
:1024800088ED00E00148FEF7E0BF000030040020C6
:102490000148FEF7DABF0000440300200148FEF7C0
:1024A000D4BF0000FC020020F0B50268254C264D88
:1024B000264E274F274B4FF0804CA04209D0604555
:1024C00007D0A84205D0B04203D0B84201D098420C
:1024D00004D122F0700E4A6842EA0E02A0421BD0DC
:1024E000604519D0A84217D0B04215D0B84213D0D9
:1024F000984211D0184DA8420ED0184DA8420BD0CA
:10250000174DA84208D0174DA84205D0164DA84235
:1025100002D0164DA84203D122F44075CA682A435E
:102520004D6922F080022A4302608A68C2620A680A
:102530008262A04201D0984201D109690163012160
:102540004161F0BD0000014000040040000800406F
:10255000000C0040000401400040014000440140E4
:102560000048014000180040001C004000200040CE
:1025700010B5806B0021C185C184FFF761F810BDE3
:1025800070B5846B2068406994F83D10C0F3C010AA
:102590000025212904D118B1E584204600F062F815
:1025A0002068406994F83E10C0F38010222904D1BD
:1025B00018B1E585204600F02EF8206C40F01000A0
:1025C00020642046FFF73CF870BD10B50146806BD3
:1025D00009680968C90516D40021C184016814314D
:1025E00051E8002F22F0800241E80023002BF5D1B2
:1025F00001680C3151E8002F42F0400241E800230D
:10260000002BF5D110BDFFF761FA10BD10B5806B3E
:10261000FFF75DFA10BD01680C3151E8002F22F47C
:10262000907241E80023002BF5D10168143151E884
:10263000002F22F0010241E80023002BF5D1016BAD
:10264000012909D101680C3151E8002F22F0100254
:1026500041E80023002BF5D1202180F83E10002115
:102660000163704701680C3151E8002F22F0C0026D
:1026700041E80023002BF5D1202180F83D10704760
:1026800008B590F83E10222901D0022008BD8268CA
:102690004FF480539A4201D1016921B1816A9A4273
:1026A0001BD04AB10AE00268816A5268C2F308028C
:1026B0000A80816A891C08E0026972B10268526866
:1026C00002F07F020A70816A491C8162C18D491E35
:1026D0000904090CC18503D019E002685268F1E7CA
:1026E0000168CA6822F02002CA600168CA6822F440
:1026F0008072CA6001684A6922F001024A612021A1
:1027000080F83E10016B012903D0FFF771F900201A
:1027100008BD0021016301680C3151E8002F22F04F
:10272000100241E80023002BF5D101680A68D206A7
:1027300002D50A6849680091818DFEF780FFE6E7BF
:1027400070B5044600680169E26821F44051114304
:1027500001612169A068E269084361691143084386
:102760002168CA6849F20C639A430243CA60206830
:102770004169A26921F440711143416131492068E6
:10278000884202D03049884202D1FEF7C5FB01E001
:10279000FEF7B2FBE2690023192164253226B2F567
:1027A000004F626828D0A0FB0101930F9200FDF753
:1027B000BBFD0146B0FBF5F06FF01802504301EB92
:1027C000800006EB0010B0FBF5F000F0F002B1FB6A
:1027D000F5F002EB0012B1FBF5F06FF0180358436F
:1027E00001EB800006EB0010B0FBF5F000F00F00ED
:1027F00021681044886070BDA0FB010192185B4104
:10280000FDF792FD0146B0FBF5F00201B1FBF5F0DA
:102810006FF01803584301EB800006EBC000B0FBDB
:10282000F5F000F0F80002EB4002B1FBF5F0584380
:1028300001EB800006EBC000B0FBF5F000F00700F4
:10284000D6E700000010014000140140816282853B
:10285000C28500210164222280F83E2080F83C10CD
:10286000016921B10168CA6842F48072CA600168D6
:102870004A6942F001024A610068C16841F02001E2
:10288000C1600020704700000148FEF7DBBE000079
:102890008C0300200A4601460148FFF7D1B800002A
:1028A0008C030020FEE70907090E002804DB00F175
:1028B000E02080F80014704700F00F0000F1E020E5
:1028C00080F8141D70470000FEF79AF9FFF788FDA5
:1028D000FFF746F9FFF710F9FFF78CF9FFF7A4F9B6
:1028E000FFF7BEF9012207490748FFF76BF80748D1
:1028F000FEF76AFD0648FEF767FDFFF713F900F0E3
:1029000016F8FEE7000000208C030020440300209E
:10291000FC02002001460020842900D0C81C70471A
:1029200010B500B9012000F039FB002010BD10B532
:1029300000F05AFB002010BD7FB50D4604464169EA
:10294000B0F9080081B1A16971B1FFF7E3FFD4E9E3
:1029500005128DE80700D4E900102B46226900F02B
:1029600056FC039004B070BDFFF7D4FF03A9CDE976
:102970000001208A2B4682B2D4E9001000F01AFC34
:10298000012801D00020EDE70398EBE72DE9F041A5
:10299000184C0F460546E6682068001D00F036FA20
:1029A00038B9206890F82C100120884021698143B3
:1029B0002161681C07D137B12168BDE8F0410E489C
:1029C000091D00F067BA20683544B54245602168AA
:1029D00005D2A06BBDE8F041091D00F043BA606B61
:1029E000091D00F03FFAA06A854200D2A562BDE849
:1029F000F081000020000020540500202DE9F04166
:102A0000054600F053FA2E4CA068401CA0602068D8
:102A10002C4F10B1606940B32DE02560A0680128FB
:102A200029D1002606EB860007EB800000F00CFAA7
:102A3000761C072EF6D323488C3000F005FA214887
:102A4000A03000F001FA1F48B43000F0FDF91D4835
:102A5000C83000F0F9F91B48DC3000F0F5F91948EE
:102A60008C3060631430A06305E02068E96AC06AB6
:102A7000884200D82560606A401C6062E96A0120D3
:102A8000226988401043206101EB810007EB800040
:102A9000291D00F0FFF900F029FA606900280CD028
:102AA0002068E96AC06A884207D207494FF080501F
:102AB0000860BFF34F8FBFF36F8FBDE8F081000058
:102AC000200000207804002004ED00E010B504464A
:102AD00090F8510058B101280CD002280FD0502096
:102AE00080F31188BFF34F8FBFF36F8FFEE7206B2A
:102AF00000F010FA2046BDE8104000F00BBA10BDFF
:102B000010484FF47051420706D0C01D0D4920F007
:102B10000700411AC1F570510B4A00230144C2E974
:102B200000030839183A21F0070111604B600B606F
:102B30000B1AC0E9001393604FF0004053605061DE
:102B4000704700006805002074000020144E154CEA
:102B5000A6F1C8074FF08058DFF84C9012E000BF94
:102B600000F0A4F9F068C568281D00F04FF9A068CE
:102B7000401EA0606068401E606000F0B7F9284603
:102B8000FFF7A4FF60680028EAD138680128F9D966
:102B9000C9F80080BFF34F8FBFF36F8FF2E70000DB
:102BA000400500202000002004ED00E02DE9F04762
:102BB0009A46DDE9098481466FF00303206B03EB3D
:102BC00082021044089E20F00707780707D05020A3
:102BD00080F31188BFF34F8FBFF36F8FFEE700259F
:102BE00061B1002023180A5C83F834200A5C12B11A
:102BF000401C1028F6D384F8435001E084F8345088
:102C0000072E00D30626E662C4E91165201D00F0F8
:102C100026F904F1180000F022F92461C6F107003A
:102C20006462A061E56484F85050524649463846D3
:102C300000F0C0F82060B8F1000F01D0C8F80040E3
:102C4000BDE8F08730B5114900E011460A688242BC
:102C5000FBD34B685C18844203D140681844486039
:102C6000084643681C18944209D1084C183C246853
:102C7000A24209D052681A4442600A68126802608F
:102C8000814200D0086030BD0460F9E77400002084
:102C90000648416B096829B1416BC968C968496830
:102CA000816270474FF0FF31FAE7000020000020FA
:102CB00008484068401C4FF0500080F3118804D051
:102CC000BFF34F8FBFF36F8FFEE7BFF34F8FBFF39D
:102CD0006F8FFEE77C0000202DE9F04105460027BC
:102CE00000F0B8F9324E306808B9FFF709FF706993
:102CF00005424ED1C5B3083568070ED005F0070070
:102D0000C0F108000544680707D0502080F31188FF
:102D1000BFF34F8FBFF36F8FFEE72DB3706885420F
:102D200037D82348183001460C6801E020460C468D
:102D30006168A94202D221680029F7D131688C422A
:102D400027D007682168016060680837411B102997
:102D50000FD96019420708D0502080F31188BFF3C3
:102D60004F8FBFF36F8FFEE713E041606560FFF7A1
:102D700069FF61687068401A7060B268904200D262
:102D8000B060706901430020C4E90001F068401C94
:102D9000F06000F0CDFA780707D0502080F311885A
:102DA000BFF34F8FBFF36F8FFEE73846BDE8F0816A
:102DB0005C00002010B5031F4FF080741C601B1FC7
:102DC00021F001011960191F044B0B6014390A60CE
:102DD000091F6FF0020244380A6010BDB12C0008D0
:102DE00070B5094DFF231A4605F5807606E000BF51
:102DF00010F8014B54402A5D5A40335D491E89B298
:102E0000F6D242EA032070BD58340008D0E90132FE
:102E100001699A60D0E901235A604A68824201D16F
:102E200082684A60002202610868401E08600868E3
:102E300070470000034B036003F1540008608020DA
:102E400010607047A800002000F108014FF0FF3229
:102E5000C0E90112C16001610021016070470021D9
:102E60000161704730B50B685A1C02D000F10802AE
:102E700002E0026904E02246546825689D42FAD9BE
:102E800053684B6099608A60516008610168491C11
:102E9000016030BD42684A6093688B6093685960F6
:102EA000916008610168491C01607047502080F3FF
:102EB0001188BFF34F8FBFF36F8F0A494868401CDA
:102EC000486001280CD10848006810F0FF0F07D0B7
:102ED000502080F31188BFF34F8FBFF36F8FFEE751
:102EE000704700007C00002004ED00E008494868BD
:102EF00028B1401E486001D180F3118870475020EE
:102F000080F31188BFF34F8FBFF36F8FFEE7000090
:102F10007C00002070B500282AD0164DA0F10804CE
:102F200060686969084207D1502080F31188BFF3B7
:102F30004F8FBFF36F8FFEE722683AB1502080F3C6
:102F40001188BFF34F8FBFF36F8FFEE78843606038
:102F500000F080F860686968084468602046FFF700
:102F600071FE2869401C2861BDE8704000F0E0B99E
:102F700070BD00005C0000204FF0E02000210161E6
:102F8000816105494FF47A720968B1FBF2F1491E7B
:102F900041610721016170471C00002010B502004B
:102FA00014D00F48006B38B1502080F31188BFF364
:102FB0004F8FBFF36F8FFEE700F04CF800211046F3
:102FC000FFF7E4FC00F0B4F9002807D105494FF001
:102FD00080500860BFF34F8FBFF36F8F10BD0000AC
:102FE0002000002004ED00E010B586B0002403941A
:102FF00005AA04A903A80494FFF71CFFDDE9030157
:103000000094CDE9011000230EA11048059A00F0AC
:10301000FEF80F490028C86211D0502080F31188B3
:10302000BFF34F8FBFF36F8F4FF0FF3088620120E7
:103030004861CC6006B0BDE8104000F041B806B071
:1030400010BD000049444C45000000004D2B000815
:10305000200000200248016B491C016370470000FA
:10306000200000201448016B11B10121C16170479B
:103070000021C1610169B1FA81F1C1F11F0101EBC8
:1030800081020E4951F822306BB101EB820101F14E
:1030900008034A6852684A609A4201D152684A60FD
:1030A000D16801607047502080F31188BFF34F8FC3
:1030B000BFF36F8FFEE7000020000020780400209F
:1030C0001CB537480168374A914207D1502080F338
:1030D0001188BFF34F8FBFF36F8FFEE70068314950
:1030E000491E884207D1502080F31188BFF34F8FCB
:1030F000BFF36F8FFEE72C4908780190FF2008701E
:1031000008788DF800009DF800009DF8002000F080
:10311000F000904207D0502080F31188BFF34F8F0A
:10312000BFF36F8FFEE79DF80000204C00F05000C9
:1031300020700720A06005E09DF8002052008DF867
:103140000020401E9DF800201206F5D4A060032840
:1031500007D0502080F31188BFF34F8FBFF36F8FDC
:10316000FEE74FF44070A060019808700C482030D2
:10317000016841F470010160016841F07041016033
:10318000FFF7FAFE00206060FDF772F8084801685A
:1031900041F040410160FDF757F800201CBD0000E0
:1031A00000ED00E071C20F4100E400E07C0000206F
:1031B00034EF00E02DE9FF5F8346DDE90E87994695
:1031C00016468A469000FFF787FD05001CD0542064
:1031D000FFF782FD040014D00020256384F851001D
:1031E000CDE90240CDE900874B463246514658466C
:1031F000FFF7DCFC2046FFF701FC012004B0BDE82E
:10320000F09F2846FFF786FE4FF0FF30F6E7F0B557
:1032100085B0DDE90B640A9DA6B1DCB154270097A7
:103220002663022684F85160002604AFCDE90246E9
:10323000CDE90057FFF7BAFC2046FFF7DFFB049803
:1032400005B0F0BD502080F31188BFF34F8FBFF35E
:103250006F8FFEE7502080F31188BFF34F8FBFF3CD
:103260006F8FFEE72DE9F0412F4C0026206B28B12F
:10327000A069401CA0613046BDE8F081E5686D1C86
:10328000E56013D1606B006838B1502080F311887D
:10329000BFF34F8FBFF36F8FFEE7606BA16B61636E
:1032A000A063206A401C2062FFF7F2FCA06ADFF8EE
:1032B0007C80854209D3606B0068A0B1606BC068F8
:1032C000C7687868854211D2A0622068C06A00EBA6
:1032D000800158F82100012800D90126E069002862
:1032E000C9D00126C7E74FF0FF30EDE7381DFFF7E3
:1032F0008DFDB86A18B107F11800FFF787FDF96A6C
:103300000120226988401043206101EB810108EB14
:103310008100391DFFF7BEFDF86A2168C96A88423D
:10332000C9D30126C7E70000200000207804002050
:103330002DE9F0472C4D00242746286B38B1FFF7C4
:10334000B5FD286B401E2863286B40B146E0502035
:1033500080F31188BFF34F8FBFF36F8FFEE7A9682B
:10336000224E0120D1B3A6F1B40980463068E8B1FD
:10337000F068C46804F11800FFF748FD201DFFF74E
:1033800045FDE06A2A6908FA00F11143296100EB62
:10339000800109EB8100211DFFF77CFDE06A2968AF
:1033A000C96A8842E2D3C5F81C80DFE70CB1FFF799
:1033B0006FFCAC6944B14646FFF754FF00B1EE61C3
:1033C000641EF9D10020A861E86938B108490127D5
:1033D00038070860BFF34F8FBFF36F8FFFF786FD8D
:1033E0003846BDE8F0870000200000202C050020B2
:1033F00004ED00E04FF04070E1EE100A704700006D
:1034000058360008AD23000800000000000000004E
:10341000800000000000000000000000643600088A
:103420009D1C0008FDFF00000000000000010000DE
:103430000000000000000000000610160006101634
:103440000000000000000000010203040607080954
:10345000000000000102030400C1814001C080415E
:1034600001C0804100C1814001C0804100C1814054
:1034700000C1814001C0804101C0804100C1814044
:1034800000C1814001C0804100C1814001C0804134
:1034900001C0804100C1814001C0804100C1814024
:1034A00000C1814001C0804100C1814001C0804114
:1034B00001C0804100C1814000C1814001C0804104
:1034C00001C0804100C1814001C0804100C18140F4
:1034D00000C1814001C0804101C0804100C18140E4
:1034E00000C1814001C0804100C1814001C08041D4
:1034F00001C0804100C1814000C1814001C08041C4
:1035000001C0804100C1814001C0804100C18140B3
:1035100000C1814001C0804100C1814001C08041A3
:1035200001C0804100C1814001C0804100C1814093
:1035300000C1814001C0804101C0804100C1814083
:1035400000C1814001C0804100C1814001C0804173
:1035500001C0804100C1814000C0C101C30302C25B
:10356000C60607C705C5C404CC0C0DCD0FCFCE0EC3
:103570000ACACB0BC90908C8D81819D91BDBDA1A33
:103580001EDEDF1FDD1D1CDC14D4D515D71716D6A3
:10359000D21213D311D1D010F03031F133F3F23213
:1035A00036F6F737F53534F43CFCFD3DFF3F3EFE83
:1035B000FA3A3BFB39F9F83828E8E929EB2B2AEAF3
:1035C000EE2E2FEF2DEDEC2CE42425E527E7E62663
:1035D00022E2E323E12120E0A06061A163A3A262D3
:1035E00066A6A767A56564A46CACAD6DAF6F6EAE43
:1035F000AA6A6BAB69A9A86878B8B979BB7B7ABAB3
:10360000BE7E7FBF7DBDBC7CB47475B577B7B67622
:1036100072B2B373B17170B0509091519353529292
:1036200096565797559594549C5C5D9D5F9F9E5E02
:103630005A9A9B5B99595898884849894B8B8A4A72
:103640004E8E8F4F8D4D4C8C4484854587474686E2
:10365000824243834181804064656661756C745425
:1036600061736B004D6F746F720000008C36000840
:1036700000000020A8000000C40100083437000842
:10368000A8000020084E0000E00100080000000033
:103690000000000000000000000000000100000029
:1036A00010000000000000000024F40000000000F2
:1036B000000000000000000000000000000000000A
:1036C00000000000000000000000000000000000FA
:1036D00000000000000000000000000000000000EA
:1036E00000000000000000000000000000000000DA
:1036F00000000000000000000000000000000000CA
:10370000000000000000000000000000AAAAAAAA11
:1037100000000000000000000000000000000000A9
:103720000000000000000000000000000000000099
:043730000000000095
:040000050800018965
:00000001FF
