:020000040800F2
:10000000800A002029020008F9270008352300088B
:10001000F5270008D50300081D2C0008000000008B
:10002000000000000000000000000000012800089F
:100030005104000800000000FD2700080528000802
:10004000430200084302000843020008430200087C
:10005000430200084302000843020008430200086C
:10006000430200084302000843020008430200085C
:10007000430200084302000843020008430200084C
:10008000430200084302000843020008430200083C
:10009000430200084302000843020008430200082C
:1000A000430200084302000843020008430200081C
:1000B000430200084302000843020008430200080C
:1000C00043020008430200084302000843020008FC
:1000D00043020008052C0008112C00084302000808
:1000E00043020008430200084302000843020008DC
:1000F00043020008CD28000843020008430200081C
:1001000043020008430200084302000843020008BB
:1001100043020008430200084302000843020008AB
:10012000430200084302000843020008430200089B
:10013000430200084302000843020008430200088B
:10014000430200084302000843020008430200087B
:10015000430200084302000843020008430200086B
:10016000430200084302000843020008430200085B
:100170004302000843020008430200080000000098
:10018000430200084302000800F002F800F03CF8C7
:100190000AA090E8000C82448344AAF10107DA45E2
:1001A00001D100F031F8AFF2090EBAE80F0013F0F8
:1001B000010F18BFFB1A43F0010318470C2E000073
:1001C0002C2E0000103A24BF78C878C1FAD8520704
:1001D00024BF30C830C144BF04680C6070470000C1
:1001E0000023002400250026103A28BF78C1FBD840
:1001F000520728BF30C148BF0B6070471FB502F0DF
:10020000C9FD1FBD10B510BD00F0A9F81146FFF7DC
:10021000F5FF02F057FD00F0C7F803B4FFF7F2FF57
:1002200003BC00F0CFF800000948804709480047A8
:10023000FEE7FEE7FEE7FEE7FEE7FEE7FEE7FEE796
:10024000FEE7FEE704480549054A064B70470000F3
:10025000B92800088901000880040020800A0020D5
:10026000800600208006002053EA020C00F069801E
:100270002DE9F04B4FF00006002B1FBFB3FA83F5BA
:1002800003FA05F424FA05F65E4012BF1643B2FAEB
:1002900082F502FA05F4C5F120051EBF22FA05FC1D
:1002A00044EA0C04203556EA044C4FEA144418BFC3
:1002B000641C4FF000084FF00009904271EB030CF2
:1002C00039D3002919BFB1FA81F701FA07F6B0FA5C
:1002D00080F700FA07F6C7F120071EBF20FA07FCD7
:1002E00046EA0C062037B6FBF4FCA7EB0507103FE7
:1002F00007F01F0BCBF120062CFA06F60CFA0BFBCD
:1003000044BFB3460026202FA4BF5E464FF0000B2B
:100310005BEA060C08BF4FF0010B19EB0B0948EB29
:100320000608ABFB027C06FB02CC0BFB03CCC01B1C
:1003300071EB0C01C1E70B46024641464846BDE859
:10034000F08B13B5084318BF4FF0FF300146AFF3F1
:100350000080BDE81C407047704770477047754685
:1003600000F02CF8AE4605006946534620F0070021
:10037000854618B020B5FFF765FFBDE820404FF077
:1003800000064FF000074FF000084FF0000BAC469E
:10039000ACE8C009ACE8C009ACE8C009ACE8C009E9
:1003A00021F007018D46704710B50446AFF3008079
:1003B0002046BDE81040FFF730BF000000487047FE
:1003C000B000002001491820ABBEFEE72600020065
:1003D00070470000FEE7000040F22B2CC2F2000C38
:1003E0009CF8003040F23112C2F20002D054117871
:1003F000581C55298CF8000011D1C0B20B2838BF09
:10040000704750785038C0B2092808D806A151F872
:100410002000D2F80210D2F80620C0E90012002015
:100420008CF80000704700BF7004002028040020F2
:100430004804002030040020580400203804002024
:1004400060040020500400204004002068040020C4
:1004500070470000EFF3108072B600BFFEE70000A7
:1004600070B5866D044600F057F994F835100229EE
:100470002ED105462068216C026822F01602026027
:10048000426922F08002426109B9A16C19B1016888
:1004900021F008010160016821F00101016000689C
:1004A000C00708D000F038F9401B052818D820688C
:1004B0000068C007F6D1E06D3F2101FA00F0B0609E
:1004C000012084F835000020002184F8341070BD2C
:1004D000802060650120002184F8341070BD00BFC9
:1004E00020206065032084F83500002184F8341052
:1004F00070BD000090F83510022909D1052180F85F
:1005000035100068016821F001010160002070478A
:100510008021416501207047B0B5044600F0FCF829
:10052000054640F20000C2F200000078611C18BFCE
:10053000044400BF00F0F0F8401BA042FAD3B0BD65
:100540002DE9F04F82B000F13E4241F6004502F144
:10055000FF77C4F2020508224FEAB726A84208BF77
:100560000722072E38BF4FEAB7224FF0010A0024B6
:1005700000274FF00008009208E000BF023708F1A2
:100580000108202F04F1040400F0B4800E680AFA78
:1005900008F916EA090FF1D0D1F804A00AF0030B0C
:1005A000ABF10106012E17D80322866802FA07FE76
:1005B000CA6826EA0E06BA40324382604268CAF32D
:1005C000001522EA090205FA08F54FEA480C6FEA1D
:1005D0000E062A4342600BE00322BA40D643BBF129
:1005E000030FBC4604D1BC464FF0030B22E000BF12
:1005F000C2688D68324005FA0CF52A43BBF1020F40
:10060000C26017D16FF0030202EA5802024404F0FC
:100610001C030F25D2F820E005FA03FA0D692EEA33
:100620000A0E05FA03F343EA0E031362D1F804A09D
:100630000AF0030B02680BFA0CF332401A431AF467
:10064000403F4FF0010A026098D0002243F6440375
:100650000192C4F202031A6843F6004E42F480424B
:100660001A601A68C4F2010E02F480420192019AE3
:1006700028F003024FF6084C7244CFF6FF7C52F884
:100680000C3004F00C060F25B540AB43009D05FA75
:1006900006F6334342F80C30DEF808204B6842EA95
:1006A000090643F60C4CDD0258BF22EA0906CEF8D3
:1006B0000860C4F2010CDCF800209D0242EA090641
:1006C00058BF22EA0906CCF80060DEF804209D033A
:1006D00042EA090658BF22EA0906CEF80460DEF8AD
:1006E0000020DB0342EA090658BF22EA0906CEF8D9
:1006F000006043E702B0BDE8F08F0000426902EA03
:100700000103914341EA034181617047002A08BF18
:10071000090481617047000040F27840C2F2000095
:100720000068704740F2000040F27841C2F20000D9
:10073000C2F2000100780A681044086070470000A7
:1007400080B543F60040C4F20200016841F4007134
:100750000160016841F480610160016841F48071C9
:100760000160032000F084F80F2000F005F800F08D
:1007700027F8002080BD000070B540F20006C2F2EC
:10078000000640F2A8013278C2F200014FF47A73F9
:100790000968B3FBF2F20446B1FBF2F1084600F03F
:1007A0004DFB0F2C4FF0010508D838B94FF0FF3042
:1007B00021460022002500F02FF87460284670BD05
:1007C00082B0002043F640010190C4F202014A6861
:1007D00042F480424A604A6802F480420192019ADF
:1007E0000090086840F080500860086800F0805071
:1007F0000090009802B07047002848BF704700F092
:100800001F01012202FA01F14EF200124009CEF25C
:10081000000242F82010704710B54EF60C5CCEF284
:10082000000CDCF80030C3F3022E8EF00704042C19
:1008300028BF0424BEF103034FF0FF3E0EFA04F478
:1008400038BF0023A14399400EFA03F39A431143A2
:1008500000F00F02043A624409010C3200F16043D7
:10086000B0F1FF3FC8BF03F56442117010BD000036
:100870004EF60C51CEF200010A684FF6FF031A4003
:1008800060F30A2242F0806040F0FD70086070471B
:100890002DE9F041002800F08B8043F60808C4F2EF
:1008A00002080446D8F8F8030D4600F00700884215
:1008B00007D288F8F853D8F8F80300F00700A842E8
:1008C00076D12068810717D5410705D5D8F80010E3
:1008D00041F4E051C8F80010010705D5D8F8001020
:1008E00041F46041C8F80010D8F80010A26821F067
:1008F000F0011143C8F80010C0073FD1D8F8F80341
:1009000000F00700A84207D988F8F853D8F8F80390
:1009100000F00700A8424BD12068410707D5D8F85E
:100920000010E26821F4E0511143C8F800100007FC
:1009300008D5D8F80000216920F4604040EAC100E1
:10094000C8F8000000F07CF8D8F8001042F6AE526B
:10095000C1F30311C0F60002515C40F2A80220FA74
:1009600001F140F20400C2F200000068C2F200028D
:100970001160FFF701FF0020BDE8F0816068811E73
:10098000022907D258F8081C89015CBF0120BDE884
:10099000F08111E0012807D158F8081C89035CBFD9
:1009A0000120BDE8F08107E058F8081C890703D44E
:1009B0000120BDE8F08100BFD8F8001021F003014C
:1009C0000843C8F80000FFF7A7FE064641F2883743
:1009D000D8F80000616800F00C00B0EB810F8DD0FA
:1009E000FFF79AFE801BB842F2D90320BDE8F081E0
:1009F00040F2A80043F60801C2F20000C4F202016E
:100A00000068096842F6BE52C1F38221C0F60002B6
:100A1000515CC8407047000040F2A80043F608014E
:100A2000C2F20000C4F202010068096842F6BE5238
:100A3000C1F34231C0F60002515CC840704700006B
:100A400010B543F60404C4F20204606800F00C011F
:100A500042F200400829C0F2F40007D0042918BF70
:100A600010BD41F20020C0F27A0010BD216801F0F3
:100A70003F02216823684902C3F3881106D4A1FB11
:100A800000010023FFF7F0FB07E000BF41F2002068
:100A9000C0F27A004843B0FBF2F021680222C1F3B1
:100AA000014102EB4101B0FBF1F010BD2DE9F04135
:100AB00082B000286AD00446007843F60006C007DA
:100AC000C4F202060BD0B06800F00C00042840F01D
:100AD000A1803068800302D56068002856D0207855
:100AE00080071AD5B06810F00C0F09D0B06800F07C
:100AF0000C00082840F0A8807068400200F1A48033
:100B00003068800702D5E06801283FD1306821694C
:100B100020F0F80040EAC10030602078000739D4A6
:100B2000207840074ED4A5695DB3B06800F00C0092
:100B3000082840F0BD80012D28D07068E16900F4DC
:100B400080028A4222D1216A00F03F028A421DD1EE
:100B500047F6C071626A0140B1EB821F16D1A26AEA
:100B60000023CFF6FF7303EBC23200F440316FF382
:100B70000F0291420AD1E16A00F07060B0EB016FA0
:100B800004D1002002B0BDE8F08100BF012002B016
:100B9000BDE8F0816069002840F20000C4F24720FF
:100BA00076D00121C0F8801EFFF7B6FD054600BFD4
:100BB000706F8007B4D4FFF7AFFD401B0228F7D950
:100BC000DDE000BF306C10F080580AD100200190A9
:100BD000306C40F080503064306C00F080500190F8
:100BE000019847F20007C4F200073868C00541D4F5
:100BF000386840F480703860FFF78EFD054600BF0E
:100C00003868C00536D4FFF787FD401B0228F7D9A6
:100C1000B5E000BFB06800F00C00082803D1706890
:100C200040023FF556AF6068B0F5803F07D0B0F5A1
:100C3000A02F40F08D80306840F480203060306814
:100C400040F4803030608DE0E068002852D0002011
:100C5000C4F2472001210160FFF75EFD054600BF99
:100C6000306880073FF552AFFFF756FD401B022862
:100C7000F6D984E0A068012805D005284ED1306F50
:100C800040F004003067306F40F0010030674FE003
:100C90000021C0F8801EFFF73FFD0546706F8007FA
:100CA0007FF53EAFFFF738FD401B0228F6D966E01E
:100CB0000027C4F2472700203866FFF72DFD022DDC
:100CC00005460BD1306880015ED5FFF725FD401B3E
:100CD00002284FF00300F5D954E700BF30688001C7
:100CE0007FF54FAFFFF718FD401B02284FF00300C0
:100CF000F4D947E70020C4F2472000210160FFF744
:100D00000BFD0546306880077FF507AFFFF704FD50
:100D1000401B02284FF00300F4D933E7316F00285D
:100D200021F001013167316F21F0040131674DD0AD
:100D3000FFF7F2FC054641F2883700BF306F8007AD
:100D400056D4FFF7E9FC401BB842F7D917E000BFC3
:100D50003168002821F480313160316821F480212C
:100D600031604FD0FFF7D8FC054600BF30688003E4
:100D70003FF5B5AEFFF7D0FC401B6428F6D9032041
:100D800002B0BDE8F08100BF04F11C052FCD08437F
:100D90000021CFF6FF7140EA821001EBC3316FF3FF
:100DA0000F0140EA05600843706001203866FFF7D4
:100DB000B3FC0446306880013FF5E3AEFFF7ACFCBE
:100DC000001B02284FF00300F4D9DBE6FFF7A4FC78
:100DD000054641F2883700BF306F800708D5FFF71E
:100DE0009BFC401BB8424FF00300F5D9CAE600BF98
:100DF000B8F1000F7FF497AE306C20F08050306473
:100E000091E600BFFFF788FC054600BF306880030D
:100E10007FF565AEFFF780FC401B64284FF00300B0
:100E2000F4D9AFE64EF21001CEF200010A680428B0
:100E300022F0040208BF04320A607047411E0020FD
:100E4000B0EB116F1CBF012070474EF21002CEF2C2
:100E5000000251604EF62351CEF20001F0230B70D8
:100E600007219060116070477047000070470000D4
:100E7000B0B590F83C20012A04BF0220B0BD01F1BA
:100E800008053CCDD1E900CE23F47C5322F4705206
:100E90001A432EF4F0431A432CF4E0431A4324F48B
:100EA000C0431A432A43C96922F4804203681143AC
:100EB0005964002180F83C100846B0BD10B590F888
:100EC0003C20012A4FF0020251D080F83D200268F8
:100ED000D2F804E0D2F808C00C682EF07003234367
:100EE00041F2FF74C4F20004A24253600EDC40F2EF
:100EF000FF73C4F200039A4216DCB2F1804F2BD08C
:100F000040F20043C4F2000324E000BF40F2FF338C
:100F1000C4F201039A4213DC41F60003C4F2000359
:100F20009A4219D0002313E040F60003C4F20003F4
:100F30009A4211D040F60043C4F200030AE000BF19
:100F400044F20003C4F201039A4205D040F2004388
:100F5000C4F201039A4204D149682CF0800319437A
:100F600091600121002280F83D1080F83C2010465D
:100F700010BD0000002804BF0120704710B50446D2
:100F800090F83D0028B9002084F83C00204600F08D
:100F90001FF8022084F83D002068211D01F09CFC10
:100FA000012084F8460084F83E0084F83F0084F86D
:100FB000400084F8410084F8420084F8430084F83B
:100FC000440084F8450084F83D00002010BD000076
:100FD00080B582B0006842F20001C4F2000188428C
:100FE00016D00021C4F2010188420ED100200190E8
:100FF00043F64000C4F20200416841F00101416043
:10100000406800F001000190019802B080BD00BF6F
:101010000020009043F64000C4F202000168002264
:1010200041F4807101600068022100F4807000903A
:1010300000982D20FFF7F0FB2D2002B0BDE8804086
:10104000FFF7DABB90F83D1001291CBF0120704763
:10105000022180F83D10006841F2FF72C168C4F2BD
:101060000002904241F00101C1600DDC40F2FF71CD
:10107000C4F20001884215DCB0F1804F2AD040F262
:101080000041C4F2000123E040F2FF31C4F201014B
:10109000884213DC41F60001C4F20001884219D0F5
:1010A000002113E040F60001C4F20001884211D093
:1010B00040F60041C4F200010AE000BF44F2000122
:1010C000C4F20101884205D040F20041C4F201019E
:1010D000884206D1816801F00701062904BF00207B
:1010E0007047016841F00101016000207047000075
:1010F0000146006841F21113C26822F00102C26089
:10110000026A1A4204D00122002081F83D20704773
:10111000026A40F244431A42F5D1026822F0010209
:1011200002600122002081F83D20704780B590F8D0
:101130003C20012A4FF0020200F0C28080F83D20DE
:10114000D0F800C04FF67772DCF8083023EA0202CC
:10115000CCF808200B684F2B28DC1F2B44DD202BFC
:1011600045D0302B43D0402B40F0AC80D1F804E088
:10117000C968DCF82030DCF8202022F00102CCF82D
:101180002020DCF8182022F0F00242EA011123F0BE
:101190000A0242EA0E02CCF81810CCF82020DCF843
:1011A000081041F0470121F0300180E06F2B27DD6E
:1011B000B3F5005F48D0B3F5805F7AD0702B40F074
:1011C0008180D1E901E3C968DCF8082043EA0E0315
:1011D00022F47F4243EA01211143CCF80810DCF8E5
:1011E000081041F0770162E00BB1102B6AD1DCF8F6
:1011F000081021F07001194341F0070157E000BFCA
:10120000502B35D0602B5DD1D1F804E0C968DCF8F3
:10121000203023F01003CCF82030DCF81830DCF854
:10122000202023F4704322F0A00243EA013142EA75
:101230000E12CCF81810CCF82020DCF8081041F081
:10124000670121F0100132E0D1E901E3C968DCF85F
:10125000082043EA0E0322F47F4243EA01211143AE
:10126000CCF80810DCF8081041F480411FE000BF02
:10127000D1F804E0C968DCF82030DCF8202022F046
:101280000102CCF82020DCF8182022F0F00242EA1B
:10129000011123F00A0242EA0E02CCF81810CCF831
:1012A0002020DCF8081041F0570121F02001CCF893
:1012B00008100022012180F83D10002180F83C1028
:1012C000104680BD0122F5E77047000010B50168A7
:1012D00004460869800744BFC8685FEA807039D453
:1012E0000869400744BFC8685FEA40703ED4086997
:1012F000000744BFC8685FEA007045D40869C006AB
:1013000044BFC8685FEAC0604AD40869C0071CBF10
:10131000C8685FEAC07051D10869000644BFC86858
:101320005FEA006052D40869400644BFC8685FEABB
:10133000406053D40869800646BFC8685FEA806091
:1013400010BD6FF0200220460A61BDE81040FFF793
:101350008DBD00BF6FF00200086101202077886911
:10136000800743D02046FFF7AFFF45E06FF0040051
:10137000086102202077886910F4407F40D0204621
:10138000FFF7A2FF42E000BF6FF0080008610420F1
:101390002077C86980073DD02046FFF795FF3FE0E2
:1013A0006FF01000086108202077C86910F4407FB2
:1013B0003AD02046FFF788FF3CE000BF6FF0010005
:1013C0000861204600F080F92168A5E76FF08000F1
:1013D00008612046FFF748FD2168A4E76FF0400050
:1013E0000861204600F09CF92168A3E7204600F040
:1013F00025F8204600F066F92168002020776FE785
:10140000204600F01BF8204600F05CF9216800201F
:1014100020776CE7204600F011F8204600F052F9E2
:1014200021680020207769E7204600F007F8204671
:1014300000F048F921680020207766E77047000037
:101440002DE9F04190F83C30012B04BF0220BDE8AB
:10145000F0814FEAB202032A00F2FC80DFE802F0DA
:10146000023E7EBE036840F200471A6A43F480657C
:1014700022F001021A621C6A1A46D3F804E052F8FC
:1014800018CF8E6824F00204C4F20107BD4244EA7A
:10149000060405D1CE6824F00C0426F0040634437B
:1014A0000E68BD4207D1D1E905572EF4407E45EACA
:1014B0000E0545EA070E2CF073073743C3F804E026
:1014C0009F614F6809695F631C629F6947F0080765
:1014D0009F619F6927F004079F61B1E0036840F2B4
:1014E00000481A6A43F4806522F010021A621C6AEE
:1014F0001A46D3F804E052F818CF8F6824F020047D
:10150000C4F20108454544EA071407D1CF686FF0DB
:10151000400624F0C00406EA071634430F68454528
:1015200007D1D1E905562EF4406E4EEA850545EA0D
:10153000860E2CF4E64646EA0727C3F804E09F61CE
:101540004F6809699F631C629F6947F400679F6148
:101550009F6927F480679F6171E000BF036840F2D4
:1015600000481A6A43F4806522F480721A621C6A89
:101570001A46D3F804E052F81CCF8F6824F40074A4
:10158000C4F20108454544EA072408D1CF6840F277
:10159000FF463F0224F4406427EA060634430F68FE
:1015A000454507D1D1E905562EF4405E4EEA0515B2
:1015B00045EA061E2CF073063743C3F804E0DF61EA
:1015C0004F680969DF631C62DF6947F00807DF6164
:1015D000DF6927F00407DF6132E000BF036840F2F3
:1015E00000451A6A43F4806722F480521A621A4650
:1015F000D3F820C05C6852F81CEFD1F800808E68E8
:10160000C4F20105AF4204D14D6924F4804444EA98
:1016100085142CF4005747EA06372EF4E64646EACE
:1016200008265C60DE614E6809691E641F62DF691E
:1016300047F40067DF61DF6927F48067DF61090233
:101640001368194311600021002280F83C200846ED
:10165000BDE8F0810121002280F83C200846BDE869
:10166000F0810000002804BF0120704710B5044637
:1016700090F83D0028B9002084F83C00204600F096
:101680001FF8022084F83D002068211D01F024F994
:10169000012084F8460084F83E0084F83F0084F876
:1016A000400084F8410084F8420084F8430084F844
:1016B000440084F8450084F83D00002010BD00007F
:1016C0007047000070470000B0B540F28021C2F2C0
:1016D000000100680968884200D0B0BD40F22C24A7
:1016E000C2F200042068411C05282160B8BFB0BDCB
:1016F00040F20805C2F20005297840F20C00C2F25F
:1017000000000122012300F017FE28780130C1B249
:10171000062988BF0420287000202060B0BD00008A
:10172000704700007047000070470000B0B582B0FD
:10173000044600680168C368426901F02F05202D46
:1017400003F0200506D12DB1204602B0BDE8B0401F
:1017500001F066B95FEA017C1EBF02F0010E03F4DE
:10176000907212EB0E0255D1226B012A05D111F0B5
:10177000100218BF13F0100236D10A0622D513F05A
:1017800080021FD094F83D10212941D1A168B1F504
:10179000805F03D12169002900F06C82216A4A1C14
:1017A000226209784160E18C01390A04E1842FD179
:1017B000C16821F08001C160C16841F04001C16091
:1017C00002B0B0BD490623D513F0400120D0C16856
:1017D00021F04001C1602021204684F83D1002B074
:1017E000BDE8B04000F07EBD00210191016801918B
:1017F0004168019101994169490600F18B80A18DF1
:10180000E28DE38D002B1CBF891A5FEA01420CD1E7
:1018100002B0B0BDCA0718BF13F4807240F0328125
:101820004A0700F135813AE1206850E8030F226849
:1018300020F4907042E80303DBB1206850E8030F06
:10184000226820F4907042E8030393B1206850E8C6
:10185000030F226820F4907042E803034BB1206824
:1018600050E8030F226820F4907042E80303002B35
:10187000DAD1206850E8050F226820F0010042E824
:101880000503DBB1206850E8050F226820F0010055
:1018900042E8050393B1206850E8050F226820F064
:1018A000010042E805034BB1206850E8050F2268AB
:1018B00020F0010042E80503002BDAD1202084F853
:1018C0003E0000202063206850E8030F226820F0CB
:1018D000100042E80303DBB1206850E8030F2268E0
:1018E00020F0100042E8030393B1206850E8030F92
:1018F000226820F0100042E803034BB1206850E852
:10190000030F226820F0100042E80303002BDAD115
:1019100089B2B0E0A26B11684B689DB2002D3FF414
:1019200077AFA18D8D42BFF473AFE385D269B2F575
:10193000807F00F09D8050E8030F216820F48070C4
:1019400041E80302E2B1206850E8030F216820F467
:10195000807041E803029AB1206850E8030F2168C3
:1019600020F4807041E8030252B1206850E8030F70
:10197000216820F4807041E803020AB12068DAE7A8
:10198000206850E8050F216820F0010041E80502B9
:10199000DAB1206850E8050F216820F0010041E825
:1019A000050292B1206850E8050F216820F001007F
:1019B00041E805024AB1206850E8050F216820F08F
:1019C000010041E80502002ADAD1206850E8050F3D
:1019D000216820F0400041E80502DAB1206850E8B3
:1019E000050F216820F0400041E8050292B120680F
:1019F00050E8050F216820F0400041E805024AB197
:101A0000206850E8050F216820F0400041E80502F9
:101A1000002ADAD1202084F83E00002020632068CC
:101A200050E8030F216820F0100041E80302DAB10A
:101A3000206850E8030F216820F0100041E80302FD
:101A400092B1206850E8030F216820F0100041E8AF
:101A500003024AB1206850E8030F216820F010000B
:101A600041E80302002ADAD1A06BFEF7F9FCA18D50
:101A7000E08D081A81B2204602B0BDE8B040FFF701
:101A800051BE00BF226C42F0010222644A0706D513
:101A9000BEF1000F03D0226C42F0020222648A07DA
:101AA00006D5BEF1000F03D0226C42F0040222647E
:101AB000BCF1000F06D555EA0E0203D0226C42F0AD
:101AC00008022264226C002A3FF4A2AE11F0200129
:101AD00018BF002D03D0204600F0A2FF2068416906
:101AE000226C01F0400102F00802891800F0A28087
:101AF00050E8030F216820F4907041E80302C2B35C
:101B0000206850E8030F216820F4907041E8030238
:101B10007AB3206850E8030F216820F4907041E800
:101B2000030232B3206850E8030F216820F490705C
:101B300041E80302EAB12068DAE700BF206850E814
:101B4000050F216820F0010041E80502DAB12068A4
:101B500050E8050F216820F0010041E8050292B12C
:101B6000206850E8050F216820F0010041E80502D7
:101B70004AB1206850E8050F216820F0010041E8D3
:101B80000502002ADAD1206B012824D1206850E810
:101B9000030F216820F0100041E80302DAB1206849
:101BA00050E8030F216820F0100041E8030292B1D1
:101BB000206850E8030F216820F0100041E803027C
:101BC0004AB1206850E8030F216820F0100041E876
:101BD0000302002ADAD1202084F83E00002020638E
:101BE0002068416949063FD550E8050F216820F07B
:101BF000400041E805022AB3206850E8050F21683B
:101C000020F0400041E80502E2B1206850E8050FED
:101C1000216820F0400041E805029AB1206850E8B0
:101C2000050F216820F0400041E8050252B120680C
:101C3000DAE700BF2046FFF777FD0020206402B0FE
:101C4000B0BD00BFA06B78B142F61521C0F600010F
:101C50000165FEF74FFC00283FF4DAADA06B016D83
:101C600002B0BDE8B0400847204602B0BDE8B04031
:101C7000FFF75ABD216A31F8022B6FF35F224260F1
:101C8000216290E5002804BF0120704710B504468A
:101C900090F83D0028B9002084F83C00204600F070
:101CA00021F8242084F83D002068C16821F4005107
:101CB000C160204600F034FF2068016921F49041A2
:101CC0000161416921F02A014161C16841F400517B
:101CD000C16000202021206484F83D1084F83E106B
:101CE00010BD00002DE9F04387B0006844F6FF31D5
:101CF000C4F2000188424FF000010691CDE90411C1
:101D0000CDE9021142DD41F20001C4F20101884235
:101D100078D045F20001C4F20001884200F0A680AC
:101D200044F60041C4F20001884240F017810020CF
:101D300043F630010190C4F202010A6942F4002224
:101D40000A610A6902F400220192019A01900A686C
:101D500042F004020A60096801F00401019101994E
:101D60004FF4406102910221CDE903100320059058
:101D7000082006900020C4F2020000F5006002A9CD
:101D8000FEF7DEFB07B0BDE8F08300BF44F2004180
:101D9000C4F20001884200F0B18044F60001C4F2B0
:101DA0000001884240F0DA80002043F630010190C3
:101DB000C4F202010A6942F480220A610A6902F44B
:101DC00080220192019A01900A6842F002020A60A0
:101DD000096801F00201019101994FF440610291FB
:101DE0000221CDE903100320059007200690002072
:101DF000C4F2020000F5806002A9FEF7A1FB07B063
:101E0000BDE8F083002043F630010190C4F20201E6
:101E10004A6942F010024A614A6902F010020192D6
:101E2000019A01900A6842F001020A60096801F013
:101E30000101019101994FF4C06102910221CDE9A4
:101E4000031003200590072006900020C4F2020032
:101E500002A9FEF775FB252001210022FEF7DCFC1C
:101E60002520FEF7C9FC07B0BDE8F083002543F646
:101E700030000195C4F202000169002741F480118D
:101E800001610169C4F2020701F480110191019915
:101E90000195016802AC41F00401016001684FF056
:101EA000020801F0040101910199019501684FF0C8
:101EB000030941F0080101600068082600F00800ED
:101EC000019001984FF48050029007F50060214680
:101ED000CDE90385CDF814900696FEF731FB04207A
:101EE000CDE90208CDE90459069607F54060214680
:101EF000FEF726FB07B0BDE8F08300BF002043F6E5
:101F000030010190C4F202010A6942F400320A6110
:101F10000A6902F400320192019A01900A6842F0C3
:101F200001020A60096801F00101019101990C2187
:101F300002910221CDE903100320059007200690AD
:101F40000020C4F2020002A9FEF7FAFA26200121BD
:101F50000022FEF761FC2620FEF74EFC07B0BDE82C
:101F6000F083000090F83E30202B0BD100294FF079
:101F7000010318BF002A01D11846704790F83C3081
:101F8000012B01D1022070470023036381622221CB
:101F90008285C285036480F83E100269016880F87A
:101FA0003C301AB1C86840F48070C86048690023AA
:101FB00040F001004861C86840F02000C860184641
:101FC00070470000B0B540F2C821C2F200010446DB
:101FD00000680968884228D140F21015C2F2000555
:101FE00015F8010FFEF7F8F940F2C820C2F2000020
:101FF00029460122FFF7B6FF40F23040C2F200004E
:10200000B0F904009FED151A00EE100AB8EEC00AF0
:102010009FED132A20EE010A40F27C41206820EE59
:10202000020AC2F2000181ED000A40F20C31C2F254
:1020300000010968884218BFB0BD40F2101440F298
:102040000C30C2F20004C2F2000021460122FFF768
:1020500089FF2078BDE8B04000F0B4B90000003836
:10206000000034432DE9F04381B0044690F83D0070
:1020700020280DD10F4600294FF0010000F0DD802F
:102080001646002A00F0D98094F83C00012803D1BC
:10209000022001B0BDE8F083012084F83C004FF03D
:1020A000000921201D46C4F8409084F83D00FEF749
:1020B00033FBA684E684A1680646B1F5805F07D1AC
:1020C000206900281CBF38464F46B846074601E045
:1020D0004FF0000884F83C90E18C2068002900F063
:1020E0008B8005F101090AE047B317F8011B416035
:1020F000E18C0139E184E18C002900F07D800168E8
:102100000906F1D4B9F1000F0AD0EDB1FEF704FBD6
:10211000801BA84218D8206801680906F6D5E3E7B5
:1021200001680906E0D4016809065CBF01685FEA3E
:102130000161D9D401680906F2D5D5E738F8021B48
:1021400000276FF35F21D2E7206850E8030F216872
:1021500020F4D07041E80302BAB3206850E8030FBE
:10216000216820F4D07041E8030272B3206850E87F
:10217000030F216820F4D07041E803022AB32068DD
:1021800050E8030F216820F4D07041E80302002AD0
:10219000DAD11AE0206850E8050F216820F001002C
:1021A00041E80502DAB1206850E8050F216820F007
:1021B000010041E8050292B1206850E8050F21684E
:1021C00020F0010041E805024AB1206850E8050FFF
:1021D000216820F0010041E80502002ADAD1202020
:1021E00084F83D0084F83E00002084F83C00032081
:1021F00001B0BDE8F08300BF0168490619D4FDB104
:10220000691C0DD10168490613D4016849065CBFF9
:1022100001685FEA41610CD401684906F2D508E023
:10222000FEF77AFA801BA8420AD8206800684006A8
:10223000F6D5202084F83D00002001B0BDE8F083F1
:10224000206850E8030F216820F4D07041E80302B1
:10225000E2B3206850E8030F216820F4D07041E811
:1022600003029AB3206850E8030F216820F4D0706D
:1022700041E8030252B3206850E8030F216820F4BC
:10228000D07041E80302002ADAD11FE0206850E84C
:10229000050F216820F0010041E80502002A9ED0C8
:1022A000206850E8050F216820F0010041E8050290
:1022B000002A3FF494AF206850E8050F216820F011
:1022C000010041E80502002A3FF489AF206850E888
:1022D000050F216820F0010041E80502002AD5D150
:1022E0007DE700007047000010B540F2141440F282
:1022F000C820C2F20004C2F2000021460122FFF70A
:1023000031FE40F23040C2F20000B0F904009FED0F
:10231000071A00EE100AB8EEC00A9FED052A20EE5B
:10232000010A20EE020A84ED010A10BD0000003807
:1023300000003443FEE7000070B54FF0030C80F856
:1023400001C04FEA122C80F802C04FEA132C80F82B
:1023500004C042F6C65C017081F0FF01C0F6000CBB
:102360001CF801E042F6C664C0F60004665C8EF01C
:10237000FC011CF8015086EA12266E40615CF6B240
:102380001CF8065051406940A65DC9B2C2701CF8E5
:10239000012086EA13267240615CD2B21CF802600A
:1023A00059407140C9B2A25C1CF80160437172408F
:1023B000635C8271D0F898200821C371BDE8704039
:1023C0001047000040F21C11C2F200010A784B1CB9
:1023D0009854487801320438C0B202280A700BD8E9
:1023E000D2B2082A38BF7047B1F8053004A252F8BB
:1023F00020001ABA120C028000200870704700BF3B
:102400001C0400201E0400202004002040F2302282
:10241000C2F200021168013181421160B8BF7047F9
:1024200040F600000023C4F202004FF40051136094
:10243000FEF764B970B586B0002643F63000059605
:102440000096C4F20200016840F6000441F0040165
:1024500001600168C4F2020401F0040100910099D6
:1024600000960168002241F08001016001684FF48C
:10247000005501F08001009100990096016841F03B
:1024800001010160016801F00101009100990096CD
:10249000016841F010010160016801F01001009134
:1024A00000990096016841F002010160016801F0A5
:1024B0000201009100990096016841F00801016055
:1024C00000684FF4005100F008000090009820468A
:1024D000FEF71CF90195012001ADCDE90206204669
:1024E00029460496FEF72CF84FF40040CDE901068A
:1024F000A4F5006029460396FEF722F806B070BDE9
:1025000080B540F2802042F20001C2F20000C4F225
:1025100000015322002340F69F7C80E80E108021AA
:1025200003618161FEF726FD002808BF80BDBDE87C
:102530008040FDF78FBF0000B0B59CB0002540F291
:102540003820C4F201050021C2F20000012242F24B
:10255000CF031691CDE914111191CDE90F11CDE9F9
:102560000D11CDE90B11CDE90911CDE90711CDE927
:102570000511CDE90311CDE90111C0E90052C0E90F
:102580000213C0E904118161FEF7F4FC002818BFB2
:10259000FDF760FF4FF48050139040F23820C2F2F4
:1025A000000013A9FEF7C2FD002818BFFDF752FF77
:1025B00040F23820C2F20000FFF754F8002818BF9C
:1025C000FDF748FF40F238200024C2F2000010A9B5
:1025D000CDE91044FEF772FC002818BFFDF73AFF62
:1025E0006020CDE9090440F23820C2F2000009A9B8
:1025F0000022CDE90B44CDE90D440F94FEF720FFF6
:10260000002818BFFDF726FF40F23820C2F2000074
:1026100009A90422FEF714FF002818BFFDF71AFFCE
:1026200040F23820C2F2000009A90822FEF708FF94
:10263000002818BFFDF70EFF40F23820C2F200005C
:1026400009A90C22FEF7FCFE002818BFFDF702FFC7
:1026500040F2382400204FF40051C2F200040590EB
:10266000CDE90300CDE901000691089001A92046BB
:10267000FEF7FEFB002818BFFDF7ECFE2068A8421D
:1026800002D01CB0B0BD00BF002043F6300117904F
:10269000C4F202010A6842F010020A60096801F0FF
:1026A0001001179117994FF4D44117910221CDE9E8
:1026B00018101A9001201B9005F5883017A9FDF716
:1026C0003FFF1CB0B0BD000080B540F2943044F62E
:1026D0000041C2F20000C4F2000100234FF00C0CD4
:1026E0004FF4E13280E80E00C0E90333C0E905C3CE
:1026F000C361FFF7C7FA002808BF80BDBDE880406E
:10270000FDF7A8BE80B540F2D83045F20001C2F214
:102710000000C4F2000100234FF00C0C4FF4E13232
:1027200080E80E00C0E90333C0E905C3C361FFF7C9
:10273000A9FA002808BF80BDBDE88040FDF78ABE29
:1027400080B540F2C82041F20001C2F20000C4F29C
:10275000010100234FF00C0C4FF4E13280E80E0031
:10276000C0E90333C0E905C3C361FFF78BFA002852
:1027700008BF80BDBDE88040FDF76CBE80B540F26B
:102780000C3044F20041C2F20000C4F20001002308
:102790004FF00C0C4FF4165280E80E00C0E90333E2
:1027A000C0E905C3C361FFF76DFA002808BF80BD0B
:1027B000BDE88040FDF74EBE80B540F2503044F693
:1027C0000001C2F20000C4F2000100234FF00C0C23
:1027D0004FF4E13280E80E00C0E90333C0E905C3DD
:1027E000C361FFF74FFA002808BF80BDBDE88040F5
:1027F000FDF730BEFEE70000FEE700007047000076
:1028000070470000FDF78EBFB0B592B0002443F6CC
:102810004000CDE90A44CDE908440594CDE90344DC
:10282000CDE901440094C4F202000168022541F0A0
:1028300080510160006800F080500090009847F2DD
:1028400000000094C4F20000016841F4804101607E
:102850000068A82100F480400090009801200690B4
:102860004FF4803007904FF480000D9004200E90BC
:10287000119006A80C95CDE90F15FEF717F928B1B0
:10288000EFF3108072B600BFFEE700BF0F20CDE966
:1028900001054FF4A05004904FF48050059001A81A
:1028A00005210394FDF7F4FF20B1EFF3108072B619
:1028B000FEE700BF12B0B0BD4EF68850CEF2000069
:1028C000016841F4700101607047000040F280200F
:1028D000C2F20000FEF7FABC10B540F6FF3E0368F6
:1028E000C4F2000E40F2004C7045C4F2010C27DC2B
:1028F000B0F1804F31D040F20042C4F20002904269
:102900002BD040F60002C4F20002904225D041F6DE
:10291000FF72C4F20002904229DC70453CDCB0F149
:10292000804F5FD040F20042C4F20002904259D082
:1029300040F60002C4F20002904253D056E000BFBD
:1029400040F60042C4F20002904206D0604504D036
:102950000022C4F201029042D9D14A6823F07003E8
:10296000134341F6FF72C4F200029042D5DD43F6F4
:10297000FF72C4F20102904222DC42F20002C4F271
:10298000000290422ED00022C4F20102904229D0CF
:10299000604527D02AE000BF40F60042C4F20002A2
:1029A00090421FD041F60002C4F20002904219D0BA
:1029B00041F60042C4F20002904213D016E000BF7C
:1029C00044F20002C4F2010290420BD044F600022D
:1029D000C4F20102904205D044F20042C4F2010266
:1029E000904203D1CA6823F44073134323F080025A
:1029F0004B69D1F800E08C681A430260C46240F46D
:102A00008062C0F828E0624504BF096901630121C2
:102A1000416110BD806B0021C185C184FEF784BE79
:102A200081B090F83E10222920D18368B3F5805FF1
:102A300008D10169002965D000F128010A680368FE
:102A40005B680AE0014651F8282F13B90369002B8F
:102A5000F5D003685B6803F07F0313700A680132E6
:102A60000A60C18D01390A04C18501D001B07047E7
:102A70000168CA6822F02002CA60CA6822F4807223
:102A8000CA604A6922F001024A61202280F83E2091
:102A9000026B012A40D10022026300BF51E8031FEC
:102AA000026821F0100142E803130168DBB151E82C
:102AB000031F026821F0100142E80313016893B17B
:102AC00051E8031F026821F0100142E80313016876
:102AD0004BB151E8031F026821F0100142E80313D3
:102AE0000168002BDAD10A68D20606D500220092CE
:102AF0000A680092496800910099818D01B0FEF743
:102B000011BE00BF0168826A49686FF35F2122F835
:102B1000021B8262A5E700BF01B0FFF753BA0000B5
:102B200010B504460068D4E902C22369016921F4A2
:102B3000405111430161626943EA0C01E3691143A9
:102B4000C268194349F20C639A431143C160416959
:102B5000A26921F4407141F20043114340F48062C4
:102B6000C4F201039A42416102D1FDF755FF01E031
:102B7000FDF73EFFE16963681922B1F5004FA0FB44
:102B800002011FD15A00DB0FFDF76EFB48F21F5107
:102B9000C5F2EB11A0FB01235A096FF0630302FB9E
:102BA0000300322303EBC000A0FB01014FF4F870D7
:102BB00000EA111000EB0210C1F342110844216831
:102BC000886010BD9A009B0FFDF74EFB48F21F5125
:102BD000C5F2EB11A0FB01235A096FF0630302FB5E
:102BE0000300322303EB0010A0FB0101F02000EAF8
:102BF000511000EB0210C1F34311084421688860B2
:102C000010BD000040F2C820C2F20000FEF78EBDE9
:102C100040F20C30C2F20000FEF788BDFEE7000073
:102C200010B504460420FEF7FDF840F23420C2F24D
:102C30000000046010BD0000FDF76EBCB0B582B0AE
:102C400042F6C65380F0FF02C0F6000313F802C03C
:102C500042F6C66EC0F6000E1EF802508CF0FC0262
:102C60009C5C1EF8022065405C5D8DF8000084EAE3
:102C7000020080F002001EF805201D5C1EF8000016
:102C80006A409D5C1EF8022068404840C0B21B5C50
:102C90001EF8000003248DF8051083EA02018DF868
:102CA000070040F20C30C0F202048DF80610C2F2A8
:102CB0000000694608226423CDF80140FFF7D2F9ED
:102CC00002B0B0BDFDF73CFDFFF79EFDA820FFF769
:102CD000A7FFFFF7AFFBFFF72FFCFFF7F5FCFFF7B0
:102CE00011FDFFF72DFDFFF749FDFFF765FDFFF72C
:102CF00007FCFFF7F9FA40F28024C2F200042068D2
:102D00006FF00101016140F20C3040F21011C2F28B
:102D10000000C2F200010122FFF724F92046FEF76D
:102D200091F904200021FFF789FF05200021FFF71A
:102D300085FF06200021FFF781FF00BF0120FFF77C
:102D400065FB4FF4FA70FDF7E7FBF7E7704700000B
:102D50007047000010B50C46014640F20C30A2B29C
:102D6000C2F200006423FFF77DF9002818BF002499
:102D7000204610BD40F28020C2F20000016800220F
:102D80004A62FEF75FB9000040F28020C2F2000004
:102D9000FEF7AEB9F1EE100A4FF6FF71C0F2C03186
:102DA00020EA010040F04070E1EE100A7047000098
:102DB00000000000000001020304060708090000EB
:102DC00000000102030400C1814001C0804101C034
:102DD000804100C1814001C0804100C1814000C1EB
:102DE000814001C0804101C0804100C1814000C1DB
:102DF000814001C0804100C1814001C0804101C0CB
:102E0000804100C1814001C0804100C1814000C1BA
:102E1000814001C0804100C1814001C0804101C0AA
:102E2000804100C1814000C1814001C0804101C09A
:102E3000804100C1814001C0804100C1814000C18A
:102E4000814001C0804101C0804100C1814000C17A
:102E5000814001C0804100C1814001C0804101C06A
:102E6000804100C1814000C1814001C0804101C05A
:102E7000804100C1814001C0804100C1814000C14A
:102E8000814001C0804100C1814001C0804101C03A
:102E9000804100C1814001C0804100C1814000C12A
:102EA000814001C0804101C0804100C1814000C11A
:102EB000814001C0804100C1814001C0804101C00A
:102EC000804100C1814000C0C101C30302C2C606E7
:102ED00007C705C5C404CC0C0DCD0FCFCE0E0ACA52
:102EE000CB0BC90908C8D81819D91BDBDA1A1EDEA2
:102EF000DF1FDD1D1CDC14D4D515D71716D6D21252
:102F000013D311D1D010F03031F133F3F23236F661
:102F1000F737F53534F43CFCFD3DFF3F3EFEFA3A11
:102F20003BFB39F9F83828E8E929EB2B2AEAEE2EA1
:102F30002FEF2DEDEC2CE42425E527E7E62622E211
:102F4000E323E12120E0A06061A163A3A26266A661
:102F5000A767A56564A46CACAD6DAF6F6EAEAA6AD1
:102F60006BAB69A9A86878B8B979BB7B7ABABE7E21
:102F70007FBF7DBDBC7CB47475B577B7B67672B2D1
:102F8000B373B17170B05090915193535292965661
:102F90005797559594549C5C5D9D5F9F9E5E5A9A91
:102FA0009B5B99595898884849894B8B8A4A4E8E21
:102FB0008F4F8D4D4C8C4484854587474686824291
:102FC0004383418180400000E82F0008000000207A
:102FD000B0000000C401000898300008B0000020D4
:102FE000D0090000E001000801000000100000000E
:102FF00004000000000000000000000000000000CD
:1030000000000000000000000000000000000000C0
:1030100000000000000000000000000000000000B0
:1030200000000000000000000000000000000000A0
:103030000000000000000000000000000000000090
:103040000000000000000000000000000000000080
:103050000000000000000000000000000000000070
:103060000000000000000000000000000000000060
:1030700000000000000000004D2D0008512D000848
:10308000392C0008892D0008752D0008552D0008E1
:083090000024F4000000000020
:040000050800018965
:00000001FF
