:020000040800F2
:10000000880B002029020008892600083D220008EC
:100010008526000869040008D52E000800000000AD
:10002000000000000000000000000000412A00085D
:10003000E5040008000000003D2A0008752A0008B9
:10004000430200084302000843020008430200087C
:10005000430200084302000843020008430200086C
:10006000430200084302000843020008430200085C
:10007000430200084302000843020008430200084C
:10008000430200084302000843020008430200083C
:10009000430200084302000843020008430200082C
:1000A000430200084302000843020008430200081C
:1000B000430200084302000843020008430200080C
:1000C00043020008430200084302000843020008FC
:1000D000430200088D2E0008992E0008A52E000866
:1000E00043020008430200084302000843020008DC
:1000F00043020008552B0008430200084302000891
:1001000043020008430200084302000843020008BB
:1001100043020008430200083D2B0008492B000859
:10012000430200084302000843020008430200089B
:10013000430200084302000843020008430200088B
:10014000430200084302000843020008430200087B
:10015000430200084302000843020008430200086B
:10016000430200084302000843020008430200085B
:100170004302000843020008430200080000000098
:10018000430200084302000800F002F800F03CF8C7
:100190000AA090E8000C82448344AAF10107DA45E2
:1001A00001D100F031F8AFF2090EBAE80F0013F0F8
:1001B000010F18BFFB1A43F001031847EC3500008C
:1001C0000C360000103A24BF78C878C1FAD852071C
:1001D00024BF30C830C144BF04680C6070470000C1
:1001E0000023002400250026103A28BF78C1FBD840
:1001F000520728BF30C148BF0B6070471FB503F0DE
:10020000B3F81FBD10B510BD00F0D0F81146FFF7D0
:10021000F5FF02F05BFF00F0EEF803B4FFF7F2FF2A
:1002200003BC00F0F5F80000094880470948004782
:10023000FEE7FEE7FEE7FEE7FEE7FEE7FEE7FEE796
:10024000FEE7FEE704480549054A064B70470000F3
:10025000292B00088901000888050020880B002050
:10026000880700208807002053EA020C00F069800C
:100270002DE9F04B4FF00006002B1FBFB3FA83F5BA
:1002800003FA05F424FA05F65E4012BF1643B2FAEB
:1002900082F502FA05F4C5F120051EBF22FA05FC1D
:1002A00044EA0C04203556EA044C4FEA144418BFC3
:1002B000641C4FF000084FF00009904271EB030CF2
:1002C00039D3002919BFB1FA81F701FA07F6B0FA5C
:1002D00080F700FA07F6C7F120071EBF20FA07FCD7
:1002E00046EA0C062037B6FBF4FCA7EB0507103FE7
:1002F00007F01F0BCBF120062CFA06F60CFA0BFBCD
:1003000044BFB3460026202FA4BF5E464FF0000B2B
:100310005BEA060C08BF4FF0010B19EB0B0948EB29
:100320000608ABFB027C06FB02CC0BFB03CCC01B1C
:1003300071EB0C01C1E70B46024641464846BDE859
:10034000F08B13B5084318BF4FF0FF300146AFF3F1
:100350000080BDE81C4070474FF0000200B5134616
:1003600094469646203922BFA0E80C50A0E80C50D5
:10037000B1F12001BFF4F7AF090728BFA0E80C5086
:1003800048BF0CC05DF804EB890028BF40F8042B7F
:1003900008BF704748BF20F8022B11F0804F18BFEC
:1003A00000F8012B7047704770477047754600F0A2
:1003B0002BF8AE4605006946534620F007008546F7
:1003C00018B020B5FFF73EFFBDE820404FF0000613
:1003D0004FF000074FF000084FF0000BAC46ACE8C0
:1003E000C009ACE8C009ACE8C009ACE8C00921F01C
:1003F00007018D46704710B50446AFF300802046D4
:10040000BDE81040FFF709BF00487047B00000206A
:1004100001491820ABBEFEE726000200704700002D
:100420009FED0E2A9FED0C1AB4EE420A9FED0C2AA6
:100430009FED0C3A30EE011AF1EE10FA30EE022A7E
:10044000B4EE430AC8BFB0EE410AF1EE10FAB8BFED
:10045000B0EE420A704700BF0000B4C3000034434E
:100460000000B443000034C3FEE7000040F29E2CBD
:10047000C2F2000C9CF8003040F2A412C2F200025A
:10048000D0541178581C55298CF8000011D1C0B2F5
:100490000B2838BF704750785038C0B2092808D8A8
:1004A00006A151F82000D2F80210D2F80620C0E9C7
:1004B000001200208CF80000704700BF700500207B
:1004C00028050020480500203005002058050020A0
:1004D0003805002060050020500500204005002060
:1004E0006805002070470000B0B541F2000440F2FA
:1004F0002015C4F20204C2F20005E8B10120287000
:1005000020464FF40051012200F096F920464FF4A6
:100510008041002200F090F9012002F06BF90220E6
:1005200002F068F9032002F03DF9042002F03AF9E4
:1005300000206860A860B0BD0020287020464FF4FD
:100540000051002200F078F920464FF4804101224A
:1005500000F072F9012002F025F9022002F022F9E0
:10056000032002F047F9042002F044F900206860FB
:10057000A860B0BDEFF3108072B600BFFEE70000C8
:1005800070B5866D044600F05DF994F835100229C7
:100590002ED105462068216C026822F01602026006
:1005A000426922F08002426109B9A16C19B1016867
:1005B00021F008010160016821F00101016000687B
:1005C000C00708D000F03EF9401B052818D8206865
:1005D0000068C007F6D1E06D3F2101FA00F0B0607D
:1005E000012084F835000020002184F8341070BD0B
:1005F000802060650120002184F8341070BD00BFA8
:1006000020206065032084F83500002184F8341030
:1006100070BD000090F83510022909D1052180F83D
:1006200035100068016821F0010101600020704769
:100630008021416501207047B0B5044600F002F901
:10064000054640F20000C2F200000078611C18BFAD
:10065000044400BF00F0F6F8401BA042FAD3B0BD3E
:100660002DE9F04F82B000F13E4241F6004502F123
:10067000FF77C4F2020508224FEAB726A84208BF56
:100680000722072E38BF4FEAB7224FF0010A002495
:1006900000274FF00008009208E000BF023708F181
:1006A0000108202F04F1040400F0B4800E680AFA57
:1006B00008F916EA090FF1D0D1F804A00AF0030BEB
:1006C000ABF10106012E17D80322866802FA07FE55
:1006D000CA6826EA0E06BA40324382604268CAF30C
:1006E000001522EA090205FA08F54FEA480C6FEAFC
:1006F0000E062A4342600BE00322BA40D643BBF108
:10070000030FBC4604D1BC464FF0030B22E000BFF0
:10071000C2688D68324005FA0CF52A43BBF1020F1E
:10072000C26017D16FF0030202EA5802024404F0DB
:100730001C030F25D2F820E005FA03FA0D692EEA12
:100740000A0E05FA03F343EA0E031362D1F804A07C
:100750000AF0030B02680BFA0CF332401A431AF446
:10076000403F4FF0010A026098D0002243F6440354
:100770000192C4F202031A6843F6004E42F480422A
:100780001A601A68C4F2010E02F480420192019AC2
:1007900028F003024FF6084C7244CFF6FF7C52F863
:1007A0000C3004F00C060F25B540AB43009D05FA54
:1007B00006F6334342F80C30DEF808204B6842EA74
:1007C000090643F60C4CDD0258BF22EA0906CEF8B2
:1007D0000860C4F2010CDCF800209D0242EA090620
:1007E00058BF22EA0906CCF80060DEF804209D0319
:1007F00042EA090658BF22EA0906CEF80460DEF88C
:100800000020DB0342EA090658BF22EA0906CEF8B7
:10081000006043E702B0BDE8F08F000000690840C7
:1008200018BF012070470000426902EA01039143AA
:1008300041EA034181617047002A08BF09048161D0
:100840007047000040F27C50C2F200000068704720
:1008500040F2000040F27C51C2F20000C2F20001FE
:1008600000780A68104408607047000080B543F6BD
:100870000040C4F20200016841F4007101600168A7
:1008800041F480610160016841F4807101600320DE
:1008900000F084F80F2000F005F800F027F80020A1
:1008A00080BD000070B540F20006C2F2000640F2C2
:1008B000A8013278C2F200014FF47A730968B3FBE1
:1008C000F2F20446B1FBF2F1084600F04DFB0F2CAA
:1008D0004FF0010508D838B94FF0FF30214600220B
:1008E000002500F02FF87460284670BD82B000200B
:1008F00043F640010190C4F202014A6842F480428A
:100900004A604A6802F480420192019A00900868A5
:1009100040F080500860086800F080500090009817
:1009200002B07047002848BF704700F01F01012245
:1009300002FA01F14EF200124009CEF2000242F832
:100940002010704710B54EF60C5CCEF2000CDCF8AF
:100950000030C3F3022E8EF00704042C28BF0424B9
:10096000BEF103034FF0FF3E0EFA04F438BF00233C
:10097000A14399400EFA03F39A43114300F00F028A
:10098000043A624409010C3200F16043B0F1FF3FC8
:10099000C8BF03F56442117010BD00004EF60C5143
:1009A000CEF200010A684FF6FF031A4060F30A22F4
:1009B00042F0806040F0FD70086070472DE9F04122
:1009C000002800F08B8043F60808C4F202080446B1
:1009D000D8F8F8030D4600F00700884207D288F8DF
:1009E000F853D8F8F80300F00700A84276D1206841
:1009F000810717D5410705D5D8F8001041F4E0511B
:100A0000C8F80010010705D5D8F8001041F460417E
:100A1000C8F80010D8F80010A26821F0F0011143C6
:100A2000C8F80010C0073FD1D8F8F80300F007005D
:100A3000A84207D988F8F853D8F8F80300F007005F
:100A4000A8424BD12068410707D5D8F80010E268CA
:100A500021F4E0511143C8F80010000708D5D8F878
:100A60000000216920F4604040EAC100C8F800009D
:100A700000F07CF8D8F8001043F28232C1F3031181
:100A8000C0F60002515C40F2A80220FA01F140F2E7
:100A90000400C2F200000068C2F200021160FFF719
:100AA00001FF0020BDE8F0816068811E022907D2A5
:100AB00058F8081C89015CBF0120BDE8F08111E0F5
:100AC000012807D158F8081C89035CBF0120BDE844
:100AD000F08107E058F8081C890703D40120BDE81D
:100AE000F08100BFD8F8001021F003010843C8F8D6
:100AF0000000FFF7A7FE064641F28837D8F800004D
:100B0000616800F00C00B0EB810F8DD0FFF79AFE0A
:100B1000801BB842F2D90320BDE8F08140F2A80062
:100B200043F60801C2F20000C4F20201006809683D
:100B300043F29232C1F38221C0F60002515CC840F8
:100B40007047000040F2A80043F60801C2F200001E
:100B5000C4F202010068096843F29232C1F34231E3
:100B6000C0F60002515CC8407047000010B543F663
:100B70000404C4F20204606800F00C0142F2004078
:100B80000829C0F2F40007D0042918BF10BD41F2B3
:100B90000020C0F27A0010BD216801F03F022168F8
:100BA00023684902C3F3881106D4A1FB0001002386
:100BB000FFF75AFB07E000BF41F20020C0F27A00C5
:100BC0004843B0FBF2F021680222C1F3014102EB7D
:100BD0004101B0FBF1F010BD2DE9F04182B00028D9
:100BE0006AD00446007843F60006C007C4F2020645
:100BF0000BD0B06800F00C00042840F0A1803068F1
:100C0000800302D56068002856D0207880071AD566
:100C1000B06810F00C0F09D0B06800F00C00082884
:100C200040F0A8807068400200F1A480306880071E
:100C300002D5E06801283FD13068216920F0F80032
:100C400040EAC10030602078000739D4207840079E
:100C50004ED4A5695DB3B06800F00C00082840F0E0
:100C6000BD80012D28D07068E16900F480028A42BD
:100C700022D1216A00F03F028A421DD147F6C0719D
:100C8000626A0140B1EB821F16D1A26A0023CFF63F
:100C9000FF7303EBC23200F440316FF30F02914255
:100CA0000AD1E16A00F07060B0EB016F04D100205E
:100CB00002B0BDE8F08100BF012002B0BDE8F081C4
:100CC0006069002840F20000C4F2472076D001217C
:100CD000C0F8801EFFF7B6FD054600BF706F8007A5
:100CE000B4D4FFF7AFFD401B0228F7D9DDE000BF09
:100CF000306C10F080580AD100200190306C40F028
:100D000080503064306C00F080500190019847F2C0
:100D10000007C4F200073868C00541D4386840F4C1
:100D200080703860FFF78EFD054600BF3868C0054B
:100D300036D4FFF787FD401B0228F7D9B5E000BF86
:100D4000B06800F00C00082803D1706840023FF53D
:100D500056AF6068B0F5803F07D0B0F5A02F40F0E7
:100D60008D80306840F480203060306840F48030FE
:100D700030608DE0E068002852D00020C4F24720A7
:100D800001210160FFF75EFD054600BF3068800766
:100D90003FF552AFFFF756FD401B0228F6D984E01D
:100DA000A068012805D005284ED1306F40F004001E
:100DB0003067306F40F0010030674FE00021C0F82D
:100DC000801EFFF73FFD0546706F80077FF53EAF41
:100DD000FFF738FD401B0228F6D966E00027C4F271
:100DE000472700203866FFF72DFD022D05460BD161
:100DF000306880015ED5FFF725FD401B02284FF0CB
:100E00000300F5D954E700BF306880017FF54FAF8C
:100E1000FFF718FD401B02284FF00300F4D947E705
:100E20000020C4F2472000210160FFF70BFD0546BA
:100E3000306880077FF507AFFFF704FD401B0228ED
:100E40004FF00300F4D933E7316F002821F001019E
:100E50003167316F21F0040131674DD0FFF7F2FCAB
:100E6000054641F2883700BF306F800756D4FFF740
:100E7000E9FC401BB842F7D917E000BF31680028F1
:100E800021F480313160316821F4802131604FD00C
:100E9000FFF7D8FC054600BF306880033FF5B5AECC
:100EA000FFF7D0FC401B6428F6D9032002B0BDE850
:100EB000F08100BF04F11C052FCD08430021CFF6BF
:100EC000FF7140EA821001EBC3316FF30F0140EA7A
:100ED00005600843706001203866FFF7B3FC0446E4
:100EE000306880013FF5E3AEFFF7ACFC001B022841
:100EF0004FF00300F4D9DBE6FFF7A4FC054641F20E
:100F0000883700BF306F800708D5FFF79BFC401B78
:100F1000B8424FF00300F5D9CAE600BFB8F1000FA0
:100F20007FF497AE306C20F08050306491E600BFC3
:100F3000FFF788FC054600BF306880037FF565AE8B
:100F4000FFF780FC401B64284FF00300F4D9AFE6A4
:100F50004EF21001CEF200010A68042822F00402C9
:100F600008BF04320A607047411E0020B0EB116FC9
:100F70001CBF012070474EF21002CEF200025160F9
:100F80004EF62351CEF20001F0230B700721906042
:100F900011607047704700007047000010B590F86E
:100FA0003C20012A4FF0020251D080F83D20026817
:100FB000D2F804E0D2F808C00C682EF07003234386
:100FC00041F2FF74C4F20004A24253600EDC40F20E
:100FD000FF73C4F200039A4216DCB2F1804F2BD0AB
:100FE00040F20043C4F2000324E000BF40F2FF33AC
:100FF000C4F201039A4213DC41F60003C4F2000379
:101000009A4219D0002313E040F60003C4F2000313
:101010009A4211D040F60043C4F200030AE000BF38
:1010200044F20003C4F201039A4205D040F20043A7
:10103000C4F201039A4204D149682CF08003194399
:1010400091600121002280F83D1080F83C2010467C
:1010500010BD0000002804BF0120704710B50446F1
:1010600090F83D0028B9002084F83C00204600F0AC
:101070001FF8022084F83D002068211D01F070FD5A
:10108000012084F8460084F83E0084F83F0084F88C
:10109000400084F8410084F8420084F8430084F85A
:1010A000440084F8450084F83D00002010BD000095
:1010B00010B584B0006842F20001C4F20001884219
:1010C00022D041F20041C4F20001884230D041F206
:1010D0000001C4F2000188421CBF04B010BD002012
:1010E000039043F64000C4F202000168002241F080
:1010F000100101600068032100F0100003900398C4
:101100003620362427E000BF0020019043F640003F
:10111000C4F202000168002241F48071016000689D
:10112000022100F48070019001982D202D2412E0FE
:101130000020029043F64000C4F202000168002241
:1011400041F0200101600068002100F020000290C1
:10115000029837203724FFF7F5FB204604B0BDE89E
:101160001040FFF7DFBB000090F83D1001291CBFC5
:1011700001207047022180F83D10006841F2FF72A3
:10118000C168C4F20002904241F00101C1600DDC6F
:1011900040F2FF71C4F20001884215DCB0F1804FCB
:1011A0002AD040F20041C4F2000123E040F2FF31B6
:1011B000C4F20101884213DC41F60001C4F20001CF
:1011C000884219D0002113E040F60001C4F200016A
:1011D000884211D040F60041C4F200010AE000BF8D
:1011E00044F20001C4F20101884205D040F20041FE
:1011F000C4F20101884206D1816801F00701062985
:1012000004BF00207047016841F001010160002027
:10121000704700000146006841F21113C26822F0D5
:101220000102C260026A1A4204D00122002081F841
:101230003D207047026A40F244431A42F5D10268E9
:1012400022F0010202600122002081F83D20704757
:101250007047000010B5016804460869800744BF64
:10126000C8685FEA807039D40869400744BFC8681D
:101270005FEA40703ED40869000744BFC8685FEA6F
:10128000007045D40869C00644BFC8685FEAC06002
:101290004AD40869C0071CBFC8685FEAC07051D152
:1012A0000869000644BFC8685FEA006052D4086954
:1012B000400644BFC8685FEA406053D408698006AE
:1012C00046BFC8685FEA806010BD6FF0200220460C
:1012D0000A61BDE81040FFF75FBE00BF6FF002007B
:1012E0000861012020778869800743D02046FFF7F6
:1012F000AFFF45E06FF004000861022020778869A5
:1013000010F4407F40D02046FFF7A2FF42E000BF2C
:101310006FF00800086104202077C86980073DD07D
:101320002046FFF795FF3FE06FF0100008610820AE
:101330002077C86910F4407F3AD02046FFF788FF35
:101340003CE000BF6FF001000861204600F03EF86D
:101350002168A5E76FF0800008612046FFF71AFEBC
:101360002168A4E76FF040000861204600F0E2F831
:101370002168A3E7204600F025F8204600F024F875
:101380002168002020776FE7204600F01BF82046F8
:1013900000F01AF82168002020776CE7204600F062
:1013A00011F8204600F010F821680020207769E746
:1013B000204600F007F8204600F006F821680020DB
:1013C000207766E7704700007047000070B540F274
:1013D000EC21C2F20001044600680968884221D16C
:1013E000642000F0BBFF40F21015C2F20005A868AF
:1013F000411C0528A96015DB40F20806C2F2000670
:10140000317840F20C00C2F200000122012300F00A
:1014100033FF30780130C1B2062988BF0420307014
:101420000020A86040F23430C2F20000844262D151
:1014300040F21015C2F200056868411C2828696056
:1014400059DB40F23050C2F20000B0F904009FEDC9
:10145000351A00EE100AB8EEC00A9FED332A40F2AA
:101460002C1020EE010AC2F2000020EE020A90EDDC
:10147000061A9FED2E2A40F2805631EE022AB4EE73
:10148000420AC2F20006F1EE10FA86ED000A0BDD08
:101490009FED272A31EE021AB4EE410AF1EE10FA5E
:1014A00002DA002020E000BF40F27850C2F20000D3
:1014B00090ED000A40F21850C2F2000090ED001AC0
:1014C00030EE010AFEF7ACFFF0EE400A96ED000A9E
:1014D00040F22C10C2F20000C5ED030A01F0E6F95B
:1014E000BDEEC00A10EE100A40F22451C2F2000113
:1014F00008600020686040F27C31C2F20001206880
:101500000968884218BF70BD40F2E621C2F20001AE
:10151000012240F27C30C2F200000A80BDE8704037
:10152000FFF778BE0000003800003443CDCCCCBDBE
:10153000CDCCCC3D7047000081B090F83E30202BE0
:101540000CD100294FF0010318BF002A02D1184620
:1015500001B0704790F83C30012B03D102231846AC
:1015600001B070470123036381628285C285002236
:101570002221026480F83E100369016880F83C2053
:101580001BB1CA6842F48072CA604A6942F0010223
:101590004A61CA6842F02002CA60026B012A39D14E
:1015A000002300930A6800924A680092009A51E86A
:1015B000031FD0F800C041F010014CE80312002ACC
:1015C000C5D000BF016851E8031F026841F0100157
:1015D00042E8031313B3016851E8031F026841F0A6
:1015E000100142E80313CBB1016851E8031F026800
:1015F00041F0100142E8031383B1016851E8031F71
:10160000026841F0100142E80313002B4FF0000381
:10161000D8D19CE70123184601B070470023184633
:1016200001B0704780B540F24C41C2F20001006841
:101630000968884218BF80BD40F24C4040F2A421A6
:10164000C2F20000C2F200014022FFF775FF40F233
:101650007C30C2F20000016800224A62BDE880408E
:10166000FFF782BD70470000B0B582B00446006845
:101670000168C368426901F02F05202D03F02005A1
:1016800006D12DB1204602B0BDE8B04001F00CBB40
:101690005FEA017C1EBF02F0010E03F4907212EBB0
:1016A0000E0255D1226B012A05D111F0100218BF8C
:1016B00013F0100236D10A0622D513F080021FD093
:1016C00094F83D10212941D1A168B1F5805F03D183
:1016D0002169002900F06C82216A4A1C2262097883
:1016E0004160E18C01390A04E1842FD1C16821F005
:1016F0008001C160C16841F04001C16002B0B0BD6D
:10170000490623D513F0400120D0C16821F04001E3
:10171000C1602021204684F83D1002B0BDE8B040F1
:1017200000F06ABD002101910168019141680191B9
:1017300001994169490600F18B80A18DE28DE38D0D
:10174000002B1CBF891A5FEA01420CD102B0B0BD68
:10175000CA0718BF13F4807240F032814A0700F1C3
:1017600035813AE1206850E8030F226820F4907038
:1017700042E80303DBB1206850E8030F226820F43D
:10178000907042E8030393B1206850E8030F226889
:1017900020F4907042E803034BB1206850E8030F37
:1017A000226820F4907042E80303002BDAD120680D
:1017B00050E8050F226820F0010042E80503DBB184
:1017C000206850E8050F226820F0010042E8050378
:1017D00093B1206850E8050F226820F0010042E82C
:1017E00005034BB1206850E8050F226820F0010086
:1017F00042E80503002BDAD1202084F83E000020C7
:101800002063206850E8030F226820F0100042E8AF
:101810000303DBB1206850E8030F226820F01000BA
:1018200042E8030393B1206850E8030F226820F0D8
:10183000100042E803034BB1206850E8030F226810
:1018400020F0100042E80303002BDAD189B2B0E0A7
:10185000A26B11684B689DB2002D3FF477AFA18D4C
:101860008D42BFF473AFE385D269B2F5807F00F09B
:101870009D8050E8030F216820F4807041E8030246
:10188000E2B1206850E8030F216820F4807041E83D
:1018900003029AB1206850E8030F216820F4807099
:1018A00041E8030252B1206850E8030F216820F498
:1018B000807041E803020AB12068DAE7206850E846
:1018C000050F216820F0010041E80502DAB1206827
:1018D00050E8050F216820F0010041E8050292B1AF
:1018E000206850E8050F216820F0010041E805025A
:1018F0004AB1206850E8050F216820F0010041E856
:101900000502002ADAD1206850E8050F216820F08E
:10191000400041E80502DAB1206850E8050F21686F
:1019200020F0400041E8050292B1206850E8050F20
:10193000216820F0400041E805024AB1206850E8E3
:10194000050F216820F0400041E80502002ADAD1A5
:10195000202084F83E0000202063206850E8030F18
:10196000216820F0100041E80302DAB1206850E855
:10197000030F216820F0100041E8030292B12068B3
:1019800050E8030F216820F0100041E803024AB13B
:10199000206850E8030F216820F0100041E803029E
:1019A000002ADAD1A06BFEF7EBFDA18DE08D081ABD
:1019B00081B2204602B0BDE8B040FFF733BE00BFA1
:1019C000226C42F0010222644A0706D5BEF1000FE4
:1019D00003D0226C42F0020222648A0706D5BEF1CF
:1019E000000F03D0226C42F004022264BCF1000F0D
:1019F00006D555EA0E0203D0226C42F0080222649A
:101A0000226C002A3FF4A2AE11F0200118BF002D75
:101A100003D0204601F048F920684169226C01F0AA
:101A2000400102F00802891800F0A28050E8030F7C
:101A3000216820F4907041E80302C2B3206850E8A6
:101A4000030F216820F4907041E803027AB3206804
:101A500050E8030F216820F4907041E8030232B38C
:101A6000206850E8030F216820F4907041E80302D9
:101A7000EAB12068DAE700BF206850E8050F216866
:101A800020F0010041E80502DAB1206850E8050FB6
:101A9000216820F0010041E8050292B1206850E879
:101AA000050F216820F0010041E805024AB12068D5
:101AB00050E8050F216820F0010041E80502002AE6
:101AC000DAD1206B012824D1206850E8030F216867
:101AD00020F0100041E80302DAB1206850E8030F5B
:101AE000216820F0100041E8030292B1206850E81C
:101AF000030F216820F0100041E803024AB120687A
:101B000050E8030F216820F0100041E80302002A8A
:101B1000DAD1202084F83E0000202063206841694B
:101B200049063FD550E8050F216820F0400041E804
:101B300005022AB3206850E8050F216820F0400014
:101B400041E80502E2B1206850E8050F216820F065
:101B5000400041E805029AB1206850E8050F21686D
:101B600020F0400041E8050252B12068DAE700BFEA
:101B70002046FFF777FD0020206402B0B0BD00BF13
:101B8000A06B78B142F69D41C0F600010165FEF7F9
:101B900041FD00283FF4DAADA06B016D02B0BDE855
:101BA000B0400847204602B0BDE8B040FFF75ABD3C
:101BB000216A31F8022B6FF35F224260216290E5C7
:101BC000002804BF0120704710B5044690F83D007E
:101BD00028B9002084F83C00204600F021F8242099
:101BE00084F83D002068C16821F40051C16020469E
:101BF00001F0DAF82068016921F49041016141693E
:101C000021F02A014161C16841F40051C160002006
:101C10002021206484F83D1084F83E1010BD00009F
:101C20002DE9F04387B0006844F6FF31C4F20001AB
:101C300088424FF000010691CDE90411CDE902116F
:101C400042DD41F20001C4F20101884200F08080CF
:101C500045F20001C4F20001884200F0AD8044F674
:101C60000041C4F20001884240F01E81002043F68A
:101C700030010190C4F202010A6942F400220A61B3
:101C80000A6902F400220192019A01900A6842F066
:101C900004020A60096801F00401019101994FF4FE
:101CA000406102910221CDE9031003200590082034
:101CB00006900020C4F2020000F5006002A9FEF7C1
:101CC000CFFC07B0BDE8F08344F20041C4F200014C
:101CD000884200F0B98044F60001C4F20001884255
:101CE00040F0E280002043F630010190C4F202018E
:101CF0000A6942F480220A610A6902F48022019290
:101D0000019A01900A6842F002020A60096801F033
:101D10000201019101994FF4406102910221CDE944
:101D2000031003200590072006900020C4F2020053
:101D300000F5806002A9FEF793FC27200121002214
:101D4000FEF700FE2720FEF7EDFD07B0BDE8F083AB
:101D5000002043F630010190C4F202014A6942F0CA
:101D600010024A614A6902F010020192019A019040
:101D70000A6842F001020A60096801F0010101915C
:101D800001994FF4C06102910221CDE903100320B3
:101D90000590072006900020C4F2020002A9FEF779
:101DA0005FFC252001210022FEF7CCFD2520FEF757
:101DB000B9FD07B0BDE8F083002543F6300001957A
:101DC000C4F202000169002741F480110161016938
:101DD000C4F2020701F48011019101990195016893
:101DE00002AC41F00401016001684FF0020801F00B
:101DF000040101910199019501684FF0030941F037
:101E0000080101600068082600F0080001900198B0
:101E10004FF48050029007F500602146CDE903851C
:101E2000CDF814900696FEF71BFC0420CDE90208BD
:101E3000CDE90459069607F540602146FEF710FCEF
:101E400007B0BDE8F08300BF002043F630010190E9
:101E5000C4F202010A6942F400320A610A6902F41A
:101E600000320192019A01900A6842F001020A6070
:101E7000096801F00101019101990C2102910221EF
:101E8000CDE9031003200590072006900020C4F23E
:101E9000020002A9FEF7E4FB262001210022FEF742
:101EA00051FD2620FEF73EFD07B0BDE8F08300009F
:101EB00090F83E30202B0BD100294FF0010318BFC2
:101EC000002A01D11846704790F83C30012B01D10F
:101ED0000220704700230363816222218285C2852C
:101EE000036480F83E100269016880F83C301AB142
:101EF000C86840F48070C8604869002340F0010061
:101F00004861C86840F02000C8601846704700006B
:101F1000B0B540F2C431C2F200010446006809685D
:101F2000884210D140F21015C2F2000515F8010FD9
:101F3000FEF79CFA40F2C430C2F2000029460122AA
:101F4000FFF7B6FF206840F20841C2F200010968BD
:101F5000884218BFB0BD40F2101440F20840C2F2EF
:101F60000004C2F2000021460122FFF7A1FF207801
:101F7000BDE8B04000F0CEB92DE9F04381B0044691
:101F800090F83D0020280DD10F4600294FF00100A8
:101F900000F0DD801646002A00F0D98094F83C005D
:101FA000012803D1022001B0BDE8F083012084F8AC
:101FB0003C004FF0000921201D46C4F8409084F8F1
:101FC0003D00FEF73FFCA684E684A1680646B1F515
:101FD000805F07D1206900281CBF38464F46B846AD
:101FE000074601E04FF0000884F83C90E18C20683F
:101FF000002900F08B8005F101090AE047B317F8CA
:10200000011B4160E18C0139E184E18C002900F081
:102010007D8001680906F1D4B9F1000F0AD0EDB155
:10202000FEF710FC801BA84218D82068016809063A
:10203000F6D5E3E701680906E0D4016809065CBF4C
:1020400001685FEA0161D9D401680906F2D5D5E7D4
:1020500038F8021B00276FF35F21D2E7206850E8B1
:10206000030F216820F4D07041E80302BAB320685E
:1020700050E8030F216820F4D07041E8030272B3E6
:10208000206850E8030F216820F4D07041E8030273
:102090002AB3206850E8030F216820F4D07041E88B
:1020A0000302002ADAD11AE0206850E8050F2168FF
:1020B00020F0010041E80502DAB1206850E8050F80
:1020C000216820F0010041E8050292B1206850E843
:1020D000050F216820F0010041E805024AB120689F
:1020E00050E8050F216820F0010041E80502002AB0
:1020F000DAD1202084F83D0084F83E00002084F8E6
:102100003C00032001B0BDE8F08300BF0168490630
:1021100019D4FDB1691C0DD10168490613D40168B9
:1021200049065CBF01685FEA41610CD40168490659
:10213000F2D508E0FEF786FB801BA8420AD820688B
:1021400000684006F6D5202084F83D00002001B04C
:10215000BDE8F083206850E8030F216820F4D070B8
:1021600041E80302E2B3206850E8030F216820F43D
:10217000D07041E803029AB3206850E8030F216849
:1021800020F4D07041E8030252B3206850E8030FF6
:10219000216820F4D07041E80302002ADAD11FE060
:1021A000206850E8050F216820F0010041E8050291
:1021B000002A9ED0206850E8050F216820F0010019
:1021C00041E80502002A3FF494AF206850E8050F6B
:1021D000216820F0010041E80502002A3FF489AFA0
:1021E000206850E8050F216820F0010041E8050251
:1021F000002AD5D17DE700007047000010B540F2FD
:102200002014C2F2000440F2C430611CC2F200008B
:102210000122FFF74DFE43F29C329FED060ADFEDEF
:10222000060A04F10C00C0F600020121BDE81040CE
:1022300000F0EABB0000FA440000FA43FEE70000A9
:1022400010B540B90024C4F2020420464FF4004106
:10225000FEF7E4FA10B1002010BD00BF0520FEF724
:10226000EBF900BF20464FF40041FEF7D7FA0028F3
:10227000F8D0012010BD0000B0B582B043F2A83EF6
:102280008DF80010032081F0FF01C0F6000E8DF8DC
:1022900001001EF8010043F2A854C0F6000480F0CB
:1022A000FC00615C1EF80050205C694081EA12214C
:1022B000C9B21EF801504FEA122C68405040C0B21B
:1022C0008DF80320615C1EF80020205C514081EAFB
:1022D0001321C9B21EF80120615C50405840C0B2C1
:1022E0001EF80020205C51408DF8070040F20840A5
:1022F0001D0A8DF805308DF80610C2F200006946FF
:10230000082264238DF802C08DF80450FFF734FED4
:1023100002B0B0BD40F27411C2F200010A784B1C49
:102320009854487801320438C0B202280A700BD899
:10233000D2B2082A38BF7047B1F8053004A252F86B
:1023400020001ABA120C028000200870704700BFEB
:102350001C0500201E0500202005002040F2A022C0
:10236000C2F200021168013181421160B8BF7047AA
:1023700040F600000023C4F202004FF40051136045
:10238000FEF752BA2DE9F04387B0002743F630003C
:1023900006970197C4F20200016840F6000941F077
:1023A000040101600168C4F2020901F00401019115
:1023B000019901970168002241F0800101600168E4
:1023C0004FF4005601F080010191019901970168D5
:1023D00041F001010160016801F0010101910199E1
:1023E0000197016841F010010160016801F01001DE
:1023F000019101990197016841F0020101600168B2
:1024000001F00201019101990197016841F0080171
:10241000016000684FF4005100F00800019001983D
:102420004846FEF709FA09F5006528464FF4C04111
:1024300000224FF4C048FEF7FFF9029602AE0124D5
:1024400048463146CDE903440597FEF709F9284689
:102450003146CDE90284CDE90447FEF701F94FF496
:102460000040CDE90207A9F5006031460497FEF768
:10247000F7F807B0BDE8F08380B540F2EC2042F2F7
:102480000001C2F20000C4F200015322002340F612
:102490009F7C80E80E10802103618161FEF7DAFDE8
:1024A000002808BF80BDBDE88040FEF763B800008B
:1024B00080B582B040F234300021C2F2000041F217
:1024C000000240F2E73CCDE90011C4F200025323C0
:1024D000C0E9021C8021C0E900238161FEF7BAFD3A
:1024E000002818BFFEF746F840F23430C2F2000070
:1024F0006946FEF753FD002818BFFEF73BF802B00F
:1025000080BD000080B582B040F27C300021C2F274
:10251000000041F2004240F6B73CCDE90011C4F2A0
:1025200000025323C0E9021C8021C0E9002381611D
:10253000FEF790FD002818BFFEF71CF840F27C3033
:10254000C2F200006946FEF729FD002818BFFEF719
:1025500011F802B080BD000080B540F2904044F612
:102560000041C2F20000C4F2000100234FF00C0C45
:102570004FF4E13280E80E00C0E90333C0E905C33F
:10258000C361FFF71DFB002808BF80BDBDE8804088
:10259000FDF7F0BF80B540F2D44045F20001C2F231
:1025A0000000C4F2000100234FF00C0C4FF4E132A4
:1025B00080E80E00C0E90333C0E905C3C361FFF73B
:1025C000FFFA002808BF80BDBDE88040FDF7D2BFFC
:1025D00080B540F2C43041F20001C2F20000C4F202
:1025E000010100234FF00C0C4FF4E13280E80E00A3
:1025F000C0E90333C0E905C3C361FFF7E1FA00286E
:1026000008BF80BDBDE88040FDF7B4BF80B540F293
:10261000084044F20041C2F20000C4F2000100236D
:102620004FF00C0C4FF4165280E80E00C0E9033353
:10263000C0E905C3C361FFF7C3FA002808BF80BD26
:10264000BDE88040FDF796BF80B540F24C4044F6AF
:102650000001C2F20000C4F2000100234FF00C0C94
:102660004FF4E13280E80E00C0E90333C0E905C34E
:10267000C361FFF7A5FA002808BF80BDBDE8804010
:10268000FDF778BFFEE70000FEE7000010B540F25E
:10269000E62240F28C14C2F200020023C2F20004CF
:1026A000138004F8040F1020C0F23900C4F80100B0
:1026B00040F20120A4F80500217220460921E371AF
:1026C00000F0ECFDA4F8090020460B2100F0F0FB1F
:1026D000052000F00DFC002010BD00002DE9F041A8
:1026E0000D4640F2E62840F28C1410210646C2F254
:1026F00000080020C2F20004C0F25201A8F8000055
:10270000C4F8051040F20121002D2671A4F809102B
:10271000E07211D40120271D20733846092100F0F2
:10272000BDFDA4F80D0038460B2100F0C1FB0520CB
:1027300000F0DEFB10E000BF271D207338460921A2
:1027400000F0ACFDA4F80D0038460B2100F0B0FB02
:10275000052000F0CDFB6D420023A8F800301023C7
:10276000280A290C04F8046FC0F255032A0EC4F895
:10277000013040F202432172607220460B21A4F81E
:102780000530E271A57200F089FDA4F80B00204627
:102790000D2100F08DFB052000F0AAFB0020BDE814
:1027A000F081000010B540F2E62140F28C14C2F234
:1027B00000010022C2F200040A8004F8040F102075
:1027C000C0F25100C4F8010040F20120C0F20060E4
:1027D000C4F805002046092100F060FDA4F80900B6
:1027E00020460B2100F064FB052000F081FB002057
:1027F00010BD00002DE9F04140F2E62840F28C14B3
:10280000C2F200080027C2F200040546A8F80070D2
:1028100004F8040F40F201201026C0F20060C0F25C
:102820005106C4F8050020460921C4F8016000F0F3
:1028300035FDA4F8090020460B2100F039FB0520E6
:1028400000F056FB40F20120C0F20070A8F80070C2
:10285000C4F80500204609212570C4F8016000F085
:102860001DFDA4F8090020460B2100F021FB0520E6
:1028700000F03EFB40F20120C0F60070A8F80070A6
:10288000C4F80500204609212570C4F8016000F055
:1028900005FDA4F8090020460B2100F009FB0520E6
:1028A00000F026FB0020BDE8F0810000002857D092
:1028B000017890ED0F1A90ED102A80ED070A30EEA6
:1028C000C00A0029C0ED060A80ED0F0A80ED101A3B
:1028D00080ED112A48D0012940F0908090ED015AF6
:1028E00090ED026A30EE414A31EE011A90ED037A22
:1028F00024EE054A20EE065A30EE410A32EE000A76
:10290000D0E90C1280ED0C0A20EE070A34EE051A0D
:1029100090ED082A90ED043A80ED0B0A31EE000AA2
:1029200032EE000AB4EE430AF1EE10FA80ED094AE5
:1029300080ED0A5AC0E90D1280ED080AC2BF80ED91
:10294000083AB0EE430A7047B1EE431AB4EE410ABA
:10295000F1EE10FABCBF80ED081AB0EE410A7047E4
:102960009FED280A704700BF90ED024A90ED0A6A79
:1029700090ED012A90ED053A24EE004A90ED035ABD
:1029800034EE064A20EE022AD0E90C1230EE410A5B
:10299000B4EE434A80ED0C0A20EE050AF1EE10FA7F
:1029A00080ED092A80ED0A4AC0E90D1280ED0B0A7C
:1029B00006DCB1EE433AB4EE434AF1EE10FA03DA24
:1029C000B0EE434A80ED0A3A32EE042A90ED041A42
:1029D00030EE020AB4EE410AF1EE10FA80ED080A78
:1029E00007DCB1EE411AB4EE410AF1EE10FAA8BFCD
:1029F0007047B0EE410A80ED081A704790ED080A62
:102A0000704700BF00000000002818BF002A01D155
:102A1000704700BF80B501701168416051688160E6
:102A2000916880ED040AC160C0ED050A20302821BC
:102A3000FDF792FCBDE88040704700007047000041
:102A400070470000B0B50C4640F22011C2F2000100
:102A50000D7841420120002D08BF0420FFF73EFE03
:102A60000220002D08BF03202146BDE8B040FFF73B
:102A700035BE0000FDF7ECBEB0B592B0002443F6C1
:102A80004000CDE90A44CDE908440594CDE903446A
:102A9000CDE901440094C4F202000168022541F02E
:102AA00080510160006800F080500090009847F26B
:102AB00000000094C4F20000016841F4804101600C
:102AC0000068A82100F48040009000980120069042
:102AD0004FF4803007904FF480000D9004200E904A
:102AE000119006A80C95CDE90F15FEF775F828B1E1
:102AF000EFF3108072B600BFFEE700BF0F20CDE9F4
:102B000001054FF4A05004904FF48050059001A8A7
:102B100005210394FDF752FF20B1EFF3108072B648
:102B2000FEE700BF12B0B0BD4EF68850CEF20000F6
:102B3000016841F4700101607047000040F23430D8
:102B4000C2F20000FEF786BB40F27C30C2F2000009
:102B5000FEF780BB40F2EC20C2F20000FEF77ABB29
:102B600010B540F6FF3E0368C4F2000E40F2004C80
:102B70007045C4F2010C27DCB0F1804F31D040F237
:102B80000042C4F2000290422BD040F60002C4F290
:102B90000002904225D041F6FF72C4F2000290423A
:102BA00029DC70453CDCB0F1804F5FD040F2004240
:102BB000C4F20002904259D040F60002C4F2000272
:102BC000904253D056E000BF40F60042C4F20002EB
:102BD000904206D0604504D00022C4F20102904227
:102BE000D9D14A6823F07003134341F6FF72C4F24F
:102BF00000029042D5DD43F6FF72C4F2010290421A
:102C000022DC42F20002C4F2000290422ED00022E6
:102C1000C4F20102904229D0604527D02AE000BFCB
:102C200040F60042C4F2000290421FD041F600027A
:102C3000C4F20002904219D041F60042C4F20002F0
:102C4000904213D016E000BF44F20002C4F2010229
:102C500090420BD044F60002C4F20102904205D02B
:102C600044F20042C4F20102904203D1CA6823F444
:102C70004073134323F080024B69D1F800E08C6865
:102C80001A430260C46240F48062C0F828E06245E2
:102C900004BF096901630121416110BD806B0021FE
:102CA000C185C184FEF7DEBC81B090F83E102229B8
:102CB00020D18368B3F5805F08D10169002965D010
:102CC00000F128010A6803685B680AE0014651F8D0
:102CD000282F13B90369002BF5D003685B6803F054
:102CE0007F0313700A6801320A60C18D01390A043A
:102CF000C18501D001B070470168CA6822F0200286
:102D0000CA60CA6822F48072CA604A6922F001026D
:102D10004A61202280F83E20026B012A40D1002225
:102D2000026300BF51E8031F026821F0100142E86E
:102D300003130168DBB151E8031F026821F01001A1
:102D400042E80313016893B151E8031F026821F0C0
:102D5000100142E8031301684BB151E8031F0268F8
:102D600021F0100142E803130168002BDAD10A6850
:102D7000D20606D5002200920A68009249680091A6
:102D80000099818D01B0FEF74DBC00BF0168826AD9
:102D900049686FF35F2122F8021B8262A5E700BF3A
:102DA00001B0FFF7B5B8000010B504460068D4E9DB
:102DB00002C22369016921F4405111430161626932
:102DC00043EA0C01E3691143C268194349F20C63F9
:102DD0009A431143C1604169A26921F4407141F2F3
:102DE0000043114340F48062C4F201039A424161FE
:102DF00002D1FDF7A7FE01E0FDF790FEE1696368EF
:102E00001922B1F5004FA0FB02011FD15A00DB0FC0
:102E1000FDF72AFA48F21F51C5F2EB11A0FB01237E
:102E20005A096FF0630302FB0300322303EBC00077
:102E3000A0FB01014FF4F87000EA111000EB021042
:102E4000C1F3421108442168886010BD9A009B0FAD
:102E5000FDF70AFA48F21F51C5F2EB11A0FB01235E
:102E60005A096FF0630302FB0300322303EB0010E7
:102E7000A0FB0101F02000EA511000EB0210C1F3A9
:102E8000431108442168886010BD000040F2C4303E
:102E9000C2F20000FEF7E8BB40F20840C2F20000B8
:102EA000FEF7E2BB40F24C40C2F20000FEF7DCBB92
:102EB00080B50A46014640F24C40C2F2000064234D
:102EC000FFF75AF840F2E420C2F20000002101703E
:102ED00080BD0000FEE7000010B504460420FEF7A8
:102EE00037F840F2E820C2F20000046010BD000094
:102EF00070B590B340F2E821C2F2000109684FF4C6
:102F00007A7251434EF21802431ECEF20002032B96
:102F100000F0030C22D2BCF1000F1ED052F8040CBA
:102F20001668002308E000BF33445B1BAE4298BF25
:102F300003448B422E460DD21568AE42F4D115687B
:102F4000AE42F1D11568AE42EED11568AE42F3D073
:102F5000EAE700BFBCF1010F78D170BD20F0030E8D
:102F6000002302E004337345D5D052F8040C1568F1
:102F7000002407E02C44A41BB54298BF04448C42B3
:102F800035460DD21668B542F4D11668B542F1D176
:102F90001668B542EED11668B542F3D0EAE700BF35
:102FA00052F8040C1568002408E000BF2C44A41B50
:102FB000B54298BF04448C4235460DD21668B542DE
:102FC000F4D11668B542F1D11668B542EED1166853
:102FD000B542F3D0EAE700BF52F8040C15680024AC
:102FE00008E000BF2C44A41BB54298BF04448C42A7
:102FF00035460DD21668B542F4D11668B542F1D106
:103000001668B542EED11668B542F3D0EAE700BFC4
:1030100052F8040C156800240AE000BF2C44A41BDD
:10302000B54298BF04448C423546BFF49BAF00BF05
:103030001668B542F2D11668B542EFD11668B542AE
:10304000ECD11668B542F3D0E8E700BF52F8040CA3
:103050001668002308E000BF33445B1BAE4298BFF4
:1030600003448B422E460DD21568AE42F4D115684A
:10307000AE42F1D11568AE42EED11568AE42F3D042
:10308000EAE700BFBCF1020F08BF70BD52F8040CA4
:10309000166800230AE000BF33445B1BAE4298BFB2
:1030A00003448B422E46BFF458AF00BF1568AE42B2
:1030B000F2D11568AE42EFD11568AE42ECD1156879
:1030C000AE42F3D0E8E70000FDF7B6BAFDF7CEFB5D
:1030D000FFF7D2FCA820FFF7FFFEFFF753F9FFF739
:1030E0003BFAFFF757FAFFF773FAFFF78FFAFFF78C
:1030F000ABFAFFF7C1F9FFF705FAFFF7D9F940F28C
:103100004C40C2F200000168CA6842F01002CA6076
:1031100040F2A421C2F200014022FEF70DFAFFF7AF
:103120006DF840F2EC20C2F2000001686FF001027D
:103130000A61FEF719F840F23430C2F20000FEF7DF
:1031400013F840F27C30C2F20000FEF70DF840F2B6
:10315000084040F21011C2F20000C2F20001012248
:10316000FEF7A6FE4FF4FA70FFF7C2FE40F23050B1
:10317000C2F20000B0F904009FED341A00EE100A0C
:10318000B8EEC00A9FED322A20EE010A40F2185034
:1031900020EE020AC2F2000080ED000A01200221A6
:1031A000FFF774FA0120FFF7A3FE02200221FFF7C8
:1031B0006DFA0120FFF79CFE03200221FFF766FA5B
:1031C0000120FFF795FE04200221FFF75FFA01209E
:1031D000FFF78EFE0120FFF7E5FA0220FFF7E2FA83
:1031E0000320FFF7DFFA0420FFF7DCFA40F2785003
:1031F000C2F20000002101600020FFF721F8002842
:10320000FAD00120FDF770F94FF4FA70FFF770FE65
:103210004FF4C8704FF4C871FFF714FC4FF4FA6014
:10322000FFF766FE4FF67060CFF6FF700146FFF7BE
:1032300009FC4FF4FA60FFF75BFE0120FDF754F93B
:1032400040F6B830FFF754FEFEE700BF000000383C
:1032500000003443704700007047000010B50C4672
:10326000014640F20840A2B2C2F200006423FEF719
:1032700083FE002818BF0024204610BD40F2EC2039
:10328000C2F20000016800224A62FDF76DBF000033
:1032900040F2EC20C2F20000FDF7BCBF91B1F0B5E6
:1032A0004A1E92B243F2A84343F2A86E01F0030C07
:1032B000032AC0F60003C0F6000E07D2FF22FF214A
:1032C0002BE000BF4FF6FF7080B2704721F003047F
:1032D0000025FF22FF2100BF10F8046B0435724067
:1032E0009E5C10F8037C714079401EF802205E5C01
:1032F00010F8027C72407A401EF801109E5C10F8B3
:10330000017C714079401EF802205E5C1EF80110BD
:10331000AFB2A74282EA0602DED1BCF1000F1CD098
:103320000478BCF1010F84EA02041A5D82EA01020A
:103330001EF8041011D04478BCF1020F82EA040296
:103340009C5C84EA01041EF80210E2B205D0807889
:1033500050401A5C4A401EF80010C8B242EA0020F1
:10336000BDE8F04080B27047F1EE100A4FF6FF71F1
:10337000C0F2C03120EA010040F04070E1EE100AD6
:10338000704700000000000000000102030406076F
:103390000809000000000102030400000000404092
:1033A0000000803F0000000000C1814001C080415A
:1033B00001C0804100C1814001C0804100C1814005
:1033C00000C1814001C0804101C0804100C18140F5
:1033D00000C1814001C0804100C1814001C08041E5
:1033E00001C0804100C1814001C0804100C18140D5
:1033F00000C1814001C0804100C1814001C08041C5
:1034000001C0804100C1814000C1814001C08041B4
:1034100001C0804100C1814001C0804100C18140A4
:1034200000C1814001C0804101C0804100C1814094
:1034300000C1814001C0804100C1814001C0804184
:1034400001C0804100C1814000C1814001C0804174
:1034500001C0804100C1814001C0804100C1814064
:1034600000C1814001C0804100C1814001C0804154
:1034700001C0804100C1814001C0804100C1814044
:1034800000C1814001C0804101C0804100C1814034
:1034900000C1814001C0804100C1814001C0804124
:1034A00001C0804100C1814000C1814001C0804114
:1034B00001C0804100C1814001C0804100C1814004
:1034C00000C1814001C0804101C0804100C18140F4
:1034D00000C1814001C0804100C1814001C08041E4
:1034E00001C0804100C1814001C0804100C18140D4
:1034F00000C1814001C0804100C1814001C08041C4
:1035000001C0804100C1814000C1814001C08041B3
:1035100001C0804100C1814001C0804100C18140A3
:1035200000C1814001C0804101C0804100C1814093
:1035300000C1814001C0804100C1814001C0804183
:1035400001C0804100C1814000C1814001C0804173
:1035500001C0804100C1814001C0804100C1814063
:1035600000C1814001C0804100C1814001C0804153
:1035700001C0804100C1814001C0804100C1814043
:1035800000C1814001C0804101C0804100C1814033
:1035900000C1814001C0804100C1814001C0804123
:1035A00001C0804100C1814000C0C101C30302C20B
:1035B000C60607C705C5C404CC0C0DCD0FCFCE0E73
:1035C0000ACACB0BC90908C8D81819D91BDBDA1AE3
:1035D0001EDEDF1FDD1D1CDC14D4D515D71716D653
:1035E000D21213D311D1D010F03031F133F3F232C3
:1035F00036F6F737F53534F43CFCFD3DFF3F3EFE33
:10360000FA3A3BFB39F9F83828E8E929EB2B2AEAA2
:10361000EE2E2FEF2DEDEC2CE42425E527E7E62612
:1036200022E2E323E12120E0A06061A163A3A26282
:1036300066A6A767A56564A46CACAD6DAF6F6EAEF2
:10364000AA6A6BAB69A9A86878B8B979BB7B7ABA62
:10365000BE7E7FBF7DBDBC7CB47475B577B7B676D2
:1036600072B2B373B17170B0509091519353529242
:1036700096565797559594549C5C5D9D5F9F9E5EB2
:103680005A9A9B5B99595898884849894B8B8A4A22
:103690004E8E8F4F8D4D4C8C448485458747468692
:1036A000824243834181804000C0C101C30302C202
:1036B000C60607C705C5C404CC0C0DCD0FCFCE0E72
:1036C0000ACACB0BC90908C8D81819D91BDBDA1AE2
:1036D0001EDEDF1FDD1D1CDC14D4D515D71716D652
:1036E000D21213D311D1D010F03031F133F3F232C2
:1036F00036F6F737F53534F43CFCFD3DFF3F3EFE32
:10370000FA3A3BFB39F9F83828E8E929EB2B2AEAA1
:10371000EE2E2FEF2DEDEC2CE42425E527E7E62611
:1037200022E2E323E12120E0A06061A163A3A26281
:1037300066A6A767A56564A46CACAD6DAF6F6EAEF1
:10374000AA6A6BAB69A9A86878B8B979BB7B7ABA61
:10375000BE7E7FBF7DBDBC7CB47475B577B7B676D1
:1037600072B2B373B17170B0509091519353529241
:1037700096565797559594549C5C5D9D5F9F9E5EB1
:103780005A9A9B5B99595898884849894B8B8A4A21
:103790004E8E8F4F8D4D4C8C448485458747468691
:1037A0008242438341818040C837000800000020E6
:1037B000B0000000C401000878380008B000002004
:1037C000D80A0000E001000801000000100000001D
:1037D00004000000000000000000000000000000E5
:1037E00000000000000000000000000000000000D9
:1037F00000000000000000000000000000000000C9
:1038000000000000000000000000000000000000B8
:1038100000000000000000000000000000000000A8
:103820000000000000000000000000000000000098
:103830000000000000000000000000000000000088
:103840000000000000000000000000000000000078
:103850000000000000000000553200085932000846
:10386000C9300008913200087D3200085D3200083E
:083870000024F4000000000038
:040000050800018965
:00000001FF
